{
  "address": "0x8F08BE06C5Ec587713ddEFBdE872675dC56ed95F",
  "abi": [
    {
      "inputs": [
        {
          "internalType": "contract IERC20",
          "name": "_token",
          "type": "address"
        },
        {
          "internalType": "address",
          "name": "_usdt",
          "type": "address"
        },
        {
          "internalType": "address",
          "name": "_busd",
          "type": "address"
        }
      ],
      "stateMutability": "nonpayable",
      "type": "constructor"
    },
    {
      "anonymous": false,
      "inputs": [
        {
          "indexed": true,
          "internalType": "address",
          "name": "previousOwner",
          "type": "address"
        },
        {
          "indexed": true,
          "internalType": "address",
          "name": "newOwner",
          "type": "address"
        }
      ],
      "name": "OwnershipTransferred",
      "type": "event"
    },
    {
      "anonymous": false,
      "inputs": [
        {
          "indexed": false,
          "internalType": "address",
          "name": "buyer",
          "type": "address"
        },
        {
          "indexed": false,
          "internalType": "uint256",
          "name": "amount",
          "type": "uint256"
        }
      ],
      "name": "Sold",
      "type": "event"
    },
    {
      "inputs": [],
      "name": "BUSD",
      "outputs": [
        {
          "internalType": "address",
          "name": "",
          "type": "address"
        }
      ],
      "stateMutability": "view",
      "type": "function"
    },
    {
      "inputs": [],
      "name": "USDT",
      "outputs": [
        {
          "internalType": "address",
          "name": "",
          "type": "address"
        }
      ],
      "stateMutability": "view",
      "type": "function"
    },
    {
      "inputs": [],
      "name": "availableAtTGE",
      "outputs": [
        {
          "internalType": "uint256",
          "name": "",
          "type": "uint256"
        }
      ],
      "stateMutability": "view",
      "type": "function"
    },
    {
      "inputs": [
        {
          "internalType": "uint256",
          "name": "_busdAmount",
          "type": "uint256"
        }
      ],
      "name": "buyTokensUsingBUSD",
      "outputs": [],
      "stateMutability": "nonpayable",
      "type": "function"
    },
    {
      "inputs": [
        {
          "internalType": "uint256",
          "name": "_usdtAmount",
          "type": "uint256"
        }
      ],
      "name": "buyTokensUsingUSDT",
      "outputs": [],
      "stateMutability": "nonpayable",
      "type": "function"
    },
    {
      "inputs": [],
      "name": "cliff",
      "outputs": [
        {
          "internalType": "uint256",
          "name": "",
          "type": "uint256"
        }
      ],
      "stateMutability": "view",
      "type": "function"
    },
    {
      "inputs": [],
      "name": "coinsSold",
      "outputs": [
        {
          "internalType": "uint256",
          "name": "",
          "type": "uint256"
        }
      ],
      "stateMutability": "view",
      "type": "function"
    },
    {
      "inputs": [
        {
          "internalType": "uint256",
          "name": "_busdAmount",
          "type": "uint256"
        }
      ],
      "name": "computeTokensForBUSD",
      "outputs": [
        {
          "internalType": "uint256",
          "name": "",
          "type": "uint256"
        }
      ],
      "stateMutability": "view",
      "type": "function"
    },
    {
      "inputs": [
        {
          "internalType": "uint256",
          "name": "_usdtAmount",
          "type": "uint256"
        }
      ],
      "name": "computeTokensForUSDT",
      "outputs": [
        {
          "internalType": "uint256",
          "name": "",
          "type": "uint256"
        }
      ],
      "stateMutability": "view",
      "type": "function"
    },
    {
      "inputs": [],
      "name": "duration",
      "outputs": [
        {
          "internalType": "uint256",
          "name": "",
          "type": "uint256"
        }
      ],
      "stateMutability": "view",
      "type": "function"
    },
    {
      "inputs": [],
      "name": "endSale",
      "outputs": [],
      "stateMutability": "nonpayable",
      "type": "function"
    },
    {
      "inputs": [],
      "name": "exchangePriceBUSD",
      "outputs": [
        {
          "internalType": "uint256",
          "name": "",
          "type": "uint256"
        }
      ],
      "stateMutability": "view",
      "type": "function"
    },
    {
      "inputs": [],
      "name": "exchangePriceUSDT",
      "outputs": [
        {
          "internalType": "uint256",
          "name": "",
          "type": "uint256"
        }
      ],
      "stateMutability": "view",
      "type": "function"
    },
    {
      "inputs": [],
      "name": "maxBuyAmountBUSD",
      "outputs": [
        {
          "internalType": "uint256",
          "name": "",
          "type": "uint256"
        }
      ],
      "stateMutability": "view",
      "type": "function"
    },
    {
      "inputs": [],
      "name": "maxBuyAmountUSDT",
      "outputs": [
        {
          "internalType": "uint256",
          "name": "",
          "type": "uint256"
        }
      ],
      "stateMutability": "view",
      "type": "function"
    },
    {
      "inputs": [],
      "name": "minBuyAmountBUSD",
      "outputs": [
        {
          "internalType": "uint256",
          "name": "",
          "type": "uint256"
        }
      ],
      "stateMutability": "view",
      "type": "function"
    },
    {
      "inputs": [],
      "name": "minBuyAmountUSDT",
      "outputs": [
        {
          "internalType": "uint256",
          "name": "",
          "type": "uint256"
        }
      ],
      "stateMutability": "view",
      "type": "function"
    },
    {
      "inputs": [],
      "name": "owner",
      "outputs": [
        {
          "internalType": "address",
          "name": "",
          "type": "address"
        }
      ],
      "stateMutability": "view",
      "type": "function"
    },
    {
      "inputs": [],
      "name": "renounceOwnership",
      "outputs": [],
      "stateMutability": "nonpayable",
      "type": "function"
    },
    {
      "inputs": [
        {
          "internalType": "bytes32",
          "name": "vestingScheduleId",
          "type": "bytes32"
        }
      ],
      "name": "revoke",
      "outputs": [],
      "stateMutability": "nonpayable",
      "type": "function"
    },
    {
      "inputs": [],
      "name": "saleStatus",
      "outputs": [
        {
          "internalType": "enum TokenPreSale.SaleStatus",
          "name": "",
          "type": "uint8"
        }
      ],
      "stateMutability": "view",
      "type": "function"
    },
    {
      "inputs": [
        {
          "internalType": "uint256",
          "name": "_availableAtTGE",
          "type": "uint256"
        }
      ],
      "name": "setAvailableAtTGE",
      "outputs": [],
      "stateMutability": "nonpayable",
      "type": "function"
    },
    {
      "inputs": [
        {
          "internalType": "uint256",
          "name": "_min",
          "type": "uint256"
        },
        {
          "internalType": "uint256",
          "name": "_max",
          "type": "uint256"
        }
      ],
      "name": "setBuyAmountRangeBUSD",
      "outputs": [],
      "stateMutability": "nonpayable",
      "type": "function"
    },
    {
      "inputs": [
        {
          "internalType": "uint256",
          "name": "_min",
          "type": "uint256"
        },
        {
          "internalType": "uint256",
          "name": "_max",
          "type": "uint256"
        }
      ],
      "name": "setBuyAmountRangeUSDT",
      "outputs": [],
      "stateMutability": "nonpayable",
      "type": "function"
    },
    {
      "inputs": [
        {
          "internalType": "uint256",
          "name": "_cliff",
          "type": "uint256"
        }
      ],
      "name": "setCliff",
      "outputs": [],
      "stateMutability": "nonpayable",
      "type": "function"
    },
    {
      "inputs": [
        {
          "internalType": "uint256",
          "name": "_duration",
          "type": "uint256"
        }
      ],
      "name": "setDuration",
      "outputs": [],
      "stateMutability": "nonpayable",
      "type": "function"
    },
    {
      "inputs": [
        {
          "internalType": "uint256",
          "name": "_busdPrice",
          "type": "uint256"
        }
      ],
      "name": "setExchangePriceBUSD",
      "outputs": [],
      "stateMutability": "nonpayable",
      "type": "function"
    },
    {
      "inputs": [
        {
          "internalType": "uint256",
          "name": "_usdtPrice",
          "type": "uint256"
        }
      ],
      "name": "setExchangePriceUSDT",
      "outputs": [],
      "stateMutability": "nonpayable",
      "type": "function"
    },
    {
      "inputs": [
        {
          "internalType": "enum TokenPreSale.SaleStatus",
          "name": "_saleStatus",
          "type": "uint8"
        }
      ],
      "name": "setSaleStatus",
      "outputs": [],
      "stateMutability": "nonpayable",
      "type": "function"
    },
    {
      "inputs": [
        {
          "internalType": "uint256",
          "name": "_timePeriodInSeconds",
          "type": "uint256"
        }
      ],
      "name": "setTimeStamp",
      "outputs": [],
      "stateMutability": "nonpayable",
      "type": "function"
    },
    {
      "inputs": [],
      "name": "timelock",
      "outputs": [
        {
          "internalType": "contract TokenPreTimelock",
          "name": "",
          "type": "address"
        }
      ],
      "stateMutability": "view",
      "type": "function"
    },
    {
      "inputs": [],
      "name": "token",
      "outputs": [
        {
          "internalType": "contract IERC20",
          "name": "",
          "type": "address"
        }
      ],
      "stateMutability": "view",
      "type": "function"
    },
    {
      "inputs": [
        {
          "internalType": "contract IERC20",
          "name": "_token",
          "type": "address"
        },
        {
          "internalType": "uint256",
          "name": "_amount",
          "type": "uint256"
        }
      ],
      "name": "transferAccidentallyLockedTokensInTimeLock",
      "outputs": [],
      "stateMutability": "nonpayable",
      "type": "function"
    },
    {
      "inputs": [
        {
          "internalType": "address",
          "name": "newOwner",
          "type": "address"
        }
      ],
      "name": "transferOwnership",
      "outputs": [],
      "stateMutability": "nonpayable",
      "type": "function"
    },
    {
      "inputs": [],
      "name": "vesting",
      "outputs": [
        {
          "internalType": "contract TokenPreVesting",
          "name": "",
          "type": "address"
        }
      ],
      "stateMutability": "view",
      "type": "function"
    },
    {
      "inputs": [],
      "name": "withdrawBUSD",
      "outputs": [],
      "stateMutability": "nonpayable",
      "type": "function"
    },
    {
      "inputs": [
        {
          "internalType": "uint256",
          "name": "_amount",
          "type": "uint256"
        }
      ],
      "name": "withdrawFromVesting",
      "outputs": [],
      "stateMutability": "nonpayable",
      "type": "function"
    },
    {
      "inputs": [],
      "name": "withdrawUSDT",
      "outputs": [],
      "stateMutability": "nonpayable",
      "type": "function"
    }
  ],
  "transactionHash": "0xbf743a1e84ebe8300eac1f3e92735d6427a8b9d92587dff4982ffe33a862af6d",
  "args": [
    "0xa0F5deBF1FbE0a5d5861dD8D97C7326Ba7F57b4E",
    "0xfd55D5eB19731e79FB600579756dF7f454b2aA08",
    "0xa0D61133044ACB8Fb72Bc5a0378Fe13786538Dd0"
  ],
  "numDeployments": 1,
  "bytecode": "0x60c06040526701aa535d3d0c00006003556701aa535d3d0c00006004556302c7ea006005556276a700600655670de0b6b3a764000060075569021e19e0c9bab2400000600855670de0b6b3a764000060095569021e19e0c9bab2400000600a5560c8600d553480156200007157600080fd5b50604051620063d4380380620063d4833981016040819052620000949162000213565b6200009f336200018e565b600180546001600160a01b0319166001600160a01b0385811691821790925583821660805290821660a052604051620000d890620001de565b6001600160a01b039091168152602001604051809103906000f08015801562000105573d6000803e3d6000fd5b50600b80546001600160a01b0319166001600160a01b039283161790556001546040519116906200013690620001ec565b6001600160a01b039091168152602001604051809103906000f08015801562000163573d6000803e3d6000fd5b50600c80546001600160a01b0319166001600160a01b03929092169190911790555062000267915050565b600080546001600160a01b038381166001600160a01b0319831681178455604051919092169283917f8be0079c531659141344cd1fd0a4f28419497f9722a3daafe3b4186f6b6457e09190a35050565b6127a1806200237a83390190565b6118b98062004b1b83390190565b6001600160a01b03811681146200021057600080fd5b50565b6000806000606084860312156200022957600080fd5b83516200023681620001fa565b60208501519093506200024981620001fa565b60408501519092506200025c81620001fa565b809150509250925092565b60805160a0516120a7620002d36000396000818161032d01528181610a7601528181610b02015281816119f301528181611a9a0152611b82015260008181610444015281816106f30152818161077f0152818161109c01528181611143015261122b01526120a76000f3fe608060405234801561001057600080fd5b50600436106102925760003560e01c806396ce353211610160578063da499ad0116100d8578063f6be71d11161008c578063fc0c546a11610071578063fc0c546a14610504578063fcdaa6b114610517578063ff4d1f251461052057600080fd5b8063f6be71d1146104d7578063f9020e33146104ea57600080fd5b8063efd4bde5116100bd578063efd4bde5146104a8578063f2fde38b146104b1578063f3fe4809146104c457600080fd5b8063da499ad014610482578063ec41f7dd1461049557600080fd5b8063b937f1e01161012f578063c54e44eb11610114578063c54e44eb1461043f578063d00eea8414610466578063d33219b41461046f57600080fd5b8063b937f1e014610423578063ba7d837b1461043657600080fd5b806396ce3532146103e15780639a99e3c5146103ea578063a5dee4eb146103fd578063b75c7dc61461041057600080fd5b80634891ad881161020e57806377cdf957116101c2578063879b60ee116101a7578063879b60ee146103aa5780638da5cb5b146103bd5780638ddeaf39146103ce57600080fd5b806377cdf9571461038e5780637a81450c146103a157600080fd5b80635b0b8596116101f35780635b0b85961461036b578063715018a6146103735780637540cd631461037b57600080fd5b80634891ad881461034f5780634a4a9b021461036257600080fd5b806325c57cc611610265578063380d831b1161024a578063380d831b146102f557806344c63eec146102fd578063484f4ea91461032857600080fd5b806325c57cc6146102e4578063362e496b146102ed57600080fd5b80630e6a2f0a146102975780630fb5a6b4146102ac57806313d033c0146102c857806313e43bc6146102d1575b600080fd5b6102aa6102a5366004611dae565b610533565b005b6102b560055481565b6040519081526020015b60405180910390f35b6102b560065481565b6102aa6102df366004611dd0565b61058b565b6102b5600d5481565b6102aa610693565b6102aa610843565b600b54610310906001600160a01b031681565b6040516001600160a01b0390911681526020016102bf565b6103107f000000000000000000000000000000000000000000000000000000000000000081565b6102aa61035d366004611de9565b6109a8565b6102b560035481565b6102aa610a16565b6102aa610b41565b6102b5610389366004611dd0565b610b95565b6102b561039c366004611dd0565b610c4e565b6102b560025481565b6102aa6103b8366004611e1f565b610cec565b6000546001600160a01b0316610310565b6102aa6103dc366004611dd0565b610e40565b6102b560085481565b6102aa6103f8366004611dd0565b610e8d565b6102aa61040b366004611dd0565b610eda565b6102aa61041e366004611dd0565b610fa5565b6102aa610431366004611dd0565b61101e565b6102b5600a5481565b6103107f000000000000000000000000000000000000000000000000000000000000000081565b6102b560095481565b600c54610310906001600160a01b031681565b6102aa610490366004611dd0565b611808565b6102aa6104a3366004611dae565b611855565b6102b560045481565b6102aa6104bf366004611e4b565b6118a8565b6102aa6104d2366004611dd0565b611975565b6102aa6104e5366004611dd0565b611c7f565b600e546104f79060ff1681565b6040516102bf9190611e7e565b600154610310906001600160a01b031681565b6102b560075481565b6102aa61052e366004611dd0565b611ccc565b6000546001600160a01b031633146105805760405162461bcd60e51b8152602060048201819052602482015260008051602061207b83398151915260448201526064015b60405180910390fd5b600991909155600a55565b6000546001600160a01b031633146105d35760405162461bcd60e51b8152602060048201819052602482015260008051602061207b8339815191526044820152606401610577565b600b5460405163a0a2b57360e01b8152600481018390526001600160a01b039091169063a0a2b57390602401600060405180830381600087803b15801561061957600080fd5b505af115801561062d573d6000803e3d6000fd5b5050600c5460405163a0a2b57360e01b8152600481018590526001600160a01b03909116925063a0a2b57391506024015b600060405180830381600087803b15801561067857600080fd5b505af115801561068c573d6000803e3d6000fd5b5050505050565b6000546001600160a01b031633146106db5760405162461bcd60e51b8152602060048201819052602482015260008051602061207b8339815191526044820152606401610577565b6040516370a0823160e01b81523060048201526000907f00000000000000000000000000000000000000000000000000000000000000006001600160a01b0316906370a082319060240160206040518083038186803b15801561073d57600080fd5b505afa158015610751573d6000803e3d6000fd5b505050506040513d601f19601f820116820180604052508101906107759190611ea6565b90508015610840577f00000000000000000000000000000000000000000000000000000000000000006001600160a01b031663a9059cbb6107be6000546001600160a01b031690565b6040516001600160e01b031960e084901b1681526001600160a01b03909116600482015260248101849052604401602060405180830381600087803b15801561080657600080fd5b505af115801561081a573d6000803e3d6000fd5b505050506040513d601f19601f8201168201806040525081019061083e9190611ebf565b505b50565b6000546001600160a01b0316331461088b5760405162461bcd60e51b8152602060048201819052602482015260008051602061207b8339815191526044820152606401610577565b600e805460ff19169055600b546040805163242f843360e21b815290516000926001600160a01b0316916390be10cc916004808301926020929190829003018186803b1580156108da57600080fd5b505afa1580156108ee573d6000803e3d6000fd5b505050506040513d601f19601f820116820180604052508101906109129190611ea6565b9050801561099857600b546040805163242f843360e21b81529051610998926001600160a01b0316916390be10cc916004808301926020929190829003018186803b15801561096057600080fd5b505afa158015610974573d6000803e3d6000fd5b505050506040513d601f19601f8201168201806040525081019061040b9190611ea6565b6109a0610a16565b610840610693565b6000546001600160a01b031633146109f05760405162461bcd60e51b8152602060048201819052602482015260008051602061207b8339815191526044820152606401610577565b600e805482919060ff191660018381811115610a0e57610a0e611e68565b021790555050565b6000546001600160a01b03163314610a5e5760405162461bcd60e51b8152602060048201819052602482015260008051602061207b8339815191526044820152606401610577565b6040516370a0823160e01b81523060048201526000907f00000000000000000000000000000000000000000000000000000000000000006001600160a01b0316906370a082319060240160206040518083038186803b158015610ac057600080fd5b505afa158015610ad4573d6000803e3d6000fd5b505050506040513d601f19601f82011682018060405250810190610af89190611ea6565b90508015610840577f00000000000000000000000000000000000000000000000000000000000000006001600160a01b031663a9059cbb6107be6000546001600160a01b031690565b6000546001600160a01b03163314610b895760405162461bcd60e51b8152602060048201819052602482015260008051602061207b8339815191526044820152606401610577565b610b936000611d19565b565b600080600160009054906101000a90046001600160a01b03166001600160a01b031663313ce5676040518163ffffffff1660e01b815260040160206040518083038186803b158015610be657600080fd5b505afa158015610bfa573d6000803e3d6000fd5b505050506040513d601f19601f82011682018060405250810190610c1e9190611ee1565b60ff16905060045481600a610c339190611ffe565b610c3d908561200a565b610c479190612029565b9392505050565b600080600160009054906101000a90046001600160a01b03166001600160a01b031663313ce5676040518163ffffffff1660e01b815260040160206040518083038186803b158015610c9f57600080fd5b505afa158015610cb3573d6000803e3d6000fd5b505050506040513d601f19601f82011682018060405250810190610cd79190611ee1565b60ff16905060035481600a610c339190611ffe565b6000546001600160a01b03163314610d345760405162461bcd60e51b8152602060048201819052602482015260008051602061207b8339815191526044820152606401610577565b600c54604051631f4ca4a160e11b81526001600160a01b0384811660048301526024820184905290911690633e99494290604401600060405180830381600087803b158015610d8257600080fd5b505af1158015610d96573d6000803e3d6000fd5b50505050816001600160a01b031663a9059cbb610dbb6000546001600160a01b031690565b6040516001600160e01b031960e084901b1681526001600160a01b03909116600482015260248101849052604401602060405180830381600087803b158015610e0357600080fd5b505af1158015610e17573d6000803e3d6000fd5b505050506040513d601f19601f82011682018060405250810190610e3b9190611ebf565b505050565b6000546001600160a01b03163314610e885760405162461bcd60e51b8152602060048201819052602482015260008051602061207b8339815191526044820152606401610577565b600355565b6000546001600160a01b03163314610ed55760405162461bcd60e51b8152602060048201819052602482015260008051602061207b8339815191526044820152606401610577565b600d55565b6000546001600160a01b03163314610f225760405162461bcd60e51b8152602060048201819052602482015260008051602061207b8339815191526044820152606401610577565b600b54604051632e1a7d4d60e01b8152600481018390526001600160a01b0390911690632e1a7d4d90602401600060405180830381600087803b158015610f6857600080fd5b505af1158015610f7c573d6000803e3d6000fd5b50506001546001600160a01b0316915063a9059cbb90506107be6000546001600160a01b031690565b6000546001600160a01b03163314610fed5760405162461bcd60e51b8152602060048201819052602482015260008051602061207b8339815191526044820152606401610577565b600b54604051635bae3ee360e11b8152600481018390526001600160a01b039091169063b75c7dc69060240161065e565b6001600e5460ff16600181111561103757611037611e68565b146110845760405162461bcd60e51b815260206004820152601e60248201527f546f6b656e50726553616c653a2053616c65206e6f74207374617274656400006044820152606401610577565b6040516370a0823160e01b81523060048201526000907f00000000000000000000000000000000000000000000000000000000000000006001600160a01b0316906370a082319060240160206040518083038186803b1580156110e657600080fd5b505afa1580156110fa573d6000803e3d6000fd5b505050506040513d601f19601f8201168201806040525081019061111e9190611ea6565b6040516323b872dd60e01b8152336004820152306024820152604481018490529091507f00000000000000000000000000000000000000000000000000000000000000006001600160a01b0316906323b872dd90606401602060405180830381600087803b15801561118f57600080fd5b505af11580156111a3573d6000803e3d6000fd5b505050506040513d601f19601f820116820180604052508101906111c79190611ebf565b6112135760405162461bcd60e51b815260206004820152601a60248201527f546f6b656e50726553616c653a2055534454202d3e20746869730000000000006044820152606401610577565b6040516370a0823160e01b81523060048201526000907f00000000000000000000000000000000000000000000000000000000000000006001600160a01b0316906370a082319060240160206040518083038186803b15801561127557600080fd5b505afa158015611289573d6000803e3d6000fd5b505050506040513d601f19601f820116820180604052508101906112ad9190611ea6565b905060006112bb8284611d81565b905060075481101580156112d157506008548111155b61131d5760405162461bcd60e51b815260206004820152601f60248201527f546f6b656e50726553616c653a2055534454206f7574206f662072616e6765006044820152606401610577565b600061132882610c4e565b60015490915081906001600160a01b031663dd62ed3e6113506000546001600160a01b031690565b6040516001600160e01b031960e084901b1681526001600160a01b03909116600482015230602482015260440160206040518083038186803b15801561139557600080fd5b505afa1580156113a9573d6000803e3d6000fd5b505050506040513d601f19601f820116820180604052508101906113cd9190611ea6565b10156114415760405162461bcd60e51b815260206004820152602960248201527f546f6b656e50726553616c653a20696e73756666696369656e7420746f6b656e60448201527f20617070726f76616c00000000000000000000000000000000000000000000006064820152608401610577565b60408051338152602081018390527fae92ab4b6f8f401ead768d3273e6bb937a13e39827d19c6376e8fd4512a05d9a910160405180910390a1806002600082825461148c919061204b565b9250508190555060006114b66127106114b0600d5485611d9690919063ffffffff16565b90611da2565b905060006114c48383611d81565b90508115611650576001546001600160a01b03166323b872dd6114ef6000546001600160a01b031690565b600c5460405160e084901b6001600160e01b03191681526001600160a01b0392831660048201529116602482015260448101859052606401602060405180830381600087803b15801561154157600080fd5b505af1158015611555573d6000803e3d6000fd5b505050506040513d601f19601f820116820180604052508101906115799190611ebf565b6115eb5760405162461bcd60e51b815260206004820152602760248201527f546f6b656e50726553616c653a20746f6b656e202d3e20746f6b656e7072657460448201527f696d656c6f636b000000000000000000000000000000000000000000000000006064820152608401610577565b600c546040516366168bd760e01b8152336004820152602481018490526001600160a01b03909116906366168bd790604401600060405180830381600087803b15801561163757600080fd5b505af115801561164b573d6000803e3d6000fd5b505050505b6001546001600160a01b03166323b872dd6116736000546001600160a01b031690565b600b5460405160e084901b6001600160e01b03191681526001600160a01b0392831660048201529116602482015260448101849052606401602060405180830381600087803b1580156116c557600080fd5b505af11580156116d9573d6000803e3d6000fd5b505050506040513d601f19601f820116820180604052508101906116fd9190611ebf565b61176f5760405162461bcd60e51b815260206004820152602660248201527f546f6b656e50726553616c653a20746f6b656e202d3e20746f6b656e7072657660448201527f657374696e6700000000000000000000000000000000000000000000000000006064820152608401610577565b600b54600654600554600d5460405163530ff4e560e01b815233600482015260248101939093526044830191909152600160648301526000608483015260a4820184905260c48201526001600160a01b039091169063530ff4e59060e401600060405180830381600087803b1580156117e757600080fd5b505af11580156117fb573d6000803e3d6000fd5b5050505050505050505050565b6000546001600160a01b031633146118505760405162461bcd60e51b8152602060048201819052602482015260008051602061207b8339815191526044820152606401610577565b600455565b6000546001600160a01b0316331461189d5760405162461bcd60e51b8152602060048201819052602482015260008051602061207b8339815191526044820152606401610577565b600791909155600855565b6000546001600160a01b031633146118f05760405162461bcd60e51b8152602060048201819052602482015260008051602061207b8339815191526044820152606401610577565b6001600160a01b03811661196c5760405162461bcd60e51b815260206004820152602660248201527f4f776e61626c653a206e6577206f776e657220697320746865207a65726f206160448201527f64647265737300000000000000000000000000000000000000000000000000006064820152608401610577565b61084081611d19565b6001600e5460ff16600181111561198e5761198e611e68565b146119db5760405162461bcd60e51b815260206004820152601e60248201527f546f6b656e50726553616c653a2053616c65206e6f74207374617274656400006044820152606401610577565b6040516370a0823160e01b81523060048201526000907f00000000000000000000000000000000000000000000000000000000000000006001600160a01b0316906370a082319060240160206040518083038186803b158015611a3d57600080fd5b505afa158015611a51573d6000803e3d6000fd5b505050506040513d601f19601f82011682018060405250810190611a759190611ea6565b6040516323b872dd60e01b8152336004820152306024820152604481018490529091507f00000000000000000000000000000000000000000000000000000000000000006001600160a01b0316906323b872dd90606401602060405180830381600087803b158015611ae657600080fd5b505af1158015611afa573d6000803e3d6000fd5b505050506040513d601f19601f82011682018060405250810190611b1e9190611ebf565b611b6a5760405162461bcd60e51b815260206004820152601a60248201527f546f6b656e50726553616c653a2042555344202d3e20746869730000000000006044820152606401610577565b6040516370a0823160e01b81523060048201526000907f00000000000000000000000000000000000000000000000000000000000000006001600160a01b0316906370a082319060240160206040518083038186803b158015611bcc57600080fd5b505afa158015611be0573d6000803e3d6000fd5b505050506040513d601f19601f82011682018060405250810190611c049190611ea6565b90506000611c128284611d81565b90506009548110158015611c285750600a548111155b611c745760405162461bcd60e51b815260206004820152601f60248201527f546f6b656e50726553616c653a2042555344206f7574206f662072616e6765006044820152606401610577565b600061132882610b95565b6000546001600160a01b03163314611cc75760405162461bcd60e51b8152602060048201819052602482015260008051602061207b8339815191526044820152606401610577565b600555565b6000546001600160a01b03163314611d145760405162461bcd60e51b8152602060048201819052602482015260008051602061207b8339815191526044820152606401610577565b600655565b600080546001600160a01b038381167fffffffffffffffffffffffff0000000000000000000000000000000000000000831681178455604051919092169283917f8be0079c531659141344cd1fd0a4f28419497f9722a3daafe3b4186f6b6457e09190a35050565b6000611d8d8284612063565b90505b92915050565b6000611d8d828461200a565b6000611d8d8284612029565b60008060408385031215611dc157600080fd5b50508035926020909101359150565b600060208284031215611de257600080fd5b5035919050565b600060208284031215611dfb57600080fd5b813560028110610c4757600080fd5b6001600160a01b038116811461084057600080fd5b60008060408385031215611e3257600080fd5b8235611e3d81611e0a565b946020939093013593505050565b600060208284031215611e5d57600080fd5b8135610c4781611e0a565b634e487b7160e01b600052602160045260246000fd5b6020810160028310611ea057634e487b7160e01b600052602160045260246000fd5b91905290565b600060208284031215611eb857600080fd5b5051919050565b600060208284031215611ed157600080fd5b81518015158114610c4757600080fd5b600060208284031215611ef357600080fd5b815160ff81168114610c4757600080fd5b634e487b7160e01b600052601160045260246000fd5b600181815b80851115611f55578160001904821115611f3b57611f3b611f04565b80851615611f4857918102915b93841c9390800290611f1f565b509250929050565b600082611f6c57506001611d90565b81611f7957506000611d90565b8160018114611f8f5760028114611f9957611fb5565b6001915050611d90565b60ff841115611faa57611faa611f04565b50506001821b611d90565b5060208310610133831016604e8410600b8410161715611fd8575081810a611d90565b611fe28383611f1a565b8060001904821115611ff657611ff6611f04565b029392505050565b6000611d8d8383611f5d565b600081600019048311821515161561202457612024611f04565b500290565b60008261204657634e487b7160e01b600052601260045260246000fd5b500490565b6000821982111561205e5761205e611f04565b500190565b60008282101561207557612075611f04565b50039056fe4f776e61626c653a2063616c6c6572206973206e6f7420746865206f776e6572a164736f6c6343000809000a60a06040523480156200001157600080fd5b50604051620027a1380380620027a1833981016040819052620000349162000113565b6200003f33620000c3565b600180556001600160a01b038116620000ad5760405162461bcd60e51b815260206004820152602660248201527f546f6b656e50726556657374696e673a20746f6b656e2061646472657373206960448201526573207a65726f60d01b606482015260840160405180910390fd5b426003556001600160a01b031660805262000145565b600080546001600160a01b038381166001600160a01b0319831681178455604051919092169283917f8be0079c531659141344cd1fd0a4f28419497f9722a3daafe3b4186f6b6457e09190a35050565b6000602082840312156200012657600080fd5b81516001600160a01b03811681146200013e57600080fd5b9392505050565b60805161262b62000176600039600081816101cc0152818161060901528181610f57015261114e015261262b6000f3fe608060405234801561001057600080fd5b50600436106101ae5760003560e01c806390be10cc116100ee578063d1f3c24d11610097578063f2fde38b11610071578063f2fde38b146103ac578063f51321d7146103bf578063f7c469f0146103d2578063f9079b371461043a57600080fd5b8063d1f3c24d1461037d578063d6d1417114610390578063ea1bb3d51461039957600080fd5b8063a0a2b573116100c8578063a0a2b5731461034e578063b75c7dc614610361578063be9a65551461037457600080fd5b806390be10cc146103215780639b69279a146103295780639ef346b41461033b57600080fd5b806355ce38661161015b578063715018a611610135578063715018a6146102935780637e913dc61461029b5780638af104da146102bb5780638da5cb5b1461031057600080fd5b806355ce38661461023a5780635a7bb69a1461025757806366afd8ef1461028057600080fd5b80632e1a7d4d1161018c5780632e1a7d4d1461020a57806348deb4711461021f578063530ff4e51461022757600080fd5b806313083617146101b357806321df0da7146101ca57806329cb924d14610204575b600080fd5b6005545b6040519081526020015b60405180910390f35b7f00000000000000000000000000000000000000000000000000000000000000005b6040516001600160a01b0390911681526020016101c1565b426101b7565b61021d61021836600461209a565b61044d565b005b6006546101b7565b61021d6102353660046120dd565b610637565b6002546102479060ff1681565b60405190151581526020016101c1565b6101b7610265366004612143565b6001600160a01b031660009081526008602052604090205490565b61021d61028e36600461215e565b610be3565b61021d610f8c565b6102ae6102a9366004612143565b610ff2565b6040516101c19190612180565b6101b76102c9366004612211565b6040516bffffffffffffffffffffffff19606084901b1660208201526034810182905260009060540160405160208183030381529060405280519060200120905092915050565b6000546001600160a01b03166101ec565b6101b7611127565b60025461024790610100900460ff1681565b6102ae61034936600461209a565b6111d3565b61021d61035c36600461209a565b6112d7565b61021d61036f36600461209a565b6113d4565b6101b760045481565b61021d61038b36600461232d565b61169d565b6101b760035481565b6101b76103a736600461209a565b6118e2565b61021d6103ba366004612143565b611a84565b6102ae6103cd366004612211565b611b66565b6101b76103e0366004612143565b6001600160a01b0381166000908152600860209081526040808320548151606086901b6bffffffffffffffffffffffff19168185015260348082019290925282518082039092018252605401909152805191012092915050565b6101b761044836600461209a565b611c1b565b600260015414156104a55760405162461bcd60e51b815260206004820152601f60248201527f5265656e7472616e637947756172643a207265656e7472616e742063616c6c0060448201526064015b60405180910390fd5b60026001556000546001600160a01b031633146105045760405162461bcd60e51b815260206004820181905260248201527f4f776e61626c653a2063616c6c6572206973206e6f7420746865206f776e6572604482015260640161049c565b80306001600160a01b03166390be10cc6040518163ffffffff1660e01b815260040160206040518083038186803b15801561053e57600080fd5b505afa158015610552573d6000803e3d6000fd5b505050506040513d601f19601f820116820180604052508101906105769190612495565b10156105ea5760405162461bcd60e51b815260206004820152602e60248201527f546f6b656e50726556657374696e673a206e6f7420656e6f756768207769746860448201527f6472617761626c652066756e6473000000000000000000000000000000000000606482015260840161049c565b6106306105ff6000546001600160a01b031690565b6001600160a01b037f0000000000000000000000000000000000000000000000000000000000000000169083611ca5565b5060018055565b60025460ff16156106b05760405162461bcd60e51b815260206004820152603760248201527f546f6b656e50726556657374696e673a20496e636f6d696e67206465706f736960448201527f74732068617665206265656e2066696e616c697365642e000000000000000000606482015260840161049c565b6000546001600160a01b0316331461070a5760405162461bcd60e51b815260206004820181905260248201527f4f776e61626c653a2063616c6c6572206973206e6f7420746865206f776e6572604482015260640161049c565b81306001600160a01b03166390be10cc6040518163ffffffff1660e01b815260040160206040518083038186803b15801561074457600080fd5b505afa158015610758573d6000803e3d6000fd5b505050506040513d601f19601f8201168201806040525081019061077c9190612495565b10156108165760405162461bcd60e51b815260206004820152604d60248201527f546f6b656e50726556657374696e673a2063616e6e6f7420637265617465207660448201527f657374696e67207363686564756c652062656361757365206e6f74207375666660648201527f696369656e7420746f6b656e7300000000000000000000000000000000000000608482015260a40161049c565b6000851161088c5760405162461bcd60e51b815260206004820152602560248201527f546f6b656e50726556657374696e673a206475726174696f6e206d757374206260448201527f65203e2030000000000000000000000000000000000000000000000000000000606482015260840161049c565b600082116108e85760405162461bcd60e51b815260206004820152602360248201527f546f6b656e50726556657374696e673a20616d6f756e74206d7573742062652060448201526203e20360ec1b606482015260840161049c565b600184101561095f5760405162461bcd60e51b815260206004820152603060248201527f546f6b656e50726556657374696e673a20736c696365506572696f645365636f60448201527f6e6473206d757374206265203e3d203100000000000000000000000000000000606482015260840161049c565b604051630f7c469f60e41b81526001600160a01b0388166004820152600090309063f7c469f09060240160206040518083038186803b1580156109a157600080fd5b505afa1580156109b5573d6000803e3d6000fd5b505050506040513d601f19601f820116820180604052508101906109d99190612495565b9050604051806101400160405280600115158152602001896001600160a01b03168152602001888152602001878152602001868152602001851515815260200184815260200160008152602001600015158152602001838152506007600083815260200190815260200160002060008201518160000160006101000a81548160ff02191690831515021790555060208201518160000160016101000a8154816001600160a01b0302191690836001600160a01b0316021790555060408201518160010155606082015181600201556080820151816003015560a08201518160040160006101000a81548160ff02191690831515021790555060c0820151816005015560e082015181600601556101008201518160070160006101000a81548160ff0219169083151502179055506101208201518160080155905050610b2983600654611d1190919063ffffffff16565b6006556005805460018181019092557f036b6384b5eca791c62761152d0c79bb0604c104a5fb6f4eb0703f3154bb3db0018290556001600160a01b03891660009081526008602052604090205490610b82908290611d11565b6001600160a01b038a166000818152600860209081526040918290209390935580519182529181018490527f054b7a1afdd1e502e9103592f08509d192ea86fccca863e13933ee2e0bcaed2e910160405180910390a1505050505050505050565b60026001541415610c365760405162461bcd60e51b815260206004820152601f60248201527f5265656e7472616e637947756172643a207265656e7472616e742063616c6c00604482015260640161049c565b60026001908155600083815260076020526040902054839160ff909116151514610cbc5760405162461bcd60e51b815260206004820152603160248201527f546f6b656e50726556657374696e673a2056657374696e67207363686564756c6044820152706520646f6573206e6f742065786973747360781b606482015260840161049c565b6000818152600760208190526040909120015460ff1615610d345760405162461bcd60e51b815260206004820152602c60248201527f546f6b656e50726556657374696e673a2056657374696e67207363686564756c60448201526b19481a5cc81c995d9bdad95960a21b606482015260840161049c565b6000838152600760205260408120805491549091336001600160a01b03610100909204821681149291909116148180610d6a5750805b610e025760405162461bcd60e51b815260206004820152604560248201527f546f6b656e50726556657374696e673a206f6e6c792062656e6566696369617260448201527f7920616e64206f776e65722063616e2072656c6561736520766573746564207460648201527f6f6b656e73000000000000000000000000000000000000000000000000000000608482015260a40161049c565b6040805161014081018252845460ff808216151583526001600160a01b0361010092839004166020840152600187015493830193909352600286015460608301526003860154608083015260048601548316151560a0830152600586015460c0830152600686015460e083015260078601549092161515918101919091526008840154610120820152600090610e9790611d1d565b905085811015610f11576040805162461bcd60e51b81526020600482015260248101919091527f546f6b656e50726556657374696e673a2063616e6e6f742072656c656173652060448201527f746f6b656e732c206e6f7420656e6f7567682076657374656420746f6b656e73606482015260840161049c565b6006840154610f209087611d11565b600685810191909155845490546101009091046001600160a01b031690610f479088611e1e565b600655610f7e6001600160a01b037f0000000000000000000000000000000000000000000000000000000000000000168289611ca5565b505060018055505050505050565b6000546001600160a01b03163314610fe65760405162461bcd60e51b815260206004820181905260248201527f4f776e61626c653a2063616c6c6572206973206e6f7420746865206f776e6572604482015260640161049c565b610ff06000611e2a565b565b61105760405180610140016040528060001515815260200160006001600160a01b031681526020016000815260200160008152602001600081526020016000151581526020016000815260200160008152602001600015158152602001600081525090565b6001600160a01b038216600090815260086020526040812054600791906110869085906102c9906001906124c4565b81526020808201929092526040908101600020815161014081018352815460ff808216151583526001600160a01b03610100928390041695830195909552600183015493820193909352600282015460608201526003820154608082015260048201548416151560a0820152600582015460c0820152600682015460e082015260078201549093161515918301919091526008015461012082015292915050565b6006546040516370a0823160e01b81523060048201526000916111ce916001600160a01b037f000000000000000000000000000000000000000000000000000000000000000016906370a082319060240160206040518083038186803b15801561119057600080fd5b505afa1580156111a4573d6000803e3d6000fd5b505050506040513d601f19601f820116820180604052508101906111c89190612495565b90611e1e565b905090565b61123860405180610140016040528060001515815260200160006001600160a01b031681526020016000815260200160008152602001600081526020016000151581526020016000815260200160008152602001600015158152602001600081525090565b50600090815260076020818152604092839020835161014081018552815460ff808216151583526001600160a01b03610100928390041694830194909452600183015495820195909552600282015460608201526003820154608082015260048201548316151560a0820152600582015460c0820152600682015460e08201529281015490911615159282019290925260089091015461012082015290565b6000546001600160a01b031633146113315760405162461bcd60e51b815260206004820181905260248201527f4f776e61626c653a2063616c6c6572206973206e6f7420746865206f776e6572604482015260640161049c565b600254610100900460ff16156113af5760405162461bcd60e51b815260206004820152602860248201527f546f6b656e50726556657374696e673a206c61756e63682074696d657374616d60448201527f7020697320736574000000000000000000000000000000000000000000000000606482015260840161049c565b6002805461ffff19166101011790554260038190556113ce9082611d11565b60045550565b6000546001600160a01b0316331461142e5760405162461bcd60e51b815260206004820181905260248201527f4f776e61626c653a2063616c6c6572206973206e6f7420746865206f776e6572604482015260640161049c565b600081815260076020526040902054819060ff1615156001146114ad5760405162461bcd60e51b815260206004820152603160248201527f546f6b656e50726556657374696e673a2056657374696e67207363686564756c6044820152706520646f6573206e6f742065786973747360781b606482015260840161049c565b6000818152600760208190526040909120015460ff16156115255760405162461bcd60e51b815260206004820152602c60248201527f546f6b656e50726556657374696e673a2056657374696e67207363686564756c60448201526b19481a5cc81c995d9bdad95960a21b606482015260840161049c565b6000828152600760205260409020600481015460ff1615156001146115b25760405162461bcd60e51b815260206004820152602960248201527f546f6b656e50726556657374696e673a2076657374696e67206973206e6f742060448201527f7265766f6361626c650000000000000000000000000000000000000000000000606482015260840161049c565b6040805161014081018252825460ff808216151583526001600160a01b0361010092839004166020840152600185015493830193909352600284015460608301526003840154608083015260048401548316151560a0830152600584015460c0830152600684015460e08301526007840154909216151591810191909152600882015461012082015260009061164790611d1d565b90508015611659576116598482610be3565b600061167683600601548460050154611e1e90919063ffffffff16565b6006549091506116869082611e1e565b6006555050600701805460ff191660011790555050565b60025460ff16156117165760405162461bcd60e51b815260206004820152603760248201527f546f6b656e50726556657374696e673a20496e636f6d696e67206465706f736960448201527f74732068617665206265656e2066696e616c697365642e000000000000000000606482015260840161049c565b6000546001600160a01b031633146117705760405162461bcd60e51b815260206004820181905260248201527f4f776e61626c653a2063616c6c6572206973206e6f7420746865206f776e6572604482015260640161049c565b8a8714801561177e57508685145b801561178957508483145b80156117955750815183145b6117e15760405162461bcd60e51b815260206004820181905260248201527f546f6b656e50726556657374696e673a204c656e677468206d69736d61746368604482015260640161049c565b60005b8b8110156118d3576118c18d8d83818110611801576118016124db565b90506020020160208101906118169190612143565b8c8c84818110611828576118286124db565b905060200201358b8b85818110611841576118416124db565b905060200201358a8a8681811061185a5761185a6124db565b90506020020135898987818110611873576118736124db565b905060200201602081019061188891906124f1565b88878151811061189a5761189a6124db565b60200260200101518888815181106118b4576118b46124db565b6020026020010151610637565b806118cb8161250e565b9150506117e4565b50505050505050505050505050565b600081815260076020526040812054829060ff1615156001146119615760405162461bcd60e51b815260206004820152603160248201527f546f6b656e50726556657374696e673a2056657374696e67207363686564756c6044820152706520646f6573206e6f742065786973747360781b606482015260840161049c565b6000818152600760208190526040909120015460ff16156119d95760405162461bcd60e51b815260206004820152602c60248201527f546f6b656e50726556657374696e673a2056657374696e67207363686564756c60448201526b19481a5cc81c995d9bdad95960a21b606482015260840161049c565b600083815260076020818152604092839020835161014081018552815460ff808216151583526001600160a01b03610100928390041694830194909452600183015495820195909552600282015460608201526003820154608082015260048201548316151560a0820152600582015460c0820152600682015460e0820152928101549091161515928201929092526008820154610120820152611a7c90611d1d565b949350505050565b6000546001600160a01b03163314611ade5760405162461bcd60e51b815260206004820181905260248201527f4f776e61626c653a2063616c6c6572206973206e6f7420746865206f776e6572604482015260640161049c565b6001600160a01b038116611b5a5760405162461bcd60e51b815260206004820152602660248201527f4f776e61626c653a206e6577206f776e657220697320746865207a65726f206160448201527f6464726573730000000000000000000000000000000000000000000000000000606482015260840161049c565b611b6381611e2a565b50565b611bcb60405180610140016040528060001515815260200160006001600160a01b031681526020016000815260200160008152602001600081526020016000151581526020016000815260200160008152602001600015158152602001600081525090565b60408051606085901b6bffffffffffffffffffffffff191660208083019190915260348083018690528351808403909101815260549092019092528051910120611c14906111d3565b9392505050565b6000611c2660055490565b8210611c805760405162461bcd60e51b8152602060048201526024808201527f546f6b656e50726556657374696e673a20696e646578206f7574206f6620626f604482015263756e647360e01b606482015260840161049c565b60058281548110611c9357611c936124db565b90600052602060002001549050919050565b604080516001600160a01b038416602482015260448082018490528251808303909101815260649091019091526020810180517bffffffffffffffffffffffffffffffffffffffffffffffffffffffff1663a9059cbb60e01b179052611d0c908490611e92565b505050565b6000611c148284612529565b600254600090610100900460ff16611d3757506000919050565b60408201516004544291611d4b9190611d11565b811080611d5f575061010083015115156001145b15611d6d5750600092915050565b6060830151600454611d7e91611d11565b8110611d975760e083015160c0840151611c1491611e1e565b6000611dae60045483611e1e90919063ffffffff16565b60808501519091506000611dc28383611f77565b90506000611dd08284611f83565b90506000611df98860600151611df3848b60c00151611f8390919063ffffffff16565b90611f77565b9050611e128860e0015182611e1e90919063ffffffff16565b98975050505050505050565b6000611c1482846124c4565b600080546001600160a01b038381167fffffffffffffffffffffffff0000000000000000000000000000000000000000831681178455604051919092169283917f8be0079c531659141344cd1fd0a4f28419497f9722a3daafe3b4186f6b6457e09190a35050565b6000611ee7826040518060400160405280602081526020017f5361666545524332303a206c6f772d6c6576656c2063616c6c206661696c6564815250856001600160a01b0316611f8f9092919063ffffffff16565b805190915015611d0c5780806020019051810190611f059190612541565b611d0c5760405162461bcd60e51b815260206004820152602a60248201527f5361666545524332303a204552433230206f7065726174696f6e20646964206e60448201527f6f74207375636365656400000000000000000000000000000000000000000000606482015260840161049c565b6000611c14828461255e565b6000611c148284612580565b6060611a7c848460008585843b611fe85760405162461bcd60e51b815260206004820152601d60248201527f416464726573733a2063616c6c20746f206e6f6e2d636f6e7472616374000000604482015260640161049c565b600080866001600160a01b0316858760405161200491906125cf565b60006040518083038185875af1925050503d8060008114612041576040519150601f19603f3d011682016040523d82523d6000602084013e612046565b606091505b5091509150612056828286612061565b979650505050505050565b60608315612070575081611c14565b8251156120805782518084602001fd5b8160405162461bcd60e51b815260040161049c91906125eb565b6000602082840312156120ac57600080fd5b5035919050565b80356001600160a01b03811681146120ca57600080fd5b919050565b8015158114611b6357600080fd5b600080600080600080600060e0888a0312156120f857600080fd5b612101886120b3565b96506020880135955060408801359450606088013593506080880135612126816120cf565b9699959850939692959460a0840135945060c09093013592915050565b60006020828403121561215557600080fd5b611c14826120b3565b6000806040838503121561217157600080fd5b50508035926020909101359150565b815115158152610140810160208301516121a560208401826001600160a01b03169052565b5060408301516040830152606083015160608301526080830151608083015260a08301516121d760a084018215159052565b5060c083015160c083015260e083015160e0830152610100808401516122008285018215159052565b505061012092830151919092015290565b6000806040838503121561222457600080fd5b61222d836120b3565b946020939093013593505050565b60008083601f84011261224d57600080fd5b50813567ffffffffffffffff81111561226557600080fd5b6020830191508360208260051b850101111561228057600080fd5b9250929050565b634e487b7160e01b600052604160045260246000fd5b600082601f8301126122ae57600080fd5b8135602067ffffffffffffffff808311156122cb576122cb612287565b8260051b604051601f19603f830116810181811084821117156122f0576122f0612287565b60405293845285810183019383810192508785111561230e57600080fd5b83870191505b8482101561205657813583529183019190830190612314565b60008060008060008060008060008060008060e08d8f03121561234f57600080fd5b67ffffffffffffffff8d35111561236557600080fd5b6123728e8e358f0161223b565b909c509a5067ffffffffffffffff60208e0135111561239057600080fd5b6123a08e60208f01358f0161223b565b909a50985067ffffffffffffffff60408e013511156123be57600080fd5b6123ce8e60408f01358f0161223b565b909850965067ffffffffffffffff60608e013511156123ec57600080fd5b6123fc8e60608f01358f0161223b565b909650945067ffffffffffffffff60808e0135111561241a57600080fd5b61242a8e60808f01358f0161223b565b909450925067ffffffffffffffff60a08e0135111561244857600080fd5b6124588e60a08f01358f0161229d565b915067ffffffffffffffff60c08e0135111561247357600080fd5b6124838e60c08f01358f0161229d565b90509295989b509295989b509295989b565b6000602082840312156124a757600080fd5b5051919050565b634e487b7160e01b600052601160045260246000fd5b6000828210156124d6576124d66124ae565b500390565b634e487b7160e01b600052603260045260246000fd5b60006020828403121561250357600080fd5b8135611c14816120cf565b6000600019821415612522576125226124ae565b5060010190565b6000821982111561253c5761253c6124ae565b500190565b60006020828403121561255357600080fd5b8151611c14816120cf565b60008261257b57634e487b7160e01b600052601260045260246000fd5b500490565b600081600019048311821515161561259a5761259a6124ae565b500290565b60005b838110156125ba5781810151838201526020016125a2565b838111156125c9576000848401525b50505050565b600082516125e181846020870161259f565b9190910192915050565b602081526000825180602084015261260a81604085016020870161259f565b601f01601f1916919091016040019291505056fea164736f6c6343000809000a60a060405234801561001057600080fd5b506040516118b93803806118b983398101604081905261002f91610132565b610038336100e2565b6001600160a01b0381166100c25760405162461bcd60e51b815260206004820152604160248201527f546f6b656e50726554696d656c6f636b3a205f65726332305f636f6e7472616360448201527f745f6164647265737320616464726573732063616e206e6f74206265207a65726064820152606f60f81b608482015260a40160405180910390fd5b6001600160a01b03166080526000805462ffffff60a01b19169055610162565b600080546001600160a01b038381166001600160a01b0319831681178455604051919092169283917f8be0079c531659141344cd1fd0a4f28419497f9722a3daafe3b4186f6b6457e09190a35050565b60006020828403121561014457600080fd5b81516001600160a01b038116811461015b57600080fd5b9392505050565b60805161172e61018b6000396000818161011c015281816104e00152610888015261172e6000f3fe608060405234801561001057600080fd5b50600436106101005760003560e01c8063715018a611610097578063a0a2b57311610066578063a0a2b5731461022d578063d148429814610240578063d6d1417114610253578063f2fde38b1461025c57600080fd5b8063715018a6146101e05780638da5cb5b146101e85780639aa2e39e146101f95780639b69279a1461021957600080fd5b80633e79d1e1116100d35780633e79d1e11461018d5780633e9949421461019657806355ce3866146101a957806366168bd7146101cd57600080fd5b8063199b6bba1461010557806321df0da71461011a57806327e235e31461015957806329cb924d14610187575b600080fd5b6101186101133660046114af565b61026f565b005b7f00000000000000000000000000000000000000000000000000000000000000005b6040516001600160a01b0390911681526020015b60405180910390f35b6101796101673660046114f0565b60046020526000908152604090205481565b604051908152602001610150565b42610179565b61017960025481565b6101186101a436600461150d565b610743565b6000546101bd90600160a81b900460ff1681565b6040519015158152602001610150565b6101186101db36600461150d565b610979565b610118610b4c565b6000546001600160a01b031661013c565b6101796102073660046114f0565b60036020526000908152604090205481565b6000546101bd90600160b01b900460ff1681565b61011861023b366004611539565b610bb2565b61011861024e36600461159e565b610ce3565b61017960015481565b61011861026a3660046114f0565b611051565b600054600160b01b900460ff1615156001146103035760405162461bcd60e51b815260206004820152604260248201527f546f6b656e50726554696d656c6f636b3a20506c65617365207365742074686560448201527f2074696d65207374616d702066697273742c207468656e207472792061676169606482015261371760f11b608482015260a4015b60405180910390fd5b600054600160a01b900460ff161561035d5760405162461bcd60e51b815260206004820181905260248201527f546f6b656e50726554696d656c6f636b3a204e6f2072652d656e7472616e637960448201526064016102fa565b6000805460ff60a01b1916600160a01b1790556001600160a01b0382166103d25760405162461bcd60e51b815260206004820152602360248201527f45524332303a207472616e7366657220746f20746865207a65726f206164647260448201526265737360e81b60648201526084016102fa565b6001600160a01b0382166000908152600460205260409020548111156104605760405162461bcd60e51b815260206004820152602d60248201527f496e73756666696369656e7420746f6b656e2062616c616e63652c207472792060448201527f6c657373657220616d6f756e740000000000000000000000000000000000000060648201526084016102fa565b336001600160a01b038316146104de5760405162461bcd60e51b815260206004820152602f60248201527f4f6e6c792074686520746f6b656e20726563697069656e742063616e2070657260448201527f666f726d2074686520756e6c6f636b000000000000000000000000000000000060648201526084016102fa565b7f00000000000000000000000000000000000000000000000000000000000000006001600160a01b0316836001600160a01b0316146105d15760405162461bcd60e51b815260206004820152607660248201527f546f6b656e50726554696d656c6f636b3a20546f6b656e20706172616d65746560448201527f72206d757374206265207468652073616d65206173207468652065726332302060648201527f636f6e747261637420616464726573732077686963682077617320706173736560848201527f6420696e746f2074686520636f6e7374727563746f720000000000000000000060a482015260c4016102fa565b600254421061069d576001600160a01b0382166000908152600360205260409020546105fd9082611133565b6001600160a01b03831660009081526003602090815260408083209390935560049052205461062c9082611146565b6001600160a01b038084166000908152600460205260409020919091556106569084168383611152565b604080516001600160a01b0384168152602081018390527fe7b379c6c1fa169e9079c25e9143b127637eef8ec8c9d5c06ddb4ab3e1195888910160405180910390a1610731565b60405162461bcd60e51b815260206004820152605160248201527f546f6b656e50726554696d656c6f636b3a20546f6b656e7320617265206f6e6c60448201527f7920617661696c61626c6520616674657220636f72726563742074696d65207060648201527f6572696f642068617320656c6170736564000000000000000000000000000000608482015260a4016102fa565b50506000805460ff60a01b1916905550565b6000546001600160a01b0316331461079d5760405162461bcd60e51b815260206004820181905260248201527f4f776e61626c653a2063616c6c6572206973206e6f7420746865206f776e657260448201526064016102fa565b600054600160a01b900460ff16156107f75760405162461bcd60e51b815260206004820181905260248201527f546f6b656e50726554696d656c6f636b3a204e6f2072652d656e7472616e637960448201526064016102fa565b6000805460ff60a01b1916600160a01b1790556001600160a01b0382166108865760405162461bcd60e51b815260206004820152602f60248201527f546f6b656e50726554696d656c6f636b3a20546f6b656e20616464726573732060448201527f63616e206e6f74206265207a65726f000000000000000000000000000000000060648201526084016102fa565b7f00000000000000000000000000000000000000000000000000000000000000006001600160a01b0316826001600160a01b031614156109545760405162461bcd60e51b815260206004820152605e60248201527f546f6b656e50726554696d656c6f636b3a20546f6b656e20616464726573732060448201527f63616e206e6f742062652045524332302061646472657373207768696368207760648201527f61732070617373656420696e746f2074686520636f6e7374727563746f720000608482015260a4016102fa565b6109686001600160a01b0383163383611152565b50506000805460ff60a01b19169055565b6000546001600160a01b031633146109d35760405162461bcd60e51b815260206004820181905260248201527f4f776e61626c653a2063616c6c6572206973206e6f7420746865206f776e657260448201526064016102fa565b600054600160a81b900460ff1615610a535760405162461bcd60e51b815260206004820152603860248201527f546f6b656e50726554696d656c6f636b3a20496e636f6d696e67206465706f7360448201527f6974732068617665206265656e2066696e616c697365642e000000000000000060648201526084016102fa565b6001600160a01b038216610acf5760405162461bcd60e51b815260206004820152603560248201527f546f6b656e50726554696d656c6f636b3a2045524332303a207472616e73666560448201527f7220746f20746865207a65726f2061646472657373000000000000000000000060648201526084016102fa565b6001600160a01b038216600090815260046020526040902054610af29082611133565b6001600160a01b0383166000818152600460209081526040918290209390935580519182529181018390527fcad22dd3bcdad18c651a372fe3e7e893af3d354482d9ac6c310c8342eb7af574910160405180910390a15050565b6000546001600160a01b03163314610ba65760405162461bcd60e51b815260206004820181905260248201527f4f776e61626c653a2063616c6c6572206973206e6f7420746865206f776e657260448201526064016102fa565b610bb060006111be565b565b6000546001600160a01b03163314610c0c5760405162461bcd60e51b815260206004820181905260248201527f4f776e61626c653a2063616c6c6572206973206e6f7420746865206f776e657260448201526064016102fa565b600054600160b01b900460ff1615610c8c5760405162461bcd60e51b815260206004820152603660248201527f546f6b656e50726554696d656c6f636b3a205468652074696d65207374616d7060448201527f2068617320616c7265616479206265656e207365742e0000000000000000000060648201526084016102fa565b600080547fffffffffffffffffff0000ffffffffffffffffffffffffffffffffffffffffff16760101000000000000000000000000000000000000000000179055426001819055610cdd9082611133565b60025550565b6000546001600160a01b03163314610d3d5760405162461bcd60e51b815260206004820181905260248201527f4f776e61626c653a2063616c6c6572206973206e6f7420746865206f776e657260448201526064016102fa565b600054600160a81b900460ff1615610dbd5760405162461bcd60e51b815260206004820152603860248201527f546f6b656e50726554696d656c6f636b3a20496e636f6d696e67206465706f7360448201527f6974732068617665206265656e2066696e616c697365642e000000000000000060648201526084016102fa565b828114610e585760405162461bcd60e51b815260206004820152605360248201527f546f6b656e50726554696d656c6f636b3a2054686520726563697069656e747360448201527f20616e6420616d6f756e747320617272617973206d757374206265207468652060648201527f73616d652073697a6520696e206c656e67746800000000000000000000000000608482015260a4016102fa565b60005b8381101561104a576000858583818110610e7757610e7761160a565b9050602002016020810190610e8c91906114f0565b6001600160a01b03161415610f095760405162461bcd60e51b815260206004820152603560248201527f546f6b656e50726554696d656c6f636b3a2045524332303a207472616e73666560448201527f7220746f20746865207a65726f2061646472657373000000000000000000000060648201526084016102fa565b610f70838383818110610f1e57610f1e61160a565b9050602002013560046000888886818110610f3b57610f3b61160a565b9050602002016020810190610f5091906114f0565b6001600160a01b0316815260208101919091526040016000205490611133565b60046000878785818110610f8657610f8661160a565b9050602002016020810190610f9b91906114f0565b6001600160a01b031681526020810191909152604001600020557fcad22dd3bcdad18c651a372fe3e7e893af3d354482d9ac6c310c8342eb7af574858583818110610fe857610fe861160a565b9050602002016020810190610ffd91906114f0565b84848481811061100f5761100f61160a565b604080516001600160a01b0390951685526020918202939093013590840152500160405180910390a18061104281611636565b915050610e5b565b5050505050565b6000546001600160a01b031633146110ab5760405162461bcd60e51b815260206004820181905260248201527f4f776e61626c653a2063616c6c6572206973206e6f7420746865206f776e657260448201526064016102fa565b6001600160a01b0381166111275760405162461bcd60e51b815260206004820152602660248201527f4f776e61626c653a206e6577206f776e657220697320746865207a65726f206160448201527f646472657373000000000000000000000000000000000000000000000000000060648201526084016102fa565b611130816111be565b50565b600061113f8284611651565b9392505050565b600061113f8284611669565b604080516001600160a01b038416602482015260448082018490528251808303909101815260649091019091526020810180517bffffffffffffffffffffffffffffffffffffffffffffffffffffffff1663a9059cbb60e01b1790526111b9908490611226565b505050565b600080546001600160a01b038381167fffffffffffffffffffffffff0000000000000000000000000000000000000000831681178455604051919092169283917f8be0079c531659141344cd1fd0a4f28419497f9722a3daafe3b4186f6b6457e09190a35050565b600061127b826040518060400160405280602081526020017f5361666545524332303a206c6f772d6c6576656c2063616c6c206661696c6564815250856001600160a01b031661130b9092919063ffffffff16565b8051909150156111b957808060200190518101906112999190611680565b6111b95760405162461bcd60e51b815260206004820152602a60248201527f5361666545524332303a204552433230206f7065726174696f6e20646964206e60448201527f6f7420737563636565640000000000000000000000000000000000000000000060648201526084016102fa565b606061131a8484600085611322565b949350505050565b60608247101561139a5760405162461bcd60e51b815260206004820152602660248201527f416464726573733a20696e73756666696369656e742062616c616e636520666f60448201527f722063616c6c000000000000000000000000000000000000000000000000000060648201526084016102fa565b843b6113e85760405162461bcd60e51b815260206004820152601d60248201527f416464726573733a2063616c6c20746f206e6f6e2d636f6e747261637400000060448201526064016102fa565b600080866001600160a01b0316858760405161140491906116d2565b60006040518083038185875af1925050503d8060008114611441576040519150601f19603f3d011682016040523d82523d6000602084013e611446565b606091505b5091509150611456828286611461565b979650505050505050565b6060831561147057508161113f565b8251156114805782518084602001fd5b8160405162461bcd60e51b81526004016102fa91906116ee565b6001600160a01b038116811461113057600080fd5b6000806000606084860312156114c457600080fd5b83356114cf8161149a565b925060208401356114df8161149a565b929592945050506040919091013590565b60006020828403121561150257600080fd5b813561113f8161149a565b6000806040838503121561152057600080fd5b823561152b8161149a565b946020939093013593505050565b60006020828403121561154b57600080fd5b5035919050565b60008083601f84011261156457600080fd5b50813567ffffffffffffffff81111561157c57600080fd5b6020830191508360208260051b850101111561159757600080fd5b9250929050565b600080600080604085870312156115b457600080fd5b843567ffffffffffffffff808211156115cc57600080fd5b6115d888838901611552565b909650945060208701359150808211156115f157600080fd5b506115fe87828801611552565b95989497509550505050565b634e487b7160e01b600052603260045260246000fd5b634e487b7160e01b600052601160045260246000fd5b600060001982141561164a5761164a611620565b5060010190565b6000821982111561166457611664611620565b500190565b60008282101561167b5761167b611620565b500390565b60006020828403121561169257600080fd5b8151801515811461113f57600080fd5b60005b838110156116bd5781810151838201526020016116a5565b838111156116cc576000848401525b50505050565b600082516116e48184602087016116a2565b9190910192915050565b602081526000825180602084015261170d8160408501602087016116a2565b601f01601f1916919091016040019291505056fea164736f6c6343000809000a"
}