{
  "address": "0x09557807c515d758ecc5e1d1ace7d09aa5842f51",
  "abi": [
    {
      "inputs": [
        {
          "internalType": "address",
          "name": "token_",
          "type": "address"
        }
      ],
      "stateMutability": "nonpayable",
      "type": "constructor"
    },
    {
      "anonymous": false,
      "inputs": [
        {
          "indexed": true,
          "internalType": "address",
          "name": "previousOwner",
          "type": "address"
        },
        {
          "indexed": true,
          "internalType": "address",
          "name": "newOwner",
          "type": "address"
        }
      ],
      "name": "OwnershipTransferred",
      "type": "event"
    },
    {
      "anonymous": false,
      "inputs": [
        {
          "indexed": false,
          "internalType": "uint256",
          "name": "amount",
          "type": "uint256"
        }
      ],
      "name": "Released",
      "type": "event"
    },
    {
      "anonymous": false,
      "inputs": [],
      "name": "Revoked",
      "type": "event"
    },
    {
      "stateMutability": "payable",
      "type": "fallback"
    },
    {
      "inputs": [
        {
          "internalType": "address",
          "name": "holder",
          "type": "address"
        }
      ],
      "name": "computeNextVestingScheduleIdForHolder",
      "outputs": [
        {
          "internalType": "bytes32",
          "name": "",
          "type": "bytes32"
        }
      ],
      "stateMutability": "view",
      "type": "function"
    },
    {
      "inputs": [
        {
          "internalType": "bytes32",
          "name": "vestingScheduleId",
          "type": "bytes32"
        }
      ],
      "name": "computeReleasableAmount",
      "outputs": [
        {
          "internalType": "uint256",
          "name": "",
          "type": "uint256"
        }
      ],
      "stateMutability": "view",
      "type": "function"
    },
    {
      "inputs": [
        {
          "internalType": "address",
          "name": "holder",
          "type": "address"
        },
        {
          "internalType": "uint256",
          "name": "index",
          "type": "uint256"
        }
      ],
      "name": "computeVestingScheduleIdForAddressAndIndex",
      "outputs": [
        {
          "internalType": "bytes32",
          "name": "",
          "type": "bytes32"
        }
      ],
      "stateMutability": "pure",
      "type": "function"
    },
    {
      "inputs": [
        {
          "internalType": "address",
          "name": "_beneficiary",
          "type": "address"
        },
        {
          "internalType": "uint256",
          "name": "_start",
          "type": "uint256"
        },
        {
          "internalType": "uint256",
          "name": "_cliff",
          "type": "uint256"
        },
        {
          "internalType": "uint256",
          "name": "_duration",
          "type": "uint256"
        },
        {
          "internalType": "uint256",
          "name": "_slicePeriodSeconds",
          "type": "uint256"
        },
        {
          "internalType": "bool",
          "name": "_revocable",
          "type": "bool"
        },
        {
          "internalType": "uint256",
          "name": "_amount",
          "type": "uint256"
        }
      ],
      "name": "createVestingSchedule",
      "outputs": [],
      "stateMutability": "nonpayable",
      "type": "function"
    },
    {
      "inputs": [
        {
          "internalType": "address",
          "name": "holder",
          "type": "address"
        }
      ],
      "name": "getLastVestingScheduleForHolder",
      "outputs": [
        {
          "components": [
            {
              "internalType": "bool",
              "name": "initialized",
              "type": "bool"
            },
            {
              "internalType": "address",
              "name": "beneficiary",
              "type": "address"
            },
            {
              "internalType": "uint256",
              "name": "cliff",
              "type": "uint256"
            },
            {
              "internalType": "uint256",
              "name": "start",
              "type": "uint256"
            },
            {
              "internalType": "uint256",
              "name": "duration",
              "type": "uint256"
            },
            {
              "internalType": "uint256",
              "name": "slicePeriodSeconds",
              "type": "uint256"
            },
            {
              "internalType": "bool",
              "name": "revocable",
              "type": "bool"
            },
            {
              "internalType": "uint256",
              "name": "amountTotal",
              "type": "uint256"
            },
            {
              "internalType": "uint256",
              "name": "released",
              "type": "uint256"
            },
            {
              "internalType": "bool",
              "name": "revoked",
              "type": "bool"
            }
          ],
          "internalType": "struct PrivateSaleContract.VestingSchedule",
          "name": "",
          "type": "tuple"
        }
      ],
      "stateMutability": "view",
      "type": "function"
    },
    {
      "inputs": [],
      "name": "getToken",
      "outputs": [
        {
          "internalType": "address",
          "name": "",
          "type": "address"
        }
      ],
      "stateMutability": "view",
      "type": "function"
    },
    {
      "inputs": [
        {
          "internalType": "uint256",
          "name": "index",
          "type": "uint256"
        }
      ],
      "name": "getVestingIdAtIndex",
      "outputs": [
        {
          "internalType": "bytes32",
          "name": "",
          "type": "bytes32"
        }
      ],
      "stateMutability": "view",
      "type": "function"
    },
    {
      "inputs": [
        {
          "internalType": "bytes32",
          "name": "vestingScheduleId",
          "type": "bytes32"
        }
      ],
      "name": "getVestingSchedule",
      "outputs": [
        {
          "components": [
            {
              "internalType": "bool",
              "name": "initialized",
              "type": "bool"
            },
            {
              "internalType": "address",
              "name": "beneficiary",
              "type": "address"
            },
            {
              "internalType": "uint256",
              "name": "cliff",
              "type": "uint256"
            },
            {
              "internalType": "uint256",
              "name": "start",
              "type": "uint256"
            },
            {
              "internalType": "uint256",
              "name": "duration",
              "type": "uint256"
            },
            {
              "internalType": "uint256",
              "name": "slicePeriodSeconds",
              "type": "uint256"
            },
            {
              "internalType": "bool",
              "name": "revocable",
              "type": "bool"
            },
            {
              "internalType": "uint256",
              "name": "amountTotal",
              "type": "uint256"
            },
            {
              "internalType": "uint256",
              "name": "released",
              "type": "uint256"
            },
            {
              "internalType": "bool",
              "name": "revoked",
              "type": "bool"
            }
          ],
          "internalType": "struct PrivateSaleContract.VestingSchedule",
          "name": "",
          "type": "tuple"
        }
      ],
      "stateMutability": "view",
      "type": "function"
    },
    {
      "inputs": [
        {
          "internalType": "address",
          "name": "holder",
          "type": "address"
        },
        {
          "internalType": "uint256",
          "name": "index",
          "type": "uint256"
        }
      ],
      "name": "getVestingScheduleByAddressAndIndex",
      "outputs": [
        {
          "components": [
            {
              "internalType": "bool",
              "name": "initialized",
              "type": "bool"
            },
            {
              "internalType": "address",
              "name": "beneficiary",
              "type": "address"
            },
            {
              "internalType": "uint256",
              "name": "cliff",
              "type": "uint256"
            },
            {
              "internalType": "uint256",
              "name": "start",
              "type": "uint256"
            },
            {
              "internalType": "uint256",
              "name": "duration",
              "type": "uint256"
            },
            {
              "internalType": "uint256",
              "name": "slicePeriodSeconds",
              "type": "uint256"
            },
            {
              "internalType": "bool",
              "name": "revocable",
              "type": "bool"
            },
            {
              "internalType": "uint256",
              "name": "amountTotal",
              "type": "uint256"
            },
            {
              "internalType": "uint256",
              "name": "released",
              "type": "uint256"
            },
            {
              "internalType": "bool",
              "name": "revoked",
              "type": "bool"
            }
          ],
          "internalType": "struct PrivateSaleContract.VestingSchedule",
          "name": "",
          "type": "tuple"
        }
      ],
      "stateMutability": "view",
      "type": "function"
    },
    {
      "inputs": [],
      "name": "getVestingSchedulesCount",
      "outputs": [
        {
          "internalType": "uint256",
          "name": "",
          "type": "uint256"
        }
      ],
      "stateMutability": "view",
      "type": "function"
    },
    {
      "inputs": [
        {
          "internalType": "address",
          "name": "_beneficiary",
          "type": "address"
        }
      ],
      "name": "getVestingSchedulesCountByBeneficiary",
      "outputs": [
        {
          "internalType": "uint256",
          "name": "",
          "type": "uint256"
        }
      ],
      "stateMutability": "view",
      "type": "function"
    },
    {
      "inputs": [],
      "name": "getVestingSchedulesTotalAmount",
      "outputs": [
        {
          "internalType": "uint256",
          "name": "",
          "type": "uint256"
        }
      ],
      "stateMutability": "view",
      "type": "function"
    },
    {
      "inputs": [],
      "name": "getWithdrawableAmount",
      "outputs": [
        {
          "internalType": "uint256",
          "name": "",
          "type": "uint256"
        }
      ],
      "stateMutability": "view",
      "type": "function"
    },
    {
      "inputs": [],
      "name": "owner",
      "outputs": [
        {
          "internalType": "address",
          "name": "",
          "type": "address"
        }
      ],
      "stateMutability": "view",
      "type": "function"
    },
    {
      "inputs": [
        {
          "internalType": "bytes32",
          "name": "vestingScheduleId",
          "type": "bytes32"
        },
        {
          "internalType": "uint256",
          "name": "amount",
          "type": "uint256"
        }
      ],
      "name": "release",
      "outputs": [],
      "stateMutability": "nonpayable",
      "type": "function"
    },
    {
      "inputs": [],
      "name": "renounceOwnership",
      "outputs": [],
      "stateMutability": "nonpayable",
      "type": "function"
    },
    {
      "inputs": [
        {
          "internalType": "bytes32",
          "name": "vestingScheduleId",
          "type": "bytes32"
        }
      ],
      "name": "revoke",
      "outputs": [],
      "stateMutability": "nonpayable",
      "type": "function"
    },
    {
      "inputs": [
        {
          "internalType": "address",
          "name": "newOwner",
          "type": "address"
        }
      ],
      "name": "transferOwnership",
      "outputs": [],
      "stateMutability": "nonpayable",
      "type": "function"
    },
    {
      "inputs": [
        {
          "internalType": "uint256",
          "name": "amount",
          "type": "uint256"
        }
      ],
      "name": "withdraw",
      "outputs": [],
      "stateMutability": "nonpayable",
      "type": "function"
    },
    {
      "stateMutability": "payable",
      "type": "receive"
    }
  ],
  "transactionHash": "0x738800bcc15cbfc774c7afee647ec85ea8d7a5c24bf20a2868d414c3e2da0504",
  "args": [
    "0x8bD3317Ac7a8cF2441D4D2121CCed8Cc9D5b8881"
  ],
  "numDeployments": 1,
  "solcInputHash": "861a4a1250196b71db176ec44dcc970c",
  "bytecode": "0x60a06040523480156200001157600080fd5b5060405162001e4e38038062001e4e8339810160408190526200003491620000b9565b6200003f3362000069565b600180556001600160a01b0381166200005757600080fd5b6001600160a01b0316608052620000eb565b600080546001600160a01b038381166001600160a01b0319831681178455604051919092169283917f8be0079c531659141344cd1fd0a4f28419497f9722a3daafe3b4186f6b6457e09190a35050565b600060208284031215620000cc57600080fd5b81516001600160a01b0381168114620000e457600080fd5b9392505050565b608051611d326200011c6000396000818161018f01528181610afb01528181610dc40152610fbf0152611d326000f3fe6080604052600436106101335760003560e01c80638af104da116100b4578063ea1bb3d51161006e578063f51321d711610056578063f51321d7146103a9578063f7c469f0146103c9578063f9079b371461043e57005b8063ea1bb3d514610369578063f2fde38b1461038957005b806390be10cc1161009c57806390be10cc146103145780639ef346b414610329578063b75c7dc61461034957005b80638af104da146102945780638da5cb5b146102f657005b806348deb4711161010557806366afd8ef116100ed57806366afd8ef14610232578063715018a6146102525780637e913dc61461026757005b806348deb471146101e75780635a7bb69a146101fc57005b8063130836171461013c57806317e289e91461016057806321df0da7146101805780632e1a7d4d146101c757005b3661013a57005b005b34801561014857600080fd5b506002545b6040519081526020015b60405180910390f35b34801561016c57600080fd5b5061013a61017b366004611a62565b61045e565b34801561018c57600080fd5b507f00000000000000000000000000000000000000000000000000000000000000005b6040516001600160a01b039091168152602001610157565b3480156101d357600080fd5b5061013a6101e2366004611ac9565b610944565b3480156101f357600080fd5b5060045461014d565b34801561020857600080fd5b5061014d610217366004611ae2565b6001600160a01b031660009081526005602052604090205490565b34801561023e57600080fd5b5061013a61024d366004611afd565b610b29565b34801561025e57600080fd5b5061013a610df9565b34801561027357600080fd5b50610287610282366004611ae2565b610e5f565b6040516101579190611b1f565b3480156102a057600080fd5b5061014d6102af366004611baa565b6040516bffffffffffffffffffffffff19606084901b1660208201526034810182905260009060540160405160208183030381529060405280519060200120905092915050565b34801561030257600080fd5b506000546001600160a01b03166101af565b34801561032057600080fd5b5061014d610f94565b34801561033557600080fd5b50610287610344366004611ac9565b611044565b34801561035557600080fd5b5061013a610364366004611ac9565b611148565b34801561037557600080fd5b5061014d610384366004611ac9565b611358565b34801561039557600080fd5b5061013a6103a4366004611ae2565b611442565b3480156103b557600080fd5b506102876103c4366004611baa565b611524565b3480156103d557600080fd5b5061014d6103e4366004611ae2565b6001600160a01b0381166000908152600560209081526040808320548151606086901b6bffffffffffffffffffffffff19168185015260348082019290925282518082039092018252605401909152805191012092915050565b34801561044a57600080fd5b5061014d610459366004611ac9565b6115d9565b6000546001600160a01b031633146104bd5760405162461bcd60e51b815260206004820181905260248201527f4f776e61626c653a2063616c6c6572206973206e6f7420746865206f776e657260448201526064015b60405180910390fd5b80306001600160a01b03166390be10cc6040518163ffffffff1660e01b815260040160206040518083038186803b1580156104f757600080fd5b505afa15801561050b573d6000803e3d6000fd5b505050506040513d601f19601f8201168201806040525081019061052f9190611bd4565b10156105c95760405162461bcd60e51b815260206004820152604a60248201527f546f6b656e56657374696e673a2063616e6e6f7420637265617465207665737460448201527f696e67207363686564756c652062656361757365206e6f74207375666669636960648201527f656e7420746f6b656e7300000000000000000000000000000000000000000000608482015260a4016104b4565b600084116106245760405162461bcd60e51b815260206004820152602260248201527f546f6b656e56657374696e673a206475726174696f6e206d757374206265203e604482015261020360f41b60648201526084016104b4565b600081116106745760405162461bcd60e51b815260206004820181905260248201527f546f6b656e56657374696e673a20616d6f756e74206d757374206265203e203060448201526064016104b4565b60018310156106eb5760405162461bcd60e51b815260206004820152602d60248201527f546f6b656e56657374696e673a20736c696365506572696f645365636f6e647360448201527f206d757374206265203e3d20310000000000000000000000000000000000000060648201526084016104b4565b604051630f7c469f60e41b81526001600160a01b0388166004820152600090309063f7c469f09060240160206040518083038186803b15801561072d57600080fd5b505afa158015610741573d6000803e3d6000fd5b505050506040513d601f19601f820116820180604052508101906107659190611bd4565b905060006107738888611661565b90506040518061014001604052806001151581526020018a6001600160a01b03168152602001828152602001898152602001878152602001868152602001851515815260200184815260200160008152602001600015158152506003600084815260200190815260200160002060008201518160000160006101000a81548160ff02191690831515021790555060208201518160000160016101000a8154816001600160a01b0302191690836001600160a01b0316021790555060408201518160010155606082015181600201556080820151816003015560a0820151816004015560c08201518160050160006101000a81548160ff02191690831515021790555060e0820151816006015561010082015181600701556101208201518160080160006101000a81548160ff0219169083151502179055509050506108c38360045461166190919063ffffffff16565b6004556002805460018181019092557f405787fa12a823e0f2b7631cc41b3ba8828b3321ca811111fa75cd3aa3bb5ace018390556001600160a01b038a166000908152600560205260409020549061091c908290611661565b6001600160a01b03909a16600090815260056020526040902099909955505050505050505050565b600260015414156109975760405162461bcd60e51b815260206004820152601f60248201527f5265656e7472616e637947756172643a207265656e7472616e742063616c6c0060448201526064016104b4565b60026001556000546001600160a01b031633146109f65760405162461bcd60e51b815260206004820181905260248201527f4f776e61626c653a2063616c6c6572206973206e6f7420746865206f776e657260448201526064016104b4565b80306001600160a01b03166390be10cc6040518163ffffffff1660e01b815260040160206040518083038186803b158015610a3057600080fd5b505afa158015610a44573d6000803e3d6000fd5b505050506040513d601f19601f82011682018060405250810190610a689190611bd4565b1015610adc5760405162461bcd60e51b815260206004820152602b60248201527f546f6b656e56657374696e673a206e6f7420656e6f756768207769746864726160448201527f7761626c652066756e647300000000000000000000000000000000000000000060648201526084016104b4565b610b22610af16000546001600160a01b031690565b6001600160a01b037f000000000000000000000000000000000000000000000000000000000000000016908361166d565b5060018055565b60026001541415610b7c5760405162461bcd60e51b815260206004820152601f60248201527f5265656e7472616e637947756172643a207265656e7472616e742063616c6c0060448201526064016104b4565b60026001908155600083815260036020526040902054839160ff909116151514610ba557600080fd5b60008181526003602052604090206008015460ff1615610bc457600080fd5b6000838152600360205260408120805491549091336001600160a01b03610100909204821681149291909116148180610bfa5750805b610c775760405162461bcd60e51b815260206004820152604260248201527f546f6b656e56657374696e673a206f6e6c792062656e6566696369617279206160448201527f6e64206f776e65722063616e2072656c656173652076657374656420746f6b656064820152616e7360f01b608482015260a4016104b4565b6040805161014081018252845460ff808216151583526001600160a01b03610100928390041660208401526001870154938301939093526002860154606083015260038601546080830152600486015460a083015260058601548316151560c0830152600686015460e083015260078601549082015260088501549091161515610120820152600090610d09906116d9565b905085811015610d815760405162461bcd60e51b815260206004820152603d60248201527f546f6b656e56657374696e673a2063616e6e6f742072656c6561736520746f6b60448201527f656e732c206e6f7420656e6f7567682076657374656420746f6b656e7300000060648201526084016104b4565b6007840154610d909087611661565b600785015583546004546101009091046001600160a01b031690610db490886117bc565b600455610deb6001600160a01b037f000000000000000000000000000000000000000000000000000000000000000016828961166d565b505060018055505050505050565b6000546001600160a01b03163314610e535760405162461bcd60e51b815260206004820181905260248201527f4f776e61626c653a2063616c6c6572206973206e6f7420746865206f776e657260448201526064016104b4565b610e5d60006117c8565b565b610ec460405180610140016040528060001515815260200160006001600160a01b031681526020016000815260200160008152602001600081526020016000815260200160001515815260200160008152602001600081526020016000151581525090565b6001600160a01b03821660009081526005602052604081205460039190610ef39085906102af90600190611c03565b81526020808201929092526040908101600020815161014081018352815460ff808216151583526001600160a01b036101009283900416958301959095526001830154938201939093526002820154606082015260038201546080820152600482015460a082015260058201548416151560c0820152600682015460e082015260078201549281019290925260080154909116151561012082015292915050565b600480546040516370a0823160e01b8152309281019290925260009161103f91906001600160a01b037f000000000000000000000000000000000000000000000000000000000000000016906370a082319060240160206040518083038186803b15801561100157600080fd5b505afa158015611015573d6000803e3d6000fd5b505050506040513d601f19601f820116820180604052508101906110399190611bd4565b906117bc565b905090565b6110a960405180610140016040528060001515815260200160006001600160a01b031681526020016000815260200160008152602001600081526020016000815260200160001515815260200160008152602001600081526020016000151581525090565b50600090815260036020818152604092839020835161014081018552815460ff808216151583526001600160a01b0361010092839004169483019490945260018301549582019590955260028201546060820152928101546080840152600481015460a084015260058101548216151560c0840152600681015460e0840152600781015493830193909352600890920154909116151561012082015290565b6000546001600160a01b031633146111a25760405162461bcd60e51b815260206004820181905260248201527f4f776e61626c653a2063616c6c6572206973206e6f7420746865206f776e657260448201526064016104b4565b600081815260036020526040902054819060ff1615156001146111c457600080fd5b60008181526003602052604090206008015460ff16156111e357600080fd5b6000828152600360205260409020600581015460ff1615156001146112705760405162461bcd60e51b815260206004820152602660248201527f546f6b656e56657374696e673a2076657374696e67206973206e6f742072657660448201527f6f6361626c65000000000000000000000000000000000000000000000000000060648201526084016104b4565b6040805161014081018252825460ff808216151583526001600160a01b03610100928390041660208401526001850154938301939093526002840154606083015260038401546080830152600484015460a083015260058401548316151560c0830152600684015460e083015260078401549082015260088301549091161515610120820152600090611302906116d9565b90508015611314576113148482610b29565b6000611331836007015484600601546117bc90919063ffffffff16565b60045490915061134190826117bc565b6004555050600801805460ff191660011790555050565b600081815260036020526040812054829060ff16151560011461137a57600080fd5b60008181526003602052604090206008015460ff161561139957600080fd5b600083815260036020818152604092839020835161014081018552815460ff808216151583526001600160a01b0361010092839004169483019490945260018301549582019590955260028201546060820152928101546080840152600481015460a084015260058101548216151560c0840152600681015460e0840152600781015493830193909352600883015416151561012082015261143a906116d9565b949350505050565b6000546001600160a01b0316331461149c5760405162461bcd60e51b815260206004820181905260248201527f4f776e61626c653a2063616c6c6572206973206e6f7420746865206f776e657260448201526064016104b4565b6001600160a01b0381166115185760405162461bcd60e51b815260206004820152602660248201527f4f776e61626c653a206e6577206f776e657220697320746865207a65726f206160448201527f646472657373000000000000000000000000000000000000000000000000000060648201526084016104b4565b611521816117c8565b50565b61158960405180610140016040528060001515815260200160006001600160a01b031681526020016000815260200160008152602001600081526020016000815260200160001515815260200160008152602001600081526020016000151581525090565b60408051606085901b6bffffffffffffffffffffffff1916602080830191909152603480830186905283518084039091018152605490920190925280519101206115d290611044565b9392505050565b60006115e460025490565b821061163c5760405162461bcd60e51b815260206004820152602160248201527f546f6b656e56657374696e673a20696e646578206f7574206f6620626f756e646044820152607360f81b60648201526084016104b4565b6002828154811061164f5761164f611c1a565b90600052602060002001549050919050565b60006115d28284611c30565b604080516001600160a01b038416602482015260448082018490528251808303909101815260649091019091526020810180517bffffffffffffffffffffffffffffffffffffffffffffffffffffffff1663a9059cbb60e01b1790526116d4908490611830565b505050565b604081015160009042908110806116f7575061012083015115156001145b156117055750600092915050565b6080830151606084015161171891611661565b81106117325761010083015160e08401516115d2916117bc565b600061174b8460600151836117bc90919063ffffffff16565b60a0850151909150600061175f8383611915565b9050600061176d8284611921565b905060006117968860800151611790848b60e0015161192190919063ffffffff16565b90611915565b90506117b0886101000151826117bc90919063ffffffff16565b98975050505050505050565b60006115d28284611c03565b600080546001600160a01b038381167fffffffffffffffffffffffff0000000000000000000000000000000000000000831681178455604051919092169283917f8be0079c531659141344cd1fd0a4f28419497f9722a3daafe3b4186f6b6457e09190a35050565b6000611885826040518060400160405280602081526020017f5361666545524332303a206c6f772d6c6576656c2063616c6c206661696c6564815250856001600160a01b031661192d9092919063ffffffff16565b8051909150156116d457808060200190518101906118a39190611c48565b6116d45760405162461bcd60e51b815260206004820152602a60248201527f5361666545524332303a204552433230206f7065726174696f6e20646964206e60448201527f6f7420737563636565640000000000000000000000000000000000000000000060648201526084016104b4565b60006115d28284611c65565b60006115d28284611c87565b606061143a848460008585843b6119865760405162461bcd60e51b815260206004820152601d60248201527f416464726573733a2063616c6c20746f206e6f6e2d636f6e747261637400000060448201526064016104b4565b600080866001600160a01b031685876040516119a29190611cd6565b60006040518083038185875af1925050503d80600081146119df576040519150601f19603f3d011682016040523d82523d6000602084013e6119e4565b606091505b50915091506119f48282866119ff565b979650505050505050565b60608315611a0e5750816115d2565b825115611a1e5782518084602001fd5b8160405162461bcd60e51b81526004016104b49190611cf2565b80356001600160a01b0381168114611a4f57600080fd5b919050565b801515811461152157600080fd5b600080600080600080600060e0888a031215611a7d57600080fd5b611a8688611a38565b96506020880135955060408801359450606088013593506080880135925060a0880135611ab281611a54565b8092505060c0880135905092959891949750929550565b600060208284031215611adb57600080fd5b5035919050565b600060208284031215611af457600080fd5b6115d282611a38565b60008060408385031215611b1057600080fd5b50508035926020909101359150565b81511515815261014081016020830151611b4460208401826001600160a01b03169052565b5060408301516040830152606083015160608301526080830151608083015260a083015160a083015260c0830151611b8060c084018215159052565b5060e083810151908301526101008084015190830152610120928301511515929091019190915290565b60008060408385031215611bbd57600080fd5b611bc683611a38565b946020939093013593505050565b600060208284031215611be657600080fd5b5051919050565b634e487b7160e01b600052601160045260246000fd5b600082821015611c1557611c15611bed565b500390565b634e487b7160e01b600052603260045260246000fd5b60008219821115611c4357611c43611bed565b500190565b600060208284031215611c5a57600080fd5b81516115d281611a54565b600082611c8257634e487b7160e01b600052601260045260246000fd5b500490565b6000816000190483118215151615611ca157611ca1611bed565b500290565b60005b83811015611cc1578181015183820152602001611ca9565b83811115611cd0576000848401525b50505050565b60008251611ce8818460208701611ca6565b9190910192915050565b6020815260008251806020840152611d11816040850160208701611ca6565b601f01601f1916919091016040019291505056fea164736f6c6343000809000a",
  "devdoc": {
    "kind": "dev",
    "methods": {
      "computeNextVestingScheduleIdForHolder(address)": {
        "details": "Computes the next vesting schedule identifier for a given holder address."
      },
      "computeReleasableAmount(bytes32)": {
        "returns": {
          "_0": "the vested amount"
        }
      },
      "computeVestingScheduleIdForAddressAndIndex(address,uint256)": {
        "details": "Computes the vesting schedule identifier for an address and an index."
      },
      "constructor": {
        "details": "Creates a vesting contract.",
        "params": {
          "token_": "address of the ERC20 token contract"
        }
      },
      "createVestingSchedule(address,uint256,uint256,uint256,uint256,bool,uint256)": {
        "params": {
          "_amount": "total amount of tokens to be released at the end of the vesting",
          "_beneficiary": "address of the beneficiary to whom vested tokens are transferred",
          "_cliff": "duration in seconds of the cliff in which tokens will begin to vest",
          "_duration": "duration in seconds of the period in which the tokens will vest",
          "_revocable": "whether the vesting is revocable or not",
          "_slicePeriodSeconds": "duration of a slice period for the vesting in seconds",
          "_start": "start time of the vesting period"
        }
      },
      "getLastVestingScheduleForHolder(address)": {
        "details": "Returns the last vesting schedule for a given holder address."
      },
      "getToken()": {
        "details": "Returns the address of the ERC20 token managed by the vesting contract."
      },
      "getVestingIdAtIndex(uint256)": {
        "details": "Returns the vesting schedule id at the given index.",
        "returns": {
          "_0": "the vesting id"
        }
      },
      "getVestingSchedule(bytes32)": {
        "returns": {
          "_0": "the vesting schedule structure information"
        }
      },
      "getVestingScheduleByAddressAndIndex(address,uint256)": {
        "returns": {
          "_0": "the vesting schedule structure information"
        }
      },
      "getVestingSchedulesCount()": {
        "details": "Returns the number of vesting schedules managed by this contract.",
        "returns": {
          "_0": "the number of vesting schedules"
        }
      },
      "getVestingSchedulesCountByBeneficiary(address)": {
        "details": "Returns the number of vesting schedules associated to a beneficiary.",
        "returns": {
          "_0": "the number of vesting schedules"
        }
      },
      "getVestingSchedulesTotalAmount()": {
        "returns": {
          "_0": "the total amount of vesting schedules"
        }
      },
      "getWithdrawableAmount()": {
        "details": "Returns the amount of tokens that can be withdrawn by the owner.",
        "returns": {
          "_0": "the amount of tokens"
        }
      },
      "owner()": {
        "details": "Returns the address of the current owner."
      },
      "release(bytes32,uint256)": {
        "params": {
          "amount": "the amount to release",
          "vestingScheduleId": "the vesting schedule identifier"
        }
      },
      "renounceOwnership()": {
        "details": "Leaves the contract without owner. It will not be possible to call `onlyOwner` functions anymore. Can only be called by the current owner. NOTE: Renouncing ownership will leave the contract without an owner, thereby removing any functionality that is only available to the owner."
      },
      "revoke(bytes32)": {
        "params": {
          "vestingScheduleId": "the vesting schedule identifier"
        }
      },
      "transferOwnership(address)": {
        "details": "Transfers ownership of the contract to a new account (`newOwner`). Can only be called by the current owner."
      },
      "withdraw(uint256)": {
        "params": {
          "amount": "the amount to withdraw"
        }
      }
    },
    "title": "PrivateSaleContract",
    "version": 1
  },
  "userdoc": {
    "kind": "user",
    "methods": {
      "computeReleasableAmount(bytes32)": {
        "notice": "Computes the vested amount of tokens for the given vesting schedule identifier."
      },
      "createVestingSchedule(address,uint256,uint256,uint256,uint256,bool,uint256)": {
        "notice": "Creates a new vesting schedule for a beneficiary."
      },
      "getVestingSchedule(bytes32)": {
        "notice": "Returns the vesting schedule information for a given identifier."
      },
      "getVestingScheduleByAddressAndIndex(address,uint256)": {
        "notice": "Returns the vesting schedule information for a given holder and index."
      },
      "getVestingSchedulesTotalAmount()": {
        "notice": "Returns the total amount of vesting schedules."
      },
      "release(bytes32,uint256)": {
        "notice": "Release vested amount of tokens."
      },
      "revoke(bytes32)": {
        "notice": "Revokes the vesting schedule for given identifier."
      },
      "withdraw(uint256)": {
        "notice": "Withdraw the specified amount if possible."
      }
    },
    "version": 1
  },
  "storageLayout": {
    "storage": [
      {
        "astId": 655,
        "contract": "contracts/PrivateSaleContract.sol:PrivateSaleContract",
        "label": "_owner",
        "offset": 0,
        "slot": "0",
        "type": "t_address"
      },
      {
        "astId": 601,
        "contract": "contracts/PrivateSaleContract.sol:PrivateSaleContract",
        "label": "_status",
        "offset": 0,
        "slot": "1",
        "type": "t_uint256"
      },
      {
        "astId": 1187,
        "contract": "contracts/PrivateSaleContract.sol:PrivateSaleContract",
        "label": "vestingSchedulesIds",
        "offset": 0,
        "slot": "2",
        "type": "t_array(t_bytes32)dyn_storage"
      },
      {
        "astId": 1192,
        "contract": "contracts/PrivateSaleContract.sol:PrivateSaleContract",
        "label": "vestingSchedules",
        "offset": 0,
        "slot": "3",
        "type": "t_mapping(t_bytes32,t_struct(VestingSchedule)1181_storage)"
      },
      {
        "astId": 1194,
        "contract": "contracts/PrivateSaleContract.sol:PrivateSaleContract",
        "label": "vestingSchedulesTotalAmount",
        "offset": 0,
        "slot": "4",
        "type": "t_uint256"
      },
      {
        "astId": 1198,
        "contract": "contracts/PrivateSaleContract.sol:PrivateSaleContract",
        "label": "holdersVestingCount",
        "offset": 0,
        "slot": "5",
        "type": "t_mapping(t_address,t_uint256)"
      }
    ],
    "types": {
      "t_address": {
        "encoding": "inplace",
        "label": "address",
        "numberOfBytes": "20"
      },
      "t_array(t_bytes32)dyn_storage": {
        "base": "t_bytes32",
        "encoding": "dynamic_array",
        "label": "bytes32[]",
        "numberOfBytes": "32"
      },
      "t_bool": {
        "encoding": "inplace",
        "label": "bool",
        "numberOfBytes": "1"
      },
      "t_bytes32": {
        "encoding": "inplace",
        "label": "bytes32",
        "numberOfBytes": "32"
      },
      "t_mapping(t_address,t_uint256)": {
        "encoding": "mapping",
        "key": "t_address",
        "label": "mapping(address => uint256)",
        "numberOfBytes": "32",
        "value": "t_uint256"
      },
      "t_mapping(t_bytes32,t_struct(VestingSchedule)1181_storage)": {
        "encoding": "mapping",
        "key": "t_bytes32",
        "label": "mapping(bytes32 => struct PrivateSaleContract.VestingSchedule)",
        "numberOfBytes": "32",
        "value": "t_struct(VestingSchedule)1181_storage"
      },
      "t_struct(VestingSchedule)1181_storage": {
        "encoding": "inplace",
        "label": "struct PrivateSaleContract.VestingSchedule",
        "members": [
          {
            "astId": 1162,
            "contract": "contracts/PrivateSaleContract.sol:PrivateSaleContract",
            "label": "initialized",
            "offset": 0,
            "slot": "0",
            "type": "t_bool"
          },
          {
            "astId": 1164,
            "contract": "contracts/PrivateSaleContract.sol:PrivateSaleContract",
            "label": "beneficiary",
            "offset": 1,
            "slot": "0",
            "type": "t_address"
          },
          {
            "astId": 1166,
            "contract": "contracts/PrivateSaleContract.sol:PrivateSaleContract",
            "label": "cliff",
            "offset": 0,
            "slot": "1",
            "type": "t_uint256"
          },
          {
            "astId": 1168,
            "contract": "contracts/PrivateSaleContract.sol:PrivateSaleContract",
            "label": "start",
            "offset": 0,
            "slot": "2",
            "type": "t_uint256"
          },
          {
            "astId": 1170,
            "contract": "contracts/PrivateSaleContract.sol:PrivateSaleContract",
            "label": "duration",
            "offset": 0,
            "slot": "3",
            "type": "t_uint256"
          },
          {
            "astId": 1172,
            "contract": "contracts/PrivateSaleContract.sol:PrivateSaleContract",
            "label": "slicePeriodSeconds",
            "offset": 0,
            "slot": "4",
            "type": "t_uint256"
          },
          {
            "astId": 1174,
            "contract": "contracts/PrivateSaleContract.sol:PrivateSaleContract",
            "label": "revocable",
            "offset": 0,
            "slot": "5",
            "type": "t_bool"
          },
          {
            "astId": 1176,
            "contract": "contracts/PrivateSaleContract.sol:PrivateSaleContract",
            "label": "amountTotal",
            "offset": 0,
            "slot": "6",
            "type": "t_uint256"
          },
          {
            "astId": 1178,
            "contract": "contracts/PrivateSaleContract.sol:PrivateSaleContract",
            "label": "released",
            "offset": 0,
            "slot": "7",
            "type": "t_uint256"
          },
          {
            "astId": 1180,
            "contract": "contracts/PrivateSaleContract.sol:PrivateSaleContract",
            "label": "revoked",
            "offset": 0,
            "slot": "8",
            "type": "t_bool"
          }
        ],
        "numberOfBytes": "288"
      },
      "t_uint256": {
        "encoding": "inplace",
        "label": "uint256",
        "numberOfBytes": "32"
      }
    }
  }
}