{
  "address": "0xf9eD4c67F567B7fdd7155e2d57249648Cb40c3b1",
  "abi": [
    {
      "inputs": [
        {
          "internalType": "address",
          "name": "token_",
          "type": "address"
        }
      ],
      "stateMutability": "nonpayable",
      "type": "constructor"
    },
    {
      "anonymous": false,
      "inputs": [
        {
          "indexed": false,
          "internalType": "address",
          "name": "recipient",
          "type": "address"
        },
        {
          "indexed": false,
          "internalType": "uint256",
          "name": "amount",
          "type": "uint256"
        }
      ],
      "name": "AllocationPerformed",
      "type": "event"
    },
    {
      "anonymous": false,
      "inputs": [
        {
          "indexed": true,
          "internalType": "address",
          "name": "previousOwner",
          "type": "address"
        },
        {
          "indexed": true,
          "internalType": "address",
          "name": "newOwner",
          "type": "address"
        }
      ],
      "name": "OwnershipTransferred",
      "type": "event"
    },
    {
      "anonymous": false,
      "inputs": [
        {
          "indexed": false,
          "internalType": "address",
          "name": "from",
          "type": "address"
        },
        {
          "indexed": false,
          "internalType": "uint256",
          "name": "amount",
          "type": "uint256"
        }
      ],
      "name": "TokensDeposited",
      "type": "event"
    },
    {
      "anonymous": false,
      "inputs": [
        {
          "indexed": false,
          "internalType": "address",
          "name": "recipient",
          "type": "address"
        },
        {
          "indexed": false,
          "internalType": "uint256",
          "name": "amount",
          "type": "uint256"
        }
      ],
      "name": "TokensUnlocked",
      "type": "event"
    },
    {
      "inputs": [],
      "name": "allIncomingDepositsFinalised",
      "outputs": [
        {
          "internalType": "bool",
          "name": "",
          "type": "bool"
        }
      ],
      "stateMutability": "view",
      "type": "function"
    },
    {
      "inputs": [
        {
          "internalType": "address",
          "name": "",
          "type": "address"
        }
      ],
      "name": "alreadyWithdrawn",
      "outputs": [
        {
          "internalType": "uint256",
          "name": "",
          "type": "uint256"
        }
      ],
      "stateMutability": "view",
      "type": "function"
    },
    {
      "inputs": [
        {
          "internalType": "address",
          "name": "",
          "type": "address"
        }
      ],
      "name": "balances",
      "outputs": [
        {
          "internalType": "uint256",
          "name": "",
          "type": "uint256"
        }
      ],
      "stateMutability": "view",
      "type": "function"
    },
    {
      "inputs": [
        {
          "internalType": "address[]",
          "name": "recipients",
          "type": "address[]"
        },
        {
          "internalType": "uint256[]",
          "name": "amounts",
          "type": "uint256[]"
        }
      ],
      "name": "bulkDepositTokens",
      "outputs": [],
      "stateMutability": "nonpayable",
      "type": "function"
    },
    {
      "inputs": [],
      "name": "contractBalance",
      "outputs": [
        {
          "internalType": "uint256",
          "name": "",
          "type": "uint256"
        }
      ],
      "stateMutability": "view",
      "type": "function"
    },
    {
      "inputs": [
        {
          "internalType": "address",
          "name": "recipient",
          "type": "address"
        },
        {
          "internalType": "uint256",
          "name": "amount",
          "type": "uint256"
        }
      ],
      "name": "depositTokens",
      "outputs": [],
      "stateMutability": "nonpayable",
      "type": "function"
    },
    {
      "inputs": [],
      "name": "finalizeAllIncomingDeposits",
      "outputs": [],
      "stateMutability": "nonpayable",
      "type": "function"
    },
    {
      "inputs": [],
      "name": "initialTimestamp",
      "outputs": [
        {
          "internalType": "uint256",
          "name": "",
          "type": "uint256"
        }
      ],
      "stateMutability": "view",
      "type": "function"
    },
    {
      "inputs": [],
      "name": "owner",
      "outputs": [
        {
          "internalType": "address",
          "name": "",
          "type": "address"
        }
      ],
      "stateMutability": "view",
      "type": "function"
    },
    {
      "inputs": [],
      "name": "renounceOwnership",
      "outputs": [],
      "stateMutability": "nonpayable",
      "type": "function"
    },
    {
      "inputs": [
        {
          "internalType": "uint256",
          "name": "_timePeriodInSeconds",
          "type": "uint256"
        }
      ],
      "name": "setTimestamp",
      "outputs": [],
      "stateMutability": "nonpayable",
      "type": "function"
    },
    {
      "inputs": [],
      "name": "timePeriod",
      "outputs": [
        {
          "internalType": "uint256",
          "name": "",
          "type": "uint256"
        }
      ],
      "stateMutability": "view",
      "type": "function"
    },
    {
      "inputs": [],
      "name": "timestampSet",
      "outputs": [
        {
          "internalType": "bool",
          "name": "",
          "type": "bool"
        }
      ],
      "stateMutability": "view",
      "type": "function"
    },
    {
      "inputs": [
        {
          "internalType": "contract IERC20",
          "name": "token",
          "type": "address"
        },
        {
          "internalType": "uint256",
          "name": "amount",
          "type": "uint256"
        }
      ],
      "name": "transferAccidentallyLockedTokens",
      "outputs": [],
      "stateMutability": "nonpayable",
      "type": "function"
    },
    {
      "inputs": [
        {
          "internalType": "address",
          "name": "newOwner",
          "type": "address"
        }
      ],
      "name": "transferOwnership",
      "outputs": [],
      "stateMutability": "nonpayable",
      "type": "function"
    },
    {
      "inputs": [
        {
          "internalType": "contract IERC20",
          "name": "token",
          "type": "address"
        },
        {
          "internalType": "address",
          "name": "to",
          "type": "address"
        },
        {
          "internalType": "uint256",
          "name": "amount",
          "type": "uint256"
        }
      ],
      "name": "transferTimeLockedTokensAfterTimePeriod",
      "outputs": [],
      "stateMutability": "nonpayable",
      "type": "function"
    },
    {
      "inputs": [
        {
          "internalType": "uint256",
          "name": "amount",
          "type": "uint256"
        }
      ],
      "name": "withdrawEth",
      "outputs": [],
      "stateMutability": "nonpayable",
      "type": "function"
    },
    {
      "stateMutability": "payable",
      "type": "receive"
    }
  ],
  "transactionHash": "0x7556ffda068a5f0500668402f44a7952d2bf93fab072d84e4f9e508103255743",
  "args": [
    "0xa0F5deBF1FbE0a5d5861dD8D97C7326Ba7F57b4E"
  ],
  "numDeployments": 1,
  "bytecode": "0x60a06040523480156200001157600080fd5b5060405162001c3338038062001c3383398101604081905262000034916200012c565b6200003f33620000dc565b6001600160a01b038116620000b25760405162461bcd60e51b815260206004820152602f60248201527f5f65726332305f636f6e74726163745f6164647265737320616464726573732060448201526e63616e206e6f74206265207a65726f60881b606482015260840160405180910390fd5b6001600160a01b0316608052600080546002805460ff1916905561ffff60a01b191690556200015e565b600080546001600160a01b038381166001600160a01b0319831681178455604051919092169283917f8be0079c531659141344cd1fd0a4f28419497f9722a3daafe3b4186f6b6457e09190a35050565b6000602082840312156200013f57600080fd5b81516001600160a01b03811681146200015757600080fd5b9392505050565b608051611ab262000181600039600081816107b60152610aeb0152611ab26000f3fe6080604052600436106101125760003560e01c80638b7afe2e116100a5578063a0a2b57311610074578063d148429811610059578063d1484298146103ac578063d6d14171146103cc578063f2fde38b146103e257600080fd5b8063a0a2b5731461036c578063c311d0491461038c57600080fd5b80638b7afe2e146102e75780638da5cb5b146102fd5780639aa2e39e146103255780639b69279a1461035257600080fd5b80633e994942116100e15780633e9949421461026157806355ce38661461028157806366168bd7146102b2578063715018a6146102d257600080fd5b806302cc6e3f146101d4578063199b6bba146101eb57806327e235e31461020b5780633e79d1e11461024b57600080fd5b366101cf57600054600160a81b900460ff16156101855760405162461bcd60e51b815260206004820152602660248201527f496e636f6d696e67206465706f736974732068617665206265656e2066696e616044820152653634b9b2b21760d11b60648201526084015b60405180910390fd5b6006546101929034610402565b600655604080513381523460208201527f59062170a285eb80e8c6b8ced60428442a51910635005233fc4ce084a475845e910160405180910390a1005b600080fd5b3480156101e057600080fd5b506101e9610415565b005b3480156101f757600080fd5b506101e9610206366004611833565b610578565b34801561021757600080fd5b50610238610226366004611874565b60056020526000908152604090205481565b6040519081526020015b60405180910390f35b34801561025757600080fd5b5061023860035481565b34801561026d57600080fd5b506101e961027c366004611891565b6109db565b34801561028d57600080fd5b506000546102a290600160a81b900460ff1681565b6040519015158152602001610242565b3480156102be57600080fd5b506101e96102cd366004611891565b610bdc565b3480156102de57600080fd5b506101e9610ddd565b3480156102f357600080fd5b5061023860065481565b34801561030957600080fd5b506000546040516001600160a01b039091168152602001610242565b34801561033157600080fd5b50610238610340366004611874565b60046020526000908152604090205481565b34801561035e57600080fd5b506002546102a29060ff1681565b34801561037857600080fd5b506101e96103873660046118bd565b610e43565b34801561039857600080fd5b506101e96103a73660046118bd565b610f21565b3480156103b857600080fd5b506101e96103c7366004611922565b611068565b3480156103d857600080fd5b5061023860015481565b3480156103ee57600080fd5b506101e96103fd366004611874565b6113e8565b600061040e82846119a4565b9392505050565b6000546001600160a01b0316331461046f5760405162461bcd60e51b815260206004820181905260248201527f4f776e61626c653a2063616c6c6572206973206e6f7420746865206f776e6572604482015260640161017c565b60025460ff1615156001146104df5760405162461bcd60e51b815260206004820152603060248201527f506c6561736520736574207468652074696d65207374616d702066697273742c60448201526f103a3432b7103a393c9030b3b0b4b71760811b606482015260840161017c565b600054600160a81b900460ff16156105485760405162461bcd60e51b815260206004820152602660248201527f496e636f6d696e67206465706f736974732068617665206265656e2066696e616044820152653634b9b2b21760d11b606482015260840161017c565b600080547fffffffffffffffffffff00ffffffffffffffffffffffffffffffffffffffffff16600160a81b179055565b60025460ff1615156001146105e85760405162461bcd60e51b815260206004820152603060248201527f506c6561736520736574207468652074696d65207374616d702066697273742c60448201526f103a3432b7103a393c9030b3b0b4b71760811b606482015260840161017c565b600054600160a01b900460ff16156106335760405162461bcd60e51b815260206004820152600e60248201526d4e6f2072652d656e7472616e637960901b604482015260640161017c565b6000805460ff60a01b1916600160a01b1790556001600160a01b0382166106a85760405162461bcd60e51b815260206004820152602360248201527f45524332303a207472616e7366657220746f20746865207a65726f206164647260448201526265737360e81b606482015260840161017c565b6001600160a01b0382166000908152600560205260409020548111156107365760405162461bcd60e51b815260206004820152602d60248201527f496e73756666696369656e7420746f6b656e2062616c616e63652c207472792060448201527f6c657373657220616d6f756e7400000000000000000000000000000000000000606482015260840161017c565b336001600160a01b038316146107b45760405162461bcd60e51b815260206004820152602f60248201527f4f6e6c792074686520746f6b656e20726563697069656e742063616e2070657260448201527f666f726d2074686520756e6c6f636b0000000000000000000000000000000000606482015260840161017c565b7f00000000000000000000000000000000000000000000000000000000000000006001600160a01b0316836001600160a01b03161461088f5760405162461bcd60e51b8152602060048201526064602482018190527f546f6b656e20706172616d65746572206d757374206265207468652073616d6560448301527f2061732074686520657263323020636f6e747261637420616464726573732077908201527f68696368207761732070617373656420696e746f2074686520636f6e7374727560848201526331ba37b960e11b60a482015260c40161017c565b600354421061095b576001600160a01b0382166000908152600460205260409020546108bb9082610402565b6001600160a01b0383166000908152600460209081526040808320939093556005905220546108ea90826114ca565b6001600160a01b0380841660009081526005602052604090209190915561091490841683836114d6565b604080516001600160a01b0384168152602081018390527fe7b379c6c1fa169e9079c25e9143b127637eef8ec8c9d5c06ddb4ab3e1195888910160405180910390a16109c9565b60405162461bcd60e51b815260206004820152603f60248201527f546f6b656e7320617265206f6e6c7920617661696c61626c652061667465722060448201527f636f72726563742074696d6520706572696f642068617320656c617073656400606482015260840161017c565b50506000805460ff60a01b1916905550565b6000546001600160a01b03163314610a355760405162461bcd60e51b815260206004820181905260248201527f4f776e61626c653a2063616c6c6572206973206e6f7420746865206f776e6572604482015260640161017c565b600054600160a01b900460ff1615610a805760405162461bcd60e51b815260206004820152600e60248201526d4e6f2072652d656e7472616e637960901b604482015260640161017c565b6000805460ff60a01b1916600160a01b1790556001600160a01b038216610ae95760405162461bcd60e51b815260206004820152601d60248201527f546f6b656e20616464726573732063616e206e6f74206265207a65726f000000604482015260640161017c565b7f00000000000000000000000000000000000000000000000000000000000000006001600160a01b0316826001600160a01b03161415610bb75760405162461bcd60e51b815260206004820152604c60248201527f546f6b656e20616464726573732063616e206e6f74206265204552433230206160448201527f646472657373207768696368207761732070617373656420696e746f2074686560648201527f20636f6e7374727563746f720000000000000000000000000000000000000000608482015260a40161017c565b610bcb6001600160a01b03831633836114d6565b50506000805460ff60a01b19169055565b6000546001600160a01b03163314610c365760405162461bcd60e51b815260206004820181905260248201527f4f776e61626c653a2063616c6c6572206973206e6f7420746865206f776e6572604482015260640161017c565b60025460ff1615610c955760405162461bcd60e51b8152602060048201526024808201527f5468652074696d65207374616d702068617320616c7265616479206265656e2060448201526339b2ba1760e11b606482015260840161017c565b600054600160a81b900460ff1615610cfe5760405162461bcd60e51b815260206004820152602660248201527f496e636f6d696e67206465706f736974732068617665206265656e2066696e616044820152653634b9b2b21760d11b606482015260840161017c565b6001600160a01b038216610d605760405162461bcd60e51b815260206004820152602360248201527f45524332303a207472616e7366657220746f20746865207a65726f206164647260448201526265737360e81b606482015260840161017c565b6001600160a01b038216600090815260056020526040902054610d839082610402565b6001600160a01b0383166000818152600560209081526040918290209390935580519182529181018390527fcad22dd3bcdad18c651a372fe3e7e893af3d354482d9ac6c310c8342eb7af574910160405180910390a15050565b6000546001600160a01b03163314610e375760405162461bcd60e51b815260206004820181905260248201527f4f776e61626c653a2063616c6c6572206973206e6f7420746865206f776e6572604482015260640161017c565b610e416000611542565b565b6000546001600160a01b03163314610e9d5760405162461bcd60e51b815260206004820181905260248201527f4f776e61626c653a2063616c6c6572206973206e6f7420746865206f776e6572604482015260640161017c565b60025460ff1615610efc5760405162461bcd60e51b8152602060048201526024808201527f5468652074696d65207374616d702068617320616c7265616479206265656e2060448201526339b2ba1760e11b606482015260840161017c565b6002805460ff191660019081179091554290819055610f1b9082610402565b60035550565b6000546001600160a01b03163314610f7b5760405162461bcd60e51b815260206004820181905260248201527f4f776e61626c653a2063616c6c6572206973206e6f7420746865206f776e6572604482015260640161017c565b600054600160a01b900460ff1615610fc65760405162461bcd60e51b815260206004820152600e60248201526d4e6f2072652d656e7472616e637960901b604482015260640161017c565b6000805460ff60a01b1916600160a01b17905560065481111561102b5760405162461bcd60e51b815260206004820152601260248201527f496e73756666696369656e742066756e64730000000000000000000000000000604482015260640161017c565b60065461103890826114ca565b600655604051339082156108fc029083906000818181858888f19350505050158015610bcb573d6000803e3d6000fd5b6000546001600160a01b031633146110c25760405162461bcd60e51b815260206004820181905260248201527f4f776e61626c653a2063616c6c6572206973206e6f7420746865206f776e6572604482015260640161017c565b60025460ff16156111215760405162461bcd60e51b8152602060048201526024808201527f5468652074696d65207374616d702068617320616c7265616479206265656e2060448201526339b2ba1760e11b606482015260840161017c565b600054600160a81b900460ff161561118a5760405162461bcd60e51b815260206004820152602660248201527f496e636f6d696e67206465706f736974732068617665206265656e2066696e616044820152653634b9b2b21760d11b606482015260840161017c565b8281146112095760405162461bcd60e51b815260206004820152604160248201527f54686520726563697069656e747320616e6420616d6f756e747320617272617960448201527f73206d757374206265207468652073616d652073697a6520696e206c656e67746064820152600d60fb1b608482015260a40161017c565b60005b838110156113e1576000858583818110611228576112286119bc565b905060200201602081019061123d9190611874565b6001600160a01b031614156112a05760405162461bcd60e51b815260206004820152602360248201527f45524332303a207472616e7366657220746f20746865207a65726f206164647260448201526265737360e81b606482015260840161017c565b6113078383838181106112b5576112b56119bc565b90506020020135600560008888868181106112d2576112d26119bc565b90506020020160208101906112e79190611874565b6001600160a01b0316815260208101919091526040016000205490610402565b6005600087878581811061131d5761131d6119bc565b90506020020160208101906113329190611874565b6001600160a01b031681526020810191909152604001600020557fcad22dd3bcdad18c651a372fe3e7e893af3d354482d9ac6c310c8342eb7af57485858381811061137f5761137f6119bc565b90506020020160208101906113949190611874565b8484848181106113a6576113a66119bc565b604080516001600160a01b0390951685526020918202939093013590840152500160405180910390a1806113d9816119d2565b91505061120c565b5050505050565b6000546001600160a01b031633146114425760405162461bcd60e51b815260206004820181905260248201527f4f776e61626c653a2063616c6c6572206973206e6f7420746865206f776e6572604482015260640161017c565b6001600160a01b0381166114be5760405162461bcd60e51b815260206004820152602660248201527f4f776e61626c653a206e6577206f776e657220697320746865207a65726f206160448201527f6464726573730000000000000000000000000000000000000000000000000000606482015260840161017c565b6114c781611542565b50565b600061040e82846119ed565b604080516001600160a01b038416602482015260448082018490528251808303909101815260649091019091526020810180517bffffffffffffffffffffffffffffffffffffffffffffffffffffffff1663a9059cbb60e01b17905261153d9084906115aa565b505050565b600080546001600160a01b038381167fffffffffffffffffffffffff0000000000000000000000000000000000000000831681178455604051919092169283917f8be0079c531659141344cd1fd0a4f28419497f9722a3daafe3b4186f6b6457e09190a35050565b60006115ff826040518060400160405280602081526020017f5361666545524332303a206c6f772d6c6576656c2063616c6c206661696c6564815250856001600160a01b031661168f9092919063ffffffff16565b80519091501561153d578080602001905181019061161d9190611a04565b61153d5760405162461bcd60e51b815260206004820152602a60248201527f5361666545524332303a204552433230206f7065726174696f6e20646964206e60448201527f6f74207375636365656400000000000000000000000000000000000000000000606482015260840161017c565b606061169e84846000856116a6565b949350505050565b60608247101561171e5760405162461bcd60e51b815260206004820152602660248201527f416464726573733a20696e73756666696369656e742062616c616e636520666f60448201527f722063616c6c0000000000000000000000000000000000000000000000000000606482015260840161017c565b843b61176c5760405162461bcd60e51b815260206004820152601d60248201527f416464726573733a2063616c6c20746f206e6f6e2d636f6e7472616374000000604482015260640161017c565b600080866001600160a01b031685876040516117889190611a56565b60006040518083038185875af1925050503d80600081146117c5576040519150601f19603f3d011682016040523d82523d6000602084013e6117ca565b606091505b50915091506117da8282866117e5565b979650505050505050565b606083156117f457508161040e565b8251156118045782518084602001fd5b8160405162461bcd60e51b815260040161017c9190611a72565b6001600160a01b03811681146114c757600080fd5b60008060006060848603121561184857600080fd5b83356118538161181e565b925060208401356118638161181e565b929592945050506040919091013590565b60006020828403121561188657600080fd5b813561040e8161181e565b600080604083850312156118a457600080fd5b82356118af8161181e565b946020939093013593505050565b6000602082840312156118cf57600080fd5b5035919050565b60008083601f8401126118e857600080fd5b50813567ffffffffffffffff81111561190057600080fd5b6020830191508360208260051b850101111561191b57600080fd5b9250929050565b6000806000806040858703121561193857600080fd5b843567ffffffffffffffff8082111561195057600080fd5b61195c888389016118d6565b9096509450602087013591508082111561197557600080fd5b50611982878288016118d6565b95989497509550505050565b634e487b7160e01b600052601160045260246000fd5b600082198211156119b7576119b761198e565b500190565b634e487b7160e01b600052603260045260246000fd5b60006000198214156119e6576119e661198e565b5060010190565b6000828210156119ff576119ff61198e565b500390565b600060208284031215611a1657600080fd5b8151801515811461040e57600080fd5b60005b83811015611a41578181015183820152602001611a29565b83811115611a50576000848401525b50505050565b60008251611a68818460208701611a26565b9190910192915050565b6020815260008251806020840152611a91816040850160208701611a26565b601f01601f1916919091016040019291505056fea164736f6c6343000809000a"
}