{
  "address": "0x3F71Eaa13712438a21C6410eD9d28825a5aD86A7",
  "abi": [
    {
      "inputs": [
        {
          "internalType": "contract IERC20",
          "name": "_token",
          "type": "address"
        },
        {
          "internalType": "address",
          "name": "_usdt",
          "type": "address"
        },
        {
          "internalType": "address",
          "name": "_busd",
          "type": "address"
        }
      ],
      "stateMutability": "nonpayable",
      "type": "constructor"
    },
    {
      "anonymous": false,
      "inputs": [
        {
          "indexed": true,
          "internalType": "address",
          "name": "previousOwner",
          "type": "address"
        },
        {
          "indexed": true,
          "internalType": "address",
          "name": "newOwner",
          "type": "address"
        }
      ],
      "name": "OwnershipTransferred",
      "type": "event"
    },
    {
      "anonymous": false,
      "inputs": [
        {
          "indexed": false,
          "internalType": "address",
          "name": "buyer",
          "type": "address"
        },
        {
          "indexed": false,
          "internalType": "uint256",
          "name": "amount",
          "type": "uint256"
        }
      ],
      "name": "Sold",
      "type": "event"
    },
    {
      "inputs": [],
      "name": "BUSD",
      "outputs": [
        {
          "internalType": "address",
          "name": "",
          "type": "address"
        }
      ],
      "stateMutability": "view",
      "type": "function"
    },
    {
      "inputs": [],
      "name": "USDT",
      "outputs": [
        {
          "internalType": "address",
          "name": "",
          "type": "address"
        }
      ],
      "stateMutability": "view",
      "type": "function"
    },
    {
      "inputs": [],
      "name": "availableAtTGE",
      "outputs": [
        {
          "internalType": "uint256",
          "name": "",
          "type": "uint256"
        }
      ],
      "stateMutability": "view",
      "type": "function"
    },
    {
      "inputs": [
        {
          "internalType": "uint256",
          "name": "_busdAmount",
          "type": "uint256"
        },
        {
          "internalType": "uint256",
          "name": "numberOfTokens",
          "type": "uint256"
        }
      ],
      "name": "buyTokensUsingBUSD",
      "outputs": [],
      "stateMutability": "payable",
      "type": "function"
    },
    {
      "inputs": [
        {
          "internalType": "uint256",
          "name": "_usdtAmount",
          "type": "uint256"
        },
        {
          "internalType": "uint256",
          "name": "numberOfTokens",
          "type": "uint256"
        }
      ],
      "name": "buyTokensUsingUSDT",
      "outputs": [],
      "stateMutability": "payable",
      "type": "function"
    },
    {
      "inputs": [],
      "name": "cliff",
      "outputs": [
        {
          "internalType": "uint256",
          "name": "",
          "type": "uint256"
        }
      ],
      "stateMutability": "view",
      "type": "function"
    },
    {
      "inputs": [],
      "name": "coinsSold",
      "outputs": [
        {
          "internalType": "uint256",
          "name": "",
          "type": "uint256"
        }
      ],
      "stateMutability": "view",
      "type": "function"
    },
    {
      "inputs": [
        {
          "internalType": "address",
          "name": "_beneficiary",
          "type": "address"
        },
        {
          "internalType": "uint256",
          "name": "_start",
          "type": "uint256"
        },
        {
          "internalType": "uint256",
          "name": "_cliff",
          "type": "uint256"
        },
        {
          "internalType": "uint256",
          "name": "_duration",
          "type": "uint256"
        },
        {
          "internalType": "uint256",
          "name": "_slicePeriodSeconds",
          "type": "uint256"
        },
        {
          "internalType": "bool",
          "name": "_revocable",
          "type": "bool"
        },
        {
          "internalType": "uint256",
          "name": "_amount",
          "type": "uint256"
        },
        {
          "internalType": "uint256",
          "name": "_availableAtTGE",
          "type": "uint256"
        }
      ],
      "name": "createVestingSchedule",
      "outputs": [],
      "stateMutability": "nonpayable",
      "type": "function"
    },
    {
      "inputs": [],
      "name": "duration",
      "outputs": [
        {
          "internalType": "uint256",
          "name": "",
          "type": "uint256"
        }
      ],
      "stateMutability": "view",
      "type": "function"
    },
    {
      "inputs": [],
      "name": "endSale",
      "outputs": [],
      "stateMutability": "nonpayable",
      "type": "function"
    },
    {
      "inputs": [],
      "name": "exchangePriceBUSD",
      "outputs": [
        {
          "internalType": "uint256",
          "name": "",
          "type": "uint256"
        }
      ],
      "stateMutability": "view",
      "type": "function"
    },
    {
      "inputs": [],
      "name": "exchangePriceUSDT",
      "outputs": [
        {
          "internalType": "uint256",
          "name": "",
          "type": "uint256"
        }
      ],
      "stateMutability": "view",
      "type": "function"
    },
    {
      "inputs": [],
      "name": "owner",
      "outputs": [
        {
          "internalType": "address",
          "name": "",
          "type": "address"
        }
      ],
      "stateMutability": "view",
      "type": "function"
    },
    {
      "inputs": [],
      "name": "renounceOwnership",
      "outputs": [],
      "stateMutability": "nonpayable",
      "type": "function"
    },
    {
      "inputs": [],
      "name": "saleStatus",
      "outputs": [
        {
          "internalType": "enum TokenSale.SaleStatus",
          "name": "",
          "type": "uint8"
        }
      ],
      "stateMutability": "view",
      "type": "function"
    },
    {
      "inputs": [
        {
          "internalType": "uint256",
          "name": "_availableAtTGE",
          "type": "uint256"
        }
      ],
      "name": "setAvailableAtTGE",
      "outputs": [],
      "stateMutability": "nonpayable",
      "type": "function"
    },
    {
      "inputs": [
        {
          "internalType": "uint256",
          "name": "_cliff",
          "type": "uint256"
        }
      ],
      "name": "setCliff",
      "outputs": [],
      "stateMutability": "nonpayable",
      "type": "function"
    },
    {
      "inputs": [
        {
          "internalType": "uint256",
          "name": "_duration",
          "type": "uint256"
        }
      ],
      "name": "setDuration",
      "outputs": [],
      "stateMutability": "nonpayable",
      "type": "function"
    },
    {
      "inputs": [
        {
          "internalType": "uint256",
          "name": "_busdPrice",
          "type": "uint256"
        }
      ],
      "name": "setExchangePriceBUSD",
      "outputs": [],
      "stateMutability": "nonpayable",
      "type": "function"
    },
    {
      "inputs": [
        {
          "internalType": "uint256",
          "name": "_usdtPrice",
          "type": "uint256"
        }
      ],
      "name": "setExchangePriceUSDT",
      "outputs": [],
      "stateMutability": "nonpayable",
      "type": "function"
    },
    {
      "inputs": [
        {
          "internalType": "enum TokenSale.SaleStatus",
          "name": "_saleStatus",
          "type": "uint8"
        }
      ],
      "name": "setSaleStatus",
      "outputs": [],
      "stateMutability": "nonpayable",
      "type": "function"
    },
    {
      "inputs": [],
      "name": "token",
      "outputs": [
        {
          "internalType": "contract IERC20",
          "name": "",
          "type": "address"
        }
      ],
      "stateMutability": "view",
      "type": "function"
    },
    {
      "inputs": [
        {
          "internalType": "address",
          "name": "newOwner",
          "type": "address"
        }
      ],
      "name": "transferOwnership",
      "outputs": [],
      "stateMutability": "nonpayable",
      "type": "function"
    },
    {
      "inputs": [],
      "name": "vesting",
      "outputs": [
        {
          "internalType": "contract Vesting",
          "name": "",
          "type": "address"
        }
      ],
      "stateMutability": "view",
      "type": "function"
    },
    {
      "inputs": [
        {
          "internalType": "uint256",
          "name": "_amount",
          "type": "uint256"
        }
      ],
      "name": "withdraw",
      "outputs": [],
      "stateMutability": "nonpayable",
      "type": "function"
    },
    {
      "inputs": [],
      "name": "withdrawBUSD",
      "outputs": [],
      "stateMutability": "nonpayable",
      "type": "function"
    },
    {
      "inputs": [],
      "name": "withdrawUSDT",
      "outputs": [],
      "stateMutability": "nonpayable",
      "type": "function"
    }
  ],
  "transactionHash": "0x2a49d5a733804746c870e6a0c6c3e5ade297cfa7997d0c48d3468f7723e92a7f",
  "args": [
    "0xa0F5deBF1FbE0a5d5861dD8D97C7326Ba7F57b4E",
    "0xfd55D5eB19731e79FB600579756dF7f454b2aA08",
    "0xa0D61133044ACB8Fb72Bc5a0378Fe13786538Dd0"
  ],
  "numDeployments": 2,
  "solcInputHash": "b08977401490eefa39aee27caa96bf34",
  "bytecode": "0x60c06040526701aa535d3d0c00006003556701aa535d3d0c00006004556276a7006005556302c7ea0060065560c86008553480156200003d57600080fd5b50604051620039e1380380620039e1833981016040819052620000609162000173565b6200006b33620000fc565b600180546001600160a01b0319166001600160a01b0385811691821790925583821660805290821660a052604051620000a4906200014c565b6001600160a01b039091168152602001604051809103906000f080158015620000d1573d6000803e3d6000fd5b50600780546001600160a01b0319166001600160a01b039290921691909117905550620001c7915050565b600080546001600160a01b038381166001600160a01b0319831681178455604051919092169283917f8be0079c531659141344cd1fd0a4f28419497f9722a3daafe3b4186f6b6457e09190a35050565b611e4e8062001b9383390190565b6001600160a01b03811681146200017057600080fd5b50565b6000806000606084860312156200018957600080fd5b835162000196816200015a565b6020850151909350620001a9816200015a565b6040850151909250620001bc816200015a565b809150509250925092565b60805160a05161197c620002176000396000818161029c01528181610969015281816109bd0152610ec70152600081816103d701528181610687015281816106db01526113f5015261197c6000f3fe6080604052600436106101ac5760003560e01c806387a8f0a7116100ec578063e3d1704c1161008a578063f6be71d111610064578063f6be71d114610462578063f9020e3314610482578063fc0c546a146104a9578063ff4d1f25146104c957600080fd5b8063e3d1704c14610419578063efd4bde51461042c578063f2fde38b1461044257600080fd5b80639a99e3c5116100c65780639a99e3c514610392578063b168ae9b146103b2578063c54e44eb146103c5578063da499ad0146103f957600080fd5b806387a8f0a7146103345780638da5cb5b146103545780638ddeaf391461037257600080fd5b806344c63eec116101595780634a4a9b02116101335780634a4a9b02146102de5780635b0b8596146102f4578063715018a6146103095780637a81450c1461031e57600080fd5b806344c63eec14610252578063484f4ea91461028a5780634891ad88146102be57600080fd5b80632e1a7d4d1161018a5780632e1a7d4d14610206578063362e496b14610228578063380d831b1461023d57600080fd5b80630fb5a6b4146101b157806313d033c0146101da57806325c57cc6146101f0575b600080fd5b3480156101bd57600080fd5b506101c760065481565b6040519081526020015b60405180910390f35b3480156101e657600080fd5b506101c760055481565b3480156101fc57600080fd5b506101c760085481565b34801561021257600080fd5b50610226610221366004611628565b6104e9565b005b34801561023457600080fd5b5061022661063d565b34801561024957600080fd5b506102266107df565b34801561025e57600080fd5b50600754610272906001600160a01b031681565b6040516001600160a01b0390911681526020016101d1565b34801561029657600080fd5b506102727f000000000000000000000000000000000000000000000000000000000000000081565b3480156102ca57600080fd5b506102266102d9366004611641565b6108b1565b3480156102ea57600080fd5b506101c760035481565b34801561030057600080fd5b5061022661091f565b34801561031557600080fd5b506102266109f4565b34801561032a57600080fd5b506101c760025481565b34801561034057600080fd5b5061022661034f366004611693565b610a48565b34801561036057600080fd5b506000546001600160a01b0316610272565b34801561037e57600080fd5b5061022661038d366004611628565b610dba565b34801561039e57600080fd5b506102266103ad366004611628565b610e07565b6102266103c0366004611702565b610e54565b3480156103d157600080fd5b506102727f000000000000000000000000000000000000000000000000000000000000000081565b34801561040557600080fd5b50610226610414366004611628565b611335565b610226610427366004611702565b611382565b34801561043857600080fd5b506101c760045481565b34801561044e57600080fd5b5061022661045d366004611724565b61142c565b34801561046e57600080fd5b5061022661047d366004611628565b6114f9565b34801561048e57600080fd5b5060095461049c9060ff1681565b6040516101d19190611755565b3480156104b557600080fd5b50600154610272906001600160a01b031681565b3480156104d557600080fd5b506102266104e4366004611628565b611546565b6000546001600160a01b031633146105365760405162461bcd60e51b8152602060048201819052602482015260008051602061195083398151915260448201526064015b60405180910390fd5b600754604051632e1a7d4d60e01b8152600481018390526001600160a01b0390911690632e1a7d4d90602401600060405180830381600087803b15801561057c57600080fd5b505af1158015610590573d6000803e3d6000fd5b50506001546001600160a01b0316915063a9059cbb90506105b96000546001600160a01b031690565b6040516001600160e01b031960e084901b1681526001600160a01b03909116600482015260248101849052604401602060405180830381600087803b15801561060157600080fd5b505af1158015610615573d6000803e3d6000fd5b505050506040513d601f19601f82011682018060405250810190610639919061177d565b5050565b6000546001600160a01b031633146106855760405162461bcd60e51b81526020600482018190526024820152600080516020611950833981519152604482015260640161052d565b7f00000000000000000000000000000000000000000000000000000000000000006001600160a01b031663a9059cbb6106c66000546001600160a01b031690565b6040516370a0823160e01b81523060048201527f00000000000000000000000000000000000000000000000000000000000000006001600160a01b0316906370a08231906024015b60206040518083038186803b15801561072657600080fd5b505afa15801561073a573d6000803e3d6000fd5b505050506040513d601f19601f8201168201806040525081019061075e919061179a565b6040516001600160e01b031960e085901b1681526001600160a01b0390921660048301526024820152604401602060405180830381600087803b1580156107a457600080fd5b505af11580156107b8573d6000803e3d6000fd5b505050506040513d601f19601f820116820180604052508101906107dc919061177d565b50565b6000546001600160a01b031633146108275760405162461bcd60e51b81526020600482018190526024820152600080516020611950833981519152604482015260640161052d565b6007546040805163242f843360e21b815290516108a5926001600160a01b0316916390be10cc916004808301926020929190829003018186803b15801561086d57600080fd5b505afa158015610881573d6000803e3d6000fd5b505050506040513d601f19601f82011682018060405250810190610221919061179a565b6009805460ff19169055565b6000546001600160a01b031633146108f95760405162461bcd60e51b81526020600482018190526024820152600080516020611950833981519152604482015260640161052d565b6009805482919060ff1916600183818111156109175761091761173f565b021790555050565b6000546001600160a01b031633146109675760405162461bcd60e51b81526020600482018190526024820152600080516020611950833981519152604482015260640161052d565b7f00000000000000000000000000000000000000000000000000000000000000006001600160a01b031663a9059cbb6109a86000546001600160a01b031690565b6040516370a0823160e01b81523060048201527f00000000000000000000000000000000000000000000000000000000000000006001600160a01b0316906370a082319060240161070e565b6000546001600160a01b03163314610a3c5760405162461bcd60e51b81526020600482018190526024820152600080516020611950833981519152604482015260640161052d565b610a466000611593565b565b6000546001600160a01b03163314610a905760405162461bcd60e51b81526020600482018190526024820152600080516020611950833981519152604482015260640161052d565b60015482906001600160a01b031663dd62ed3e610ab56000546001600160a01b031690565b6040516001600160e01b031960e084901b1681526001600160a01b03909116600482015230602482015260440160206040518083038186803b158015610afa57600080fd5b505afa158015610b0e573d6000803e3d6000fd5b505050506040513d601f19601f82011682018060405250810190610b32919061179a565b1015610b3d57600080fd5b60408051338152602081018490527fae92ab4b6f8f401ead768d3273e6bb937a13e39827d19c6376e8fd4512a05d9a910160405180910390a18160026000828254610b8891906117c9565b9091555060009050610ba6612710610ba085856115fb565b90611610565b90506000610bb4848361161c565b90508115610c6e576001546001600160a01b03166323b872dd610bdf6000546001600160a01b031690565b6040516001600160e01b031960e084901b1681526001600160a01b03909116600482015233602482015260448101859052606401602060405180830381600087803b158015610c2d57600080fd5b505af1158015610c41573d6000803e3d6000fd5b505050506040513d601f19601f82011682018060405250810190610c65919061177d565b610c6e57600080fd5b6001546001600160a01b03166323b872dd610c916000546001600160a01b031690565b60075460405160e084901b6001600160e01b03191681526001600160a01b0392831660048201529116602482015260448101849052606401602060405180830381600087803b158015610ce357600080fd5b505af1158015610cf7573d6000803e3d6000fd5b505050506040513d601f19601f82011682018060405250810190610d1b919061177d565b610d2457600080fd5b6007546040516317e289e960e01b81526001600160a01b038c81166004830152602482018c9052604482018b9052606482018a90526084820189905287151560a483015260c48201849052909116906317e289e99060e401600060405180830381600087803b158015610d9657600080fd5b505af1158015610daa573d6000803e3d6000fd5b5050505050505050505050505050565b6000546001600160a01b03163314610e025760405162461bcd60e51b81526020600482018190526024820152600080516020611950833981519152604482015260640161052d565b600355565b6000546001600160a01b03163314610e4f5760405162461bcd60e51b81526020600482018190526024820152600080516020611950833981519152604482015260640161052d565b600855565b600160095460ff166001811115610e6d57610e6d61173f565b14610e7757600080fd5b683635c9adc5dea00000821015610e8d57600080fd5b600454610e9a90826117e1565b8214610ea557600080fd5b6040516323b872dd60e01b8152336004820152306024820152604481018390527f00000000000000000000000000000000000000000000000000000000000000006001600160a01b0316906323b872dd906064015b602060405180830381600087803b158015610f1457600080fd5b505af1158015610f28573d6000803e3d6000fd5b505050506040513d601f19601f82011682018060405250810190610f4c919061177d565b610f5557600080fd5b6001546040805163313ce56760e01b815290516000926001600160a01b03169163313ce567916004808301926020929190829003018186803b158015610f9a57600080fd5b505afa158015610fae573d6000803e3d6000fd5b505050506040513d601f19601f82011682018060405250810190610fd29190611800565b610fdd90600a611907565b610fe790836117e1565b60015490915081906001600160a01b031663dd62ed3e61100f6000546001600160a01b031690565b6040516001600160e01b031960e084901b1681526001600160a01b03909116600482015230602482015260440160206040518083038186803b15801561105457600080fd5b505afa158015611068573d6000803e3d6000fd5b505050506040513d601f19601f8201168201806040525081019061108c919061179a565b101561109757600080fd5b60408051338152602081018490527fae92ab4b6f8f401ead768d3273e6bb937a13e39827d19c6376e8fd4512a05d9a910160405180910390a181600260008282546110e291906117c9565b925050819055506000611106612710610ba0600854856115fb90919063ffffffff16565b90506000611114838361161c565b905081156111ce576001546001600160a01b03166323b872dd61113f6000546001600160a01b031690565b6040516001600160e01b031960e084901b1681526001600160a01b03909116600482015233602482015260448101859052606401602060405180830381600087803b15801561118d57600080fd5b505af11580156111a1573d6000803e3d6000fd5b505050506040513d601f19601f820116820180604052508101906111c5919061177d565b6111ce57600080fd5b6001546001600160a01b03166323b872dd6111f16000546001600160a01b031690565b60075460405160e084901b6001600160e01b03191681526001600160a01b0392831660048201529116602482015260448101849052606401602060405180830381600087803b15801561124357600080fd5b505af1158015611257573d6000803e3d6000fd5b505050506040513d601f19601f8201168201806040525081019061127b919061177d565b61128457600080fd5b6007546001600160a01b03166317e289e96112a76000546001600160a01b031690565b6005546006546040516001600160e01b031960e086901b1681526001600160a01b0390931660048401524260248401526044830191909152606482015260016084820152600060a482015260c4810184905260e401600060405180830381600087803b15801561131657600080fd5b505af115801561132a573d6000803e3d6000fd5b505050505050505050565b6000546001600160a01b0316331461137d5760405162461bcd60e51b81526020600482018190526024820152600080516020611950833981519152604482015260640161052d565b600455565b600160095460ff16600181111561139b5761139b61173f565b146113a557600080fd5b683635c9adc5dea000008210156113bb57600080fd5b6004546113c890826117e1565b82146113d357600080fd5b6040516323b872dd60e01b8152336004820152306024820152604481018390527f00000000000000000000000000000000000000000000000000000000000000006001600160a01b0316906323b872dd90606401610efa565b6000546001600160a01b031633146114745760405162461bcd60e51b81526020600482018190526024820152600080516020611950833981519152604482015260640161052d565b6001600160a01b0381166114f05760405162461bcd60e51b815260206004820152602660248201527f4f776e61626c653a206e6577206f776e657220697320746865207a65726f206160448201527f6464726573730000000000000000000000000000000000000000000000000000606482015260840161052d565b6107dc81611593565b6000546001600160a01b031633146115415760405162461bcd60e51b81526020600482018190526024820152600080516020611950833981519152604482015260640161052d565b600655565b6000546001600160a01b0316331461158e5760405162461bcd60e51b81526020600482018190526024820152600080516020611950833981519152604482015260640161052d565b600555565b600080546001600160a01b038381167fffffffffffffffffffffffff0000000000000000000000000000000000000000831681178455604051919092169283917f8be0079c531659141344cd1fd0a4f28419497f9722a3daafe3b4186f6b6457e09190a35050565b600061160782846117e1565b90505b92915050565b60006116078284611916565b60006116078284611938565b60006020828403121561163a57600080fd5b5035919050565b60006020828403121561165357600080fd5b81356002811061166257600080fd5b9392505050565b80356001600160a01b038116811461168057600080fd5b919050565b80151581146107dc57600080fd5b600080600080600080600080610100898b0312156116b057600080fd5b6116b989611669565b97506020890135965060408901359550606089013594506080890135935060a08901356116e581611685565b979a969950949793969295929450505060c08201359160e0013590565b6000806040838503121561171557600080fd5b50508035926020909101359150565b60006020828403121561173657600080fd5b61160782611669565b634e487b7160e01b600052602160045260246000fd5b602081016002831061177757634e487b7160e01b600052602160045260246000fd5b91905290565b60006020828403121561178f57600080fd5b815161166281611685565b6000602082840312156117ac57600080fd5b5051919050565b634e487b7160e01b600052601160045260246000fd5b600082198211156117dc576117dc6117b3565b500190565b60008160001904831182151516156117fb576117fb6117b3565b500290565b60006020828403121561181257600080fd5b815160ff8116811461166257600080fd5b600181815b8085111561185e578160001904821115611844576118446117b3565b8085161561185157918102915b93841c9390800290611828565b509250929050565b6000826118755750600161160a565b816118825750600061160a565b816001811461189857600281146118a2576118be565b600191505061160a565b60ff8411156118b3576118b36117b3565b50506001821b61160a565b5060208310610133831016604e8410600b84101617156118e1575081810a61160a565b6118eb8383611823565b80600019048211156118ff576118ff6117b3565b029392505050565b600061160760ff841683611866565b60008261193357634e487b7160e01b600052601260045260246000fd5b500490565b60008282101561194a5761194a6117b3565b50039056fe4f776e61626c653a2063616c6c6572206973206e6f7420746865206f776e6572a164736f6c6343000809000a60a06040523480156200001157600080fd5b5060405162001e4e38038062001e4e8339810160408190526200003491620000b9565b6200003f3362000069565b600180556001600160a01b0381166200005757600080fd5b6001600160a01b0316608052620000eb565b600080546001600160a01b038381166001600160a01b0319831681178455604051919092169283917f8be0079c531659141344cd1fd0a4f28419497f9722a3daafe3b4186f6b6457e09190a35050565b600060208284031215620000cc57600080fd5b81516001600160a01b0381168114620000e457600080fd5b9392505050565b608051611d326200011c6000396000818161018f01528181610afb01528181610dc40152610fbf0152611d326000f3fe6080604052600436106101335760003560e01c80638af104da116100b4578063ea1bb3d51161006e578063f51321d711610056578063f51321d7146103a9578063f7c469f0146103c9578063f9079b371461043e57005b8063ea1bb3d514610369578063f2fde38b1461038957005b806390be10cc1161009c57806390be10cc146103145780639ef346b414610329578063b75c7dc61461034957005b80638af104da146102945780638da5cb5b146102f657005b806348deb4711161010557806366afd8ef116100ed57806366afd8ef14610232578063715018a6146102525780637e913dc61461026757005b806348deb471146101e75780635a7bb69a146101fc57005b8063130836171461013c57806317e289e91461016057806321df0da7146101805780632e1a7d4d146101c757005b3661013a57005b005b34801561014857600080fd5b506002545b6040519081526020015b60405180910390f35b34801561016c57600080fd5b5061013a61017b366004611a62565b61045e565b34801561018c57600080fd5b507f00000000000000000000000000000000000000000000000000000000000000005b6040516001600160a01b039091168152602001610157565b3480156101d357600080fd5b5061013a6101e2366004611ac9565b610944565b3480156101f357600080fd5b5060045461014d565b34801561020857600080fd5b5061014d610217366004611ae2565b6001600160a01b031660009081526005602052604090205490565b34801561023e57600080fd5b5061013a61024d366004611afd565b610b29565b34801561025e57600080fd5b5061013a610df9565b34801561027357600080fd5b50610287610282366004611ae2565b610e5f565b6040516101579190611b1f565b3480156102a057600080fd5b5061014d6102af366004611baa565b6040516bffffffffffffffffffffffff19606084901b1660208201526034810182905260009060540160405160208183030381529060405280519060200120905092915050565b34801561030257600080fd5b506000546001600160a01b03166101af565b34801561032057600080fd5b5061014d610f94565b34801561033557600080fd5b50610287610344366004611ac9565b611044565b34801561035557600080fd5b5061013a610364366004611ac9565b611148565b34801561037557600080fd5b5061014d610384366004611ac9565b611358565b34801561039557600080fd5b5061013a6103a4366004611ae2565b611442565b3480156103b557600080fd5b506102876103c4366004611baa565b611524565b3480156103d557600080fd5b5061014d6103e4366004611ae2565b6001600160a01b0381166000908152600560209081526040808320548151606086901b6bffffffffffffffffffffffff19168185015260348082019290925282518082039092018252605401909152805191012092915050565b34801561044a57600080fd5b5061014d610459366004611ac9565b6115d9565b6000546001600160a01b031633146104bd5760405162461bcd60e51b815260206004820181905260248201527f4f776e61626c653a2063616c6c6572206973206e6f7420746865206f776e657260448201526064015b60405180910390fd5b80306001600160a01b03166390be10cc6040518163ffffffff1660e01b815260040160206040518083038186803b1580156104f757600080fd5b505afa15801561050b573d6000803e3d6000fd5b505050506040513d601f19601f8201168201806040525081019061052f9190611bd4565b10156105c95760405162461bcd60e51b815260206004820152604a60248201527f546f6b656e56657374696e673a2063616e6e6f7420637265617465207665737460448201527f696e67207363686564756c652062656361757365206e6f74207375666669636960648201527f656e7420746f6b656e7300000000000000000000000000000000000000000000608482015260a4016104b4565b600084116106245760405162461bcd60e51b815260206004820152602260248201527f546f6b656e56657374696e673a206475726174696f6e206d757374206265203e604482015261020360f41b60648201526084016104b4565b600081116106745760405162461bcd60e51b815260206004820181905260248201527f546f6b656e56657374696e673a20616d6f756e74206d757374206265203e203060448201526064016104b4565b60018310156106eb5760405162461bcd60e51b815260206004820152602d60248201527f546f6b656e56657374696e673a20736c696365506572696f645365636f6e647360448201527f206d757374206265203e3d20310000000000000000000000000000000000000060648201526084016104b4565b604051630f7c469f60e41b81526001600160a01b0388166004820152600090309063f7c469f09060240160206040518083038186803b15801561072d57600080fd5b505afa158015610741573d6000803e3d6000fd5b505050506040513d601f19601f820116820180604052508101906107659190611bd4565b905060006107738888611661565b90506040518061014001604052806001151581526020018a6001600160a01b03168152602001828152602001898152602001878152602001868152602001851515815260200184815260200160008152602001600015158152506003600084815260200190815260200160002060008201518160000160006101000a81548160ff02191690831515021790555060208201518160000160016101000a8154816001600160a01b0302191690836001600160a01b0316021790555060408201518160010155606082015181600201556080820151816003015560a0820151816004015560c08201518160050160006101000a81548160ff02191690831515021790555060e0820151816006015561010082015181600701556101208201518160080160006101000a81548160ff0219169083151502179055509050506108c38360045461166190919063ffffffff16565b6004556002805460018181019092557f405787fa12a823e0f2b7631cc41b3ba8828b3321ca811111fa75cd3aa3bb5ace018390556001600160a01b038a166000908152600560205260409020549061091c908290611661565b6001600160a01b03909a16600090815260056020526040902099909955505050505050505050565b600260015414156109975760405162461bcd60e51b815260206004820152601f60248201527f5265656e7472616e637947756172643a207265656e7472616e742063616c6c0060448201526064016104b4565b60026001556000546001600160a01b031633146109f65760405162461bcd60e51b815260206004820181905260248201527f4f776e61626c653a2063616c6c6572206973206e6f7420746865206f776e657260448201526064016104b4565b80306001600160a01b03166390be10cc6040518163ffffffff1660e01b815260040160206040518083038186803b158015610a3057600080fd5b505afa158015610a44573d6000803e3d6000fd5b505050506040513d601f19601f82011682018060405250810190610a689190611bd4565b1015610adc5760405162461bcd60e51b815260206004820152602b60248201527f546f6b656e56657374696e673a206e6f7420656e6f756768207769746864726160448201527f7761626c652066756e647300000000000000000000000000000000000000000060648201526084016104b4565b610b22610af16000546001600160a01b031690565b6001600160a01b037f000000000000000000000000000000000000000000000000000000000000000016908361166d565b5060018055565b60026001541415610b7c5760405162461bcd60e51b815260206004820152601f60248201527f5265656e7472616e637947756172643a207265656e7472616e742063616c6c0060448201526064016104b4565b60026001908155600083815260036020526040902054839160ff909116151514610ba557600080fd5b60008181526003602052604090206008015460ff1615610bc457600080fd5b6000838152600360205260408120805491549091336001600160a01b03610100909204821681149291909116148180610bfa5750805b610c775760405162461bcd60e51b815260206004820152604260248201527f546f6b656e56657374696e673a206f6e6c792062656e6566696369617279206160448201527f6e64206f776e65722063616e2072656c656173652076657374656420746f6b656064820152616e7360f01b608482015260a4016104b4565b6040805161014081018252845460ff808216151583526001600160a01b03610100928390041660208401526001870154938301939093526002860154606083015260038601546080830152600486015460a083015260058601548316151560c0830152600686015460e083015260078601549082015260088501549091161515610120820152600090610d09906116d9565b905085811015610d815760405162461bcd60e51b815260206004820152603d60248201527f546f6b656e56657374696e673a2063616e6e6f742072656c6561736520746f6b60448201527f656e732c206e6f7420656e6f7567682076657374656420746f6b656e7300000060648201526084016104b4565b6007840154610d909087611661565b600785015583546004546101009091046001600160a01b031690610db490886117bc565b600455610deb6001600160a01b037f000000000000000000000000000000000000000000000000000000000000000016828961166d565b505060018055505050505050565b6000546001600160a01b03163314610e535760405162461bcd60e51b815260206004820181905260248201527f4f776e61626c653a2063616c6c6572206973206e6f7420746865206f776e657260448201526064016104b4565b610e5d60006117c8565b565b610ec460405180610140016040528060001515815260200160006001600160a01b031681526020016000815260200160008152602001600081526020016000815260200160001515815260200160008152602001600081526020016000151581525090565b6001600160a01b03821660009081526005602052604081205460039190610ef39085906102af90600190611c03565b81526020808201929092526040908101600020815161014081018352815460ff808216151583526001600160a01b036101009283900416958301959095526001830154938201939093526002820154606082015260038201546080820152600482015460a082015260058201548416151560c0820152600682015460e082015260078201549281019290925260080154909116151561012082015292915050565b600480546040516370a0823160e01b8152309281019290925260009161103f91906001600160a01b037f000000000000000000000000000000000000000000000000000000000000000016906370a082319060240160206040518083038186803b15801561100157600080fd5b505afa158015611015573d6000803e3d6000fd5b505050506040513d601f19601f820116820180604052508101906110399190611bd4565b906117bc565b905090565b6110a960405180610140016040528060001515815260200160006001600160a01b031681526020016000815260200160008152602001600081526020016000815260200160001515815260200160008152602001600081526020016000151581525090565b50600090815260036020818152604092839020835161014081018552815460ff808216151583526001600160a01b0361010092839004169483019490945260018301549582019590955260028201546060820152928101546080840152600481015460a084015260058101548216151560c0840152600681015460e0840152600781015493830193909352600890920154909116151561012082015290565b6000546001600160a01b031633146111a25760405162461bcd60e51b815260206004820181905260248201527f4f776e61626c653a2063616c6c6572206973206e6f7420746865206f776e657260448201526064016104b4565b600081815260036020526040902054819060ff1615156001146111c457600080fd5b60008181526003602052604090206008015460ff16156111e357600080fd5b6000828152600360205260409020600581015460ff1615156001146112705760405162461bcd60e51b815260206004820152602660248201527f546f6b656e56657374696e673a2076657374696e67206973206e6f742072657660448201527f6f6361626c65000000000000000000000000000000000000000000000000000060648201526084016104b4565b6040805161014081018252825460ff808216151583526001600160a01b03610100928390041660208401526001850154938301939093526002840154606083015260038401546080830152600484015460a083015260058401548316151560c0830152600684015460e083015260078401549082015260088301549091161515610120820152600090611302906116d9565b90508015611314576113148482610b29565b6000611331836007015484600601546117bc90919063ffffffff16565b60045490915061134190826117bc565b6004555050600801805460ff191660011790555050565b600081815260036020526040812054829060ff16151560011461137a57600080fd5b60008181526003602052604090206008015460ff161561139957600080fd5b600083815260036020818152604092839020835161014081018552815460ff808216151583526001600160a01b0361010092839004169483019490945260018301549582019590955260028201546060820152928101546080840152600481015460a084015260058101548216151560c0840152600681015460e0840152600781015493830193909352600883015416151561012082015261143a906116d9565b949350505050565b6000546001600160a01b0316331461149c5760405162461bcd60e51b815260206004820181905260248201527f4f776e61626c653a2063616c6c6572206973206e6f7420746865206f776e657260448201526064016104b4565b6001600160a01b0381166115185760405162461bcd60e51b815260206004820152602660248201527f4f776e61626c653a206e6577206f776e657220697320746865207a65726f206160448201527f646472657373000000000000000000000000000000000000000000000000000060648201526084016104b4565b611521816117c8565b50565b61158960405180610140016040528060001515815260200160006001600160a01b031681526020016000815260200160008152602001600081526020016000815260200160001515815260200160008152602001600081526020016000151581525090565b60408051606085901b6bffffffffffffffffffffffff1916602080830191909152603480830186905283518084039091018152605490920190925280519101206115d290611044565b9392505050565b60006115e460025490565b821061163c5760405162461bcd60e51b815260206004820152602160248201527f546f6b656e56657374696e673a20696e646578206f7574206f6620626f756e646044820152607360f81b60648201526084016104b4565b6002828154811061164f5761164f611c1a565b90600052602060002001549050919050565b60006115d28284611c30565b604080516001600160a01b038416602482015260448082018490528251808303909101815260649091019091526020810180517bffffffffffffffffffffffffffffffffffffffffffffffffffffffff1663a9059cbb60e01b1790526116d4908490611830565b505050565b604081015160009042908110806116f7575061012083015115156001145b156117055750600092915050565b6080830151606084015161171891611661565b81106117325761010083015160e08401516115d2916117bc565b600061174b8460600151836117bc90919063ffffffff16565b60a0850151909150600061175f8383611915565b9050600061176d8284611921565b905060006117968860800151611790848b60e0015161192190919063ffffffff16565b90611915565b90506117b0886101000151826117bc90919063ffffffff16565b98975050505050505050565b60006115d28284611c03565b600080546001600160a01b038381167fffffffffffffffffffffffff0000000000000000000000000000000000000000831681178455604051919092169283917f8be0079c531659141344cd1fd0a4f28419497f9722a3daafe3b4186f6b6457e09190a35050565b6000611885826040518060400160405280602081526020017f5361666545524332303a206c6f772d6c6576656c2063616c6c206661696c6564815250856001600160a01b031661192d9092919063ffffffff16565b8051909150156116d457808060200190518101906118a39190611c48565b6116d45760405162461bcd60e51b815260206004820152602a60248201527f5361666545524332303a204552433230206f7065726174696f6e20646964206e60448201527f6f7420737563636565640000000000000000000000000000000000000000000060648201526084016104b4565b60006115d28284611c65565b60006115d28284611c87565b606061143a848460008585843b6119865760405162461bcd60e51b815260206004820152601d60248201527f416464726573733a2063616c6c20746f206e6f6e2d636f6e747261637400000060448201526064016104b4565b600080866001600160a01b031685876040516119a29190611cd6565b60006040518083038185875af1925050503d80600081146119df576040519150601f19603f3d011682016040523d82523d6000602084013e6119e4565b606091505b50915091506119f48282866119ff565b979650505050505050565b60608315611a0e5750816115d2565b825115611a1e5782518084602001fd5b8160405162461bcd60e51b81526004016104b49190611cf2565b80356001600160a01b0381168114611a4f57600080fd5b919050565b801515811461152157600080fd5b600080600080600080600060e0888a031215611a7d57600080fd5b611a8688611a38565b96506020880135955060408801359450606088013593506080880135925060a0880135611ab281611a54565b8092505060c0880135905092959891949750929550565b600060208284031215611adb57600080fd5b5035919050565b600060208284031215611af457600080fd5b6115d282611a38565b60008060408385031215611b1057600080fd5b50508035926020909101359150565b81511515815261014081016020830151611b4460208401826001600160a01b03169052565b5060408301516040830152606083015160608301526080830151608083015260a083015160a083015260c0830151611b8060c084018215159052565b5060e083810151908301526101008084015190830152610120928301511515929091019190915290565b60008060408385031215611bbd57600080fd5b611bc683611a38565b946020939093013593505050565b600060208284031215611be657600080fd5b5051919050565b634e487b7160e01b600052601160045260246000fd5b600082821015611c1557611c15611bed565b500390565b634e487b7160e01b600052603260045260246000fd5b60008219821115611c4357611c43611bed565b500190565b600060208284031215611c5a57600080fd5b81516115d281611a54565b600082611c8257634e487b7160e01b600052601260045260246000fd5b500490565b6000816000190483118215151615611ca157611ca1611bed565b500290565b60005b83811015611cc1578181015183820152602001611ca9565b83811115611cd0576000848401525b50505050565b60008251611ce8818460208701611ca6565b9190910192915050565b6020815260008251806020840152611d11816040850160208701611ca6565b601f01601f1916919091016040019291505056fea164736f6c6343000809000a",
  "devdoc": {
    "kind": "dev",
    "methods": {
      "owner()": {
        "details": "Returns the address of the current owner."
      },
      "renounceOwnership()": {
        "details": "Leaves the contract without owner. It will not be possible to call `onlyOwner` functions anymore. Can only be called by the current owner. NOTE: Renouncing ownership will leave the contract without an owner, thereby removing any functionality that is only available to the owner."
      },
      "transferOwnership(address)": {
        "details": "Transfers ownership of the contract to a new account (`newOwner`). Can only be called by the current owner."
      }
    },
    "title": "TokenSale Contract",
    "version": 1
  },
  "userdoc": {
    "kind": "user",
    "methods": {},
    "version": 1
  },
  "storageLayout": {
    "storage": [
      {
        "astId": 7,
        "contract": "contracts/TokenSale.sol:TokenSale",
        "label": "_owner",
        "offset": 0,
        "slot": "0",
        "type": "t_address"
      },
      {
        "astId": 1700,
        "contract": "contracts/TokenSale.sol:TokenSale",
        "label": "token",
        "offset": 0,
        "slot": "1",
        "type": "t_contract(IERC20)768"
      },
      {
        "astId": 1702,
        "contract": "contracts/TokenSale.sol:TokenSale",
        "label": "coinsSold",
        "offset": 0,
        "slot": "2",
        "type": "t_uint256"
      },
      {
        "astId": 1715,
        "contract": "contracts/TokenSale.sol:TokenSale",
        "label": "exchangePriceUSDT",
        "offset": 0,
        "slot": "3",
        "type": "t_uint256"
      },
      {
        "astId": 1718,
        "contract": "contracts/TokenSale.sol:TokenSale",
        "label": "exchangePriceBUSD",
        "offset": 0,
        "slot": "4",
        "type": "t_uint256"
      },
      {
        "astId": 1723,
        "contract": "contracts/TokenSale.sol:TokenSale",
        "label": "cliff",
        "offset": 0,
        "slot": "5",
        "type": "t_uint256"
      },
      {
        "astId": 1728,
        "contract": "contracts/TokenSale.sol:TokenSale",
        "label": "duration",
        "offset": 0,
        "slot": "6",
        "type": "t_uint256"
      },
      {
        "astId": 1731,
        "contract": "contracts/TokenSale.sol:TokenSale",
        "label": "vesting",
        "offset": 0,
        "slot": "7",
        "type": "t_contract(Vesting)3066"
      },
      {
        "astId": 1734,
        "contract": "contracts/TokenSale.sol:TokenSale",
        "label": "availableAtTGE",
        "offset": 0,
        "slot": "8",
        "type": "t_uint256"
      },
      {
        "astId": 1740,
        "contract": "contracts/TokenSale.sol:TokenSale",
        "label": "saleStatus",
        "offset": 0,
        "slot": "9",
        "type": "t_enum(SaleStatus)1737"
      }
    ],
    "types": {
      "t_address": {
        "encoding": "inplace",
        "label": "address",
        "numberOfBytes": "20"
      },
      "t_contract(IERC20)768": {
        "encoding": "inplace",
        "label": "contract IERC20",
        "numberOfBytes": "20"
      },
      "t_contract(Vesting)3066": {
        "encoding": "inplace",
        "label": "contract Vesting",
        "numberOfBytes": "20"
      },
      "t_enum(SaleStatus)1737": {
        "encoding": "inplace",
        "label": "enum TokenSale.SaleStatus",
        "numberOfBytes": "1"
      },
      "t_uint256": {
        "encoding": "inplace",
        "label": "uint256",
        "numberOfBytes": "32"
      }
    }
  }
}