{
  "address": "0x1593c4A354B7Db05850f1A50B51d3f07fDd6534C",
  "abi": [
    {
      "inputs": [
        {
          "internalType": "contract IERC20",
          "name": "_token",
          "type": "address"
        },
        {
          "internalType": "address",
          "name": "_usdt",
          "type": "address"
        },
        {
          "internalType": "address",
          "name": "_busd",
          "type": "address"
        }
      ],
      "stateMutability": "nonpayable",
      "type": "constructor"
    },
    {
      "anonymous": false,
      "inputs": [
        {
          "indexed": true,
          "internalType": "address",
          "name": "previousOwner",
          "type": "address"
        },
        {
          "indexed": true,
          "internalType": "address",
          "name": "newOwner",
          "type": "address"
        }
      ],
      "name": "OwnershipTransferred",
      "type": "event"
    },
    {
      "anonymous": false,
      "inputs": [
        {
          "indexed": false,
          "internalType": "address",
          "name": "buyer",
          "type": "address"
        },
        {
          "indexed": false,
          "internalType": "uint256",
          "name": "amount",
          "type": "uint256"
        }
      ],
      "name": "Sold",
      "type": "event"
    },
    {
      "inputs": [],
      "name": "BUSD",
      "outputs": [
        {
          "internalType": "address",
          "name": "",
          "type": "address"
        }
      ],
      "stateMutability": "view",
      "type": "function"
    },
    {
      "inputs": [],
      "name": "USDT",
      "outputs": [
        {
          "internalType": "address",
          "name": "",
          "type": "address"
        }
      ],
      "stateMutability": "view",
      "type": "function"
    },
    {
      "inputs": [],
      "name": "availableAtTGE",
      "outputs": [
        {
          "internalType": "uint256",
          "name": "",
          "type": "uint256"
        }
      ],
      "stateMutability": "view",
      "type": "function"
    },
    {
      "inputs": [
        {
          "internalType": "uint256",
          "name": "_busdAmount",
          "type": "uint256"
        }
      ],
      "name": "buyTokensUsingBUSD",
      "outputs": [],
      "stateMutability": "nonpayable",
      "type": "function"
    },
    {
      "inputs": [
        {
          "internalType": "uint256",
          "name": "_usdtAmount",
          "type": "uint256"
        }
      ],
      "name": "buyTokensUsingUSDT",
      "outputs": [],
      "stateMutability": "nonpayable",
      "type": "function"
    },
    {
      "inputs": [],
      "name": "coinsSold",
      "outputs": [
        {
          "internalType": "uint256",
          "name": "",
          "type": "uint256"
        }
      ],
      "stateMutability": "view",
      "type": "function"
    },
    {
      "inputs": [
        {
          "internalType": "uint256",
          "name": "_busdAmount",
          "type": "uint256"
        }
      ],
      "name": "computeTokensForBUSD",
      "outputs": [
        {
          "internalType": "uint256",
          "name": "",
          "type": "uint256"
        }
      ],
      "stateMutability": "view",
      "type": "function"
    },
    {
      "inputs": [
        {
          "internalType": "uint256",
          "name": "_usdtAmount",
          "type": "uint256"
        }
      ],
      "name": "computeTokensForUSDT",
      "outputs": [
        {
          "internalType": "uint256",
          "name": "",
          "type": "uint256"
        }
      ],
      "stateMutability": "view",
      "type": "function"
    },
    {
      "inputs": [],
      "name": "duration",
      "outputs": [
        {
          "internalType": "uint256",
          "name": "",
          "type": "uint256"
        }
      ],
      "stateMutability": "view",
      "type": "function"
    },
    {
      "inputs": [],
      "name": "endSale",
      "outputs": [],
      "stateMutability": "nonpayable",
      "type": "function"
    },
    {
      "inputs": [],
      "name": "exchangePriceBUSD",
      "outputs": [
        {
          "internalType": "uint256",
          "name": "",
          "type": "uint256"
        }
      ],
      "stateMutability": "view",
      "type": "function"
    },
    {
      "inputs": [],
      "name": "exchangePriceUSDT",
      "outputs": [
        {
          "internalType": "uint256",
          "name": "",
          "type": "uint256"
        }
      ],
      "stateMutability": "view",
      "type": "function"
    },
    {
      "inputs": [],
      "name": "maxBuyAmountBUSD",
      "outputs": [
        {
          "internalType": "uint256",
          "name": "",
          "type": "uint256"
        }
      ],
      "stateMutability": "view",
      "type": "function"
    },
    {
      "inputs": [],
      "name": "maxBuyAmountUSDT",
      "outputs": [
        {
          "internalType": "uint256",
          "name": "",
          "type": "uint256"
        }
      ],
      "stateMutability": "view",
      "type": "function"
    },
    {
      "inputs": [],
      "name": "minBuyAmountBUSD",
      "outputs": [
        {
          "internalType": "uint256",
          "name": "",
          "type": "uint256"
        }
      ],
      "stateMutability": "view",
      "type": "function"
    },
    {
      "inputs": [],
      "name": "minBuyAmountUSDT",
      "outputs": [
        {
          "internalType": "uint256",
          "name": "",
          "type": "uint256"
        }
      ],
      "stateMutability": "view",
      "type": "function"
    },
    {
      "inputs": [],
      "name": "owner",
      "outputs": [
        {
          "internalType": "address",
          "name": "",
          "type": "address"
        }
      ],
      "stateMutability": "view",
      "type": "function"
    },
    {
      "inputs": [],
      "name": "renounceOwnership",
      "outputs": [],
      "stateMutability": "nonpayable",
      "type": "function"
    },
    {
      "inputs": [
        {
          "internalType": "bytes32",
          "name": "vestingScheduleId",
          "type": "bytes32"
        }
      ],
      "name": "revoke",
      "outputs": [],
      "stateMutability": "nonpayable",
      "type": "function"
    },
    {
      "inputs": [],
      "name": "saleStatus",
      "outputs": [
        {
          "internalType": "enum TokenPreSale.SaleStatus",
          "name": "",
          "type": "uint8"
        }
      ],
      "stateMutability": "view",
      "type": "function"
    },
    {
      "inputs": [
        {
          "internalType": "uint256",
          "name": "_availableAtTGE",
          "type": "uint256"
        }
      ],
      "name": "setAvailableAtTGE",
      "outputs": [],
      "stateMutability": "nonpayable",
      "type": "function"
    },
    {
      "inputs": [
        {
          "internalType": "uint256",
          "name": "_min",
          "type": "uint256"
        },
        {
          "internalType": "uint256",
          "name": "_max",
          "type": "uint256"
        }
      ],
      "name": "setBuyAmountRangeBUSD",
      "outputs": [],
      "stateMutability": "nonpayable",
      "type": "function"
    },
    {
      "inputs": [
        {
          "internalType": "uint256",
          "name": "_min",
          "type": "uint256"
        },
        {
          "internalType": "uint256",
          "name": "_max",
          "type": "uint256"
        }
      ],
      "name": "setBuyAmountRangeUSDT",
      "outputs": [],
      "stateMutability": "nonpayable",
      "type": "function"
    },
    {
      "inputs": [
        {
          "internalType": "uint256",
          "name": "_duration",
          "type": "uint256"
        }
      ],
      "name": "setDuration",
      "outputs": [],
      "stateMutability": "nonpayable",
      "type": "function"
    },
    {
      "inputs": [
        {
          "internalType": "uint256",
          "name": "_busdPrice",
          "type": "uint256"
        }
      ],
      "name": "setExchangePriceBUSD",
      "outputs": [],
      "stateMutability": "nonpayable",
      "type": "function"
    },
    {
      "inputs": [
        {
          "internalType": "uint256",
          "name": "_usdtPrice",
          "type": "uint256"
        }
      ],
      "name": "setExchangePriceUSDT",
      "outputs": [],
      "stateMutability": "nonpayable",
      "type": "function"
    },
    {
      "inputs": [
        {
          "internalType": "uint256",
          "name": "_startTimeStamp",
          "type": "uint256"
        },
        {
          "internalType": "uint256",
          "name": "_cliffDurationForVesting",
          "type": "uint256"
        }
      ],
      "name": "setLaunchTimeInfo",
      "outputs": [],
      "stateMutability": "nonpayable",
      "type": "function"
    },
    {
      "inputs": [
        {
          "internalType": "enum TokenPreSale.SaleStatus",
          "name": "_saleStatus",
          "type": "uint8"
        }
      ],
      "name": "setSaleStatus",
      "outputs": [],
      "stateMutability": "nonpayable",
      "type": "function"
    },
    {
      "inputs": [],
      "name": "timelock",
      "outputs": [
        {
          "internalType": "contract TokenPreTimelock",
          "name": "",
          "type": "address"
        }
      ],
      "stateMutability": "view",
      "type": "function"
    },
    {
      "inputs": [],
      "name": "token",
      "outputs": [
        {
          "internalType": "contract IERC20",
          "name": "",
          "type": "address"
        }
      ],
      "stateMutability": "view",
      "type": "function"
    },
    {
      "inputs": [
        {
          "internalType": "contract IERC20",
          "name": "_token",
          "type": "address"
        },
        {
          "internalType": "uint256",
          "name": "_amount",
          "type": "uint256"
        }
      ],
      "name": "transferAccidentallyLockedTokensInTimeLock",
      "outputs": [],
      "stateMutability": "nonpayable",
      "type": "function"
    },
    {
      "inputs": [
        {
          "internalType": "address",
          "name": "newOwner",
          "type": "address"
        }
      ],
      "name": "transferOwnership",
      "outputs": [],
      "stateMutability": "nonpayable",
      "type": "function"
    },
    {
      "inputs": [],
      "name": "vesting",
      "outputs": [
        {
          "internalType": "contract TokenPreVesting",
          "name": "",
          "type": "address"
        }
      ],
      "stateMutability": "view",
      "type": "function"
    },
    {
      "inputs": [],
      "name": "withdrawBUSD",
      "outputs": [],
      "stateMutability": "nonpayable",
      "type": "function"
    },
    {
      "inputs": [],
      "name": "withdrawETHFromTimeLock",
      "outputs": [],
      "stateMutability": "nonpayable",
      "type": "function"
    },
    {
      "inputs": [
        {
          "internalType": "uint256",
          "name": "_amount",
          "type": "uint256"
        }
      ],
      "name": "withdrawFromVesting",
      "outputs": [],
      "stateMutability": "nonpayable",
      "type": "function"
    },
    {
      "inputs": [],
      "name": "withdrawUSDT",
      "outputs": [],
      "stateMutability": "nonpayable",
      "type": "function"
    }
  ],
  "transactionHash": "0x6697e88f6784a9f04bf287bfe286303b725bff0b487f78841ec819324992a78b",
  "args": [
    "0xA1268DB9644b5f3ca11837b149e3624D97EFDF53",
    "0xd4e01531ed88E4099b1bFAE0116Df77cE2178542",
    "0x4Ce1DE91831348b140e4494b116bA1956f84Df2A"
  ],
  "numDeployments": 1,
  "bytecode": "0x60c06040526701aa535d3d0c00006003556701aa535d3d0c00006004556302c7ea00600555678ac7230489e8000060065569021e19e0c9bab2400000600755678ac7230489e8000060085569021e19e0c9bab240000060095560c8600c553480156200006a57600080fd5b5060405162006173380380620061738339810160408190526200008d916200020c565b620000983362000187565b600180546001600160a01b0319166001600160a01b0385811691821790925583821660805290821660a052604051620000d190620001d7565b6001600160a01b039091168152602001604051809103906000f080158015620000fe573d6000803e3d6000fd5b50600a80546001600160a01b0319166001600160a01b039283161790556001546040519116906200012f90620001e5565b6001600160a01b039091168152602001604051809103906000f0801580156200015c573d6000803e3d6000fd5b50600b80546001600160a01b0319166001600160a01b03929092169190911790555062000260915050565b600080546001600160a01b038381166001600160a01b0319831681178455604051919092169283917f8be0079c531659141344cd1fd0a4f28419497f9722a3daafe3b4186f6b6457e09190a35050565b6122cd806200227383390190565b611c33806200454083390190565b6001600160a01b03811681146200020957600080fd5b50565b6000806000606084860312156200022257600080fd5b83516200022f81620001f3565b60208501519093506200024281620001f3565b60408501519092506200025581620001f3565b809150509250925092565b60805160a051611fa7620002cc600039600081816102f601528181610959015281816109e50152818161197801528181611a1f0152611aeb015260008181610415015281816105bc01528181610648015281816110660152818161110d01526111d90152611fa76000f3fe608060405234801561001057600080fd5b50600436106102775760003560e01c80639a99e3c511610160578063da499ad0116100d8578063f3fe48091161008c578063f9020e3311610071578063f9020e33146104ce578063fc0c546a146104e8578063fcdaa6b1146104fb57600080fd5b8063f3fe4809146104a8578063f6be71d1146104bb57600080fd5b8063ed5eceef116100bd578063ed5eceef14610479578063efd4bde51461048c578063f2fde38b1461049557600080fd5b8063da499ad014610453578063ec41f7dd1461046657600080fd5b8063b937f1e01161012f578063c54e44eb11610114578063c54e44eb14610410578063d00eea8414610437578063d33219b41461044057600080fd5b8063b937f1e0146103f4578063ba7d837b1461040757600080fd5b80639a99e3c5146103b35780639ce0e2ac146103c6578063a5dee4eb146103ce578063b75c7dc6146103e157600080fd5b80635b0b8596116101f35780637a81450c116101c25780638da5cb5b116101a75780638da5cb5b146103865780638ddeaf391461039757806396ce3532146103aa57600080fd5b80637a81450c1461036a578063879b60ee1461037357600080fd5b80635b0b859614610334578063715018a61461033c5780637540cd631461034457806377cdf9571461035757600080fd5b8063380d831b1161024a578063484f4ea91161022f578063484f4ea9146102f15780634891ad88146103185780634a4a9b021461032b57600080fd5b8063380d831b146102be57806344c63eec146102c657600080fd5b80630e6a2f0a1461027c5780630fb5a6b41461029157806325c57cc6146102ad578063362e496b146102b6575b600080fd5b61028f61028a366004611cae565b610504565b005b61029a60055481565b6040519081526020015b60405180910390f35b61029a600c5481565b61028f61055c565b61028f61070c565b600a546102d9906001600160a01b031681565b6040516001600160a01b0390911681526020016102a4565b6102d97f000000000000000000000000000000000000000000000000000000000000000081565b61028f610326366004611cd0565b61088b565b61029a60035481565b61028f6108f9565b61028f610a24565b61029a610352366004611cf1565b610a78565b61029a610365366004611cf1565b610b31565b61029a60025481565b61028f610381366004611d1f565b610bcf565b6000546001600160a01b03166102d9565b61028f6103a5366004611cf1565b610d23565b61029a60075481565b61028f6103c1366004611cf1565b610d70565b61028f610dbd565b61028f6103dc366004611cf1565b610e90565b61028f6103ef366004611cf1565b610f5b565b61028f610402366004611cf1565b611004565b61029a60095481565b6102d97f000000000000000000000000000000000000000000000000000000000000000081565b61029a60085481565b600b546102d9906001600160a01b031681565b61028f610461366004611cf1565b61169a565b61028f610474366004611cae565b6116e7565b61028f610487366004611cae565b61173a565b61029a60045481565b61028f6104a3366004611d4b565b611849565b61028f6104b6366004611cf1565b611916565b61028f6104c9366004611cf1565b611bcc565b600d546104db9060ff1681565b6040516102a49190611d7e565b6001546102d9906001600160a01b031681565b61029a60065481565b6000546001600160a01b031633146105515760405162461bcd60e51b81526020600482018190526024820152600080516020611f7b83398151915260448201526064015b60405180910390fd5b600891909155600955565b6000546001600160a01b031633146105a45760405162461bcd60e51b81526020600482018190526024820152600080516020611f7b8339815191526044820152606401610548565b6040516370a0823160e01b81523060048201526000907f00000000000000000000000000000000000000000000000000000000000000006001600160a01b0316906370a082319060240160206040518083038186803b15801561060657600080fd5b505afa15801561061a573d6000803e3d6000fd5b505050506040513d601f19601f8201168201806040525081019061063e9190611da6565b90508015610709577f00000000000000000000000000000000000000000000000000000000000000006001600160a01b031663a9059cbb6106876000546001600160a01b031690565b6040516001600160e01b031960e084901b1681526001600160a01b03909116600482015260248101849052604401602060405180830381600087803b1580156106cf57600080fd5b505af11580156106e3573d6000803e3d6000fd5b505050506040513d601f19601f820116820180604052508101906107079190611dbf565b505b50565b6000546001600160a01b031633146107545760405162461bcd60e51b81526020600482018190526024820152600080516020611f7b8339815191526044820152606401610548565b600d805460ff19169055600a546040805163242f843360e21b815290516000926001600160a01b0316916390be10cc916004808301926020929190829003018186803b1580156107a357600080fd5b505afa1580156107b7573d6000803e3d6000fd5b505050506040513d601f19601f820116820180604052508101906107db9190611da6565b9050801561086157600a546040805163242f843360e21b81529051610861926001600160a01b0316916390be10cc916004808301926020929190829003018186803b15801561082957600080fd5b505afa15801561083d573d6000803e3d6000fd5b505050506040513d601f19601f820116820180604052508101906103dc9190611da6565b600b546001600160a01b0316311561087b5761087b610dbd565b6108836108f9565b61070961055c565b6000546001600160a01b031633146108d35760405162461bcd60e51b81526020600482018190526024820152600080516020611f7b8339815191526044820152606401610548565b600d805482919060ff1916600183818111156108f1576108f1611d68565b021790555050565b6000546001600160a01b031633146109415760405162461bcd60e51b81526020600482018190526024820152600080516020611f7b8339815191526044820152606401610548565b6040516370a0823160e01b81523060048201526000907f00000000000000000000000000000000000000000000000000000000000000006001600160a01b0316906370a082319060240160206040518083038186803b1580156109a357600080fd5b505afa1580156109b7573d6000803e3d6000fd5b505050506040513d601f19601f820116820180604052508101906109db9190611da6565b90508015610709577f00000000000000000000000000000000000000000000000000000000000000006001600160a01b031663a9059cbb6106876000546001600160a01b031690565b6000546001600160a01b03163314610a6c5760405162461bcd60e51b81526020600482018190526024820152600080516020611f7b8339815191526044820152606401610548565b610a766000611c19565b565b600080600160009054906101000a90046001600160a01b03166001600160a01b031663313ce5676040518163ffffffff1660e01b815260040160206040518083038186803b158015610ac957600080fd5b505afa158015610add573d6000803e3d6000fd5b505050506040513d601f19601f82011682018060405250810190610b019190611de1565b60ff16905060045481600a610b169190611efe565b610b209085611f0a565b610b2a9190611f29565b9392505050565b600080600160009054906101000a90046001600160a01b03166001600160a01b031663313ce5676040518163ffffffff1660e01b815260040160206040518083038186803b158015610b8257600080fd5b505afa158015610b96573d6000803e3d6000fd5b505050506040513d601f19601f82011682018060405250810190610bba9190611de1565b60ff16905060035481600a610b169190611efe565b6000546001600160a01b03163314610c175760405162461bcd60e51b81526020600482018190526024820152600080516020611f7b8339815191526044820152606401610548565b600b54604051631f4ca4a160e11b81526001600160a01b0384811660048301526024820184905290911690633e99494290604401600060405180830381600087803b158015610c6557600080fd5b505af1158015610c79573d6000803e3d6000fd5b50505050816001600160a01b031663a9059cbb610c9e6000546001600160a01b031690565b6040516001600160e01b031960e084901b1681526001600160a01b03909116600482015260248101849052604401602060405180830381600087803b158015610ce657600080fd5b505af1158015610cfa573d6000803e3d6000fd5b505050506040513d601f19601f82011682018060405250810190610d1e9190611dbf565b505050565b6000546001600160a01b03163314610d6b5760405162461bcd60e51b81526020600482018190526024820152600080516020611f7b8339815191526044820152606401610548565b600355565b6000546001600160a01b03163314610db85760405162461bcd60e51b81526020600482018190526024820152600080516020611f7b8339815191526044820152606401610548565b600c55565b6000546001600160a01b03163314610e055760405162461bcd60e51b81526020600482018190526024820152600080516020611f7b8339815191526044820152606401610548565b600b5460405163c311d04960e01b81526001600160a01b03909116803160048301529063c311d04990602401600060405180830381600087803b158015610e4b57600080fd5b505af1158015610e5f573d6000803e3d6000fd5b50506040513392504780156108fc029250906000818181858888f19350505050158015610709573d6000803e3d6000fd5b6000546001600160a01b03163314610ed85760405162461bcd60e51b81526020600482018190526024820152600080516020611f7b8339815191526044820152606401610548565b600a54604051632e1a7d4d60e01b8152600481018390526001600160a01b0390911690632e1a7d4d90602401600060405180830381600087803b158015610f1e57600080fd5b505af1158015610f32573d6000803e3d6000fd5b50506001546001600160a01b0316915063a9059cbb90506106876000546001600160a01b031690565b6000546001600160a01b03163314610fa35760405162461bcd60e51b81526020600482018190526024820152600080516020611f7b8339815191526044820152606401610548565b600a54604051635bae3ee360e11b8152600481018390526001600160a01b039091169063b75c7dc690602401600060405180830381600087803b158015610fe957600080fd5b505af1158015610ffd573d6000803e3d6000fd5b5050505050565b6001600d5460ff16600181111561101d5761101d611d68565b1461104e5760405162461bcd60e51b81526020600482015260016024820152603160f81b6044820152606401610548565b6040516370a0823160e01b81523060048201526000907f00000000000000000000000000000000000000000000000000000000000000006001600160a01b0316906370a082319060240160206040518083038186803b1580156110b057600080fd5b505afa1580156110c4573d6000803e3d6000fd5b505050506040513d601f19601f820116820180604052508101906110e89190611da6565b6040516323b872dd60e01b8152336004820152306024820152604481018490529091507f00000000000000000000000000000000000000000000000000000000000000006001600160a01b0316906323b872dd90606401602060405180830381600087803b15801561115957600080fd5b505af115801561116d573d6000803e3d6000fd5b505050506040513d601f19601f820116820180604052508101906111919190611dbf565b6111c15760405162461bcd60e51b81526020600482015260016024820152601960f91b6044820152606401610548565b6040516370a0823160e01b81523060048201526000907f00000000000000000000000000000000000000000000000000000000000000006001600160a01b0316906370a082319060240160206040518083038186803b15801561122357600080fd5b505afa158015611237573d6000803e3d6000fd5b505050506040513d601f19601f8201168201806040525081019061125b9190611da6565b905060006112698284611c81565b9050600654811015801561127f57506007548111155b6112af5760405162461bcd60e51b81526020600482015260016024820152603360f81b6044820152606401610548565b60006112ba82610b31565b60015490915081906001600160a01b031663dd62ed3e6112e26000546001600160a01b031690565b6040516001600160e01b031960e084901b1681526001600160a01b03909116600482015230602482015260440160206040518083038186803b15801561132757600080fd5b505afa15801561133b573d6000803e3d6000fd5b505050506040513d601f19601f8201168201806040525081019061135f9190611da6565b10156113915760405162461bcd60e51b81526020600482015260016024820152600d60fa1b6044820152606401610548565b60408051338152602081018390527fae92ab4b6f8f401ead768d3273e6bb937a13e39827d19c6376e8fd4512a05d9a910160405180910390a180600260008282546113dc9190611f4b565b925050819055506000611406612710611400600c5485611c9690919063ffffffff16565b90611ca2565b905060006114148383611c81565b90508115611537576001546001600160a01b03166323b872dd61143f6000546001600160a01b031690565b600b5460405160e084901b6001600160e01b03191681526001600160a01b0392831660048201529116602482015260448101859052606401602060405180830381600087803b15801561149157600080fd5b505af11580156114a5573d6000803e3d6000fd5b505050506040513d601f19601f820116820180604052508101906114c99190611dbf565b6114d257600080fd5b600b546040516366168bd760e01b8152336004820152602481018490526001600160a01b03909116906366168bd790604401600060405180830381600087803b15801561151e57600080fd5b505af1158015611532573d6000803e3d6000fd5b505050505b6001546001600160a01b03166323b872dd61155a6000546001600160a01b031690565b600a5460405160e084901b6001600160e01b03191681526001600160a01b0392831660048201529116602482015260448101849052606401602060405180830381600087803b1580156115ac57600080fd5b505af11580156115c0573d6000803e3d6000fd5b505050506040513d601f19601f820116820180604052508101906115e49190611dbf565b6116145760405162461bcd60e51b81526020600482015260016024820152601b60f91b6044820152606401610548565b600a546005546040516338f5e76f60e01b815233600482015260248101919091526001604482015260006064820152608481018390526001600160a01b03909116906338f5e76f9060a401600060405180830381600087803b15801561167957600080fd5b505af115801561168d573d6000803e3d6000fd5b5050505050505050505050565b6000546001600160a01b031633146116e25760405162461bcd60e51b81526020600482018190526024820152600080516020611f7b8339815191526044820152606401610548565b600455565b6000546001600160a01b0316331461172f5760405162461bcd60e51b81526020600482018190526024820152600080516020611f7b8339815191526044820152606401610548565b600691909155600755565b6000546001600160a01b031633146117825760405162461bcd60e51b81526020600482018190526024820152600080516020611f7b8339815191526044820152606401610548565b600a54604051635d46b8eb60e01b815260048101849052602481018390526001600160a01b0390911690635d46b8eb90604401600060405180830381600087803b1580156117cf57600080fd5b505af11580156117e3573d6000803e3d6000fd5b5050600b5460405163a0a2b57360e01b8152600481018690526001600160a01b03909116925063a0a2b5739150602401600060405180830381600087803b15801561182d57600080fd5b505af1158015611841573d6000803e3d6000fd5b505050505050565b6000546001600160a01b031633146118915760405162461bcd60e51b81526020600482018190526024820152600080516020611f7b8339815191526044820152606401610548565b6001600160a01b03811661190d5760405162461bcd60e51b815260206004820152602660248201527f4f776e61626c653a206e6577206f776e657220697320746865207a65726f206160448201527f64647265737300000000000000000000000000000000000000000000000000006064820152608401610548565b61070981611c19565b6001600d5460ff16600181111561192f5761192f611d68565b146119605760405162461bcd60e51b81526020600482015260016024820152603160f81b6044820152606401610548565b6040516370a0823160e01b81523060048201526000907f00000000000000000000000000000000000000000000000000000000000000006001600160a01b0316906370a082319060240160206040518083038186803b1580156119c257600080fd5b505afa1580156119d6573d6000803e3d6000fd5b505050506040513d601f19601f820116820180604052508101906119fa9190611da6565b6040516323b872dd60e01b8152336004820152306024820152604481018490529091507f00000000000000000000000000000000000000000000000000000000000000006001600160a01b0316906323b872dd90606401602060405180830381600087803b158015611a6b57600080fd5b505af1158015611a7f573d6000803e3d6000fd5b505050506040513d601f19601f82011682018060405250810190611aa39190611dbf565b611ad35760405162461bcd60e51b81526020600482015260016024820152601960f91b6044820152606401610548565b6040516370a0823160e01b81523060048201526000907f00000000000000000000000000000000000000000000000000000000000000006001600160a01b0316906370a082319060240160206040518083038186803b158015611b3557600080fd5b505afa158015611b49573d6000803e3d6000fd5b505050506040513d601f19601f82011682018060405250810190611b6d9190611da6565b90506000611b7b8284611c81565b90506008548110158015611b9157506009548111155b611bc15760405162461bcd60e51b81526020600482015260016024820152603360f81b6044820152606401610548565b60006112ba82610a78565b6000546001600160a01b03163314611c145760405162461bcd60e51b81526020600482018190526024820152600080516020611f7b8339815191526044820152606401610548565b600555565b600080546001600160a01b038381167fffffffffffffffffffffffff0000000000000000000000000000000000000000831681178455604051919092169283917f8be0079c531659141344cd1fd0a4f28419497f9722a3daafe3b4186f6b6457e09190a35050565b6000611c8d8284611f63565b90505b92915050565b6000611c8d8284611f0a565b6000611c8d8284611f29565b60008060408385031215611cc157600080fd5b50508035926020909101359150565b600060208284031215611ce257600080fd5b813560028110610b2a57600080fd5b600060208284031215611d0357600080fd5b5035919050565b6001600160a01b038116811461070957600080fd5b60008060408385031215611d3257600080fd5b8235611d3d81611d0a565b946020939093013593505050565b600060208284031215611d5d57600080fd5b8135610b2a81611d0a565b634e487b7160e01b600052602160045260246000fd5b6020810160028310611da057634e487b7160e01b600052602160045260246000fd5b91905290565b600060208284031215611db857600080fd5b5051919050565b600060208284031215611dd157600080fd5b81518015158114610b2a57600080fd5b600060208284031215611df357600080fd5b815160ff81168114610b2a57600080fd5b634e487b7160e01b600052601160045260246000fd5b600181815b80851115611e55578160001904821115611e3b57611e3b611e04565b80851615611e4857918102915b93841c9390800290611e1f565b509250929050565b600082611e6c57506001611c90565b81611e7957506000611c90565b8160018114611e8f5760028114611e9957611eb5565b6001915050611c90565b60ff841115611eaa57611eaa611e04565b50506001821b611c90565b5060208310610133831016604e8410600b8410161715611ed8575081810a611c90565b611ee28383611e1a565b8060001904821115611ef657611ef6611e04565b029392505050565b6000611c8d8383611e5d565b6000816000190483118215151615611f2457611f24611e04565b500290565b600082611f4657634e487b7160e01b600052601260045260246000fd5b500490565b60008219821115611f5e57611f5e611e04565b500190565b600082821015611f7557611f75611e04565b50039056fe4f776e61626c653a2063616c6c6572206973206e6f7420746865206f776e6572a164736f6c6343000809000a60a06040523480156200001157600080fd5b50604051620022cd380380620022cd83398101604081905262000034916200010f565b6200003f33620000bf565b600180556001600160a01b038116620000ad5760405162461bcd60e51b815260206004820152602660248201527f546f6b656e50726556657374696e673a20746f6b656e2061646472657373206960448201526573207a65726f60d01b606482015260840160405180910390fd5b6001600160a01b031660805262000141565b600080546001600160a01b038381166001600160a01b0319831681178455604051919092169283917f8be0079c531659141344cd1fd0a4f28419497f9722a3daafe3b4186f6b6457e09190a35050565b6000602082840312156200012257600080fd5b81516001600160a01b03811681146200013a57600080fd5b9392505050565b60805161215b62000172600039600081816101c901528181610815015281816112ae0152611463015261215b6000f3fe6080604052600436106101775760003560e01c80638af104da116100ca578063cf6e7fd811610079578063f51321d711610056578063f51321d7146105a4578063f7c469f0146105c4578063f9079b371461063957005b8063cf6e7fd81461053a578063ea1bb3d514610564578063f2fde38b1461058457005b80639ef346b4116100a75780639ef346b414610426578063b75c7dc614610504578063be9a65551461052457005b80638af104da146103915780638da5cb5b146103f357806390be10cc1461041157005b80635a7bb69a1161012657806366afd8ef1161010357806366afd8ef146102cc578063715018a6146102ec5780637e913dc61461030157005b80635a7bb69a146102565780635d46b8eb1461028c57806362fc451a146102ac57005b80632e1a7d4d116101545780632e1a7d4d1461020157806338f5e76f1461022157806348deb4711461024157005b8063130836171461018057806313d033c0146101a457806321df0da7146101ba57005b3661017e57005b005b34801561018c57600080fd5b506005545b6040519081526020015b60405180910390f35b3480156101b057600080fd5b5061019160035481565b3480156101c657600080fd5b507f00000000000000000000000000000000000000000000000000000000000000005b6040516001600160a01b03909116815260200161019b565b34801561020d57600080fd5b5061017e61021c366004611d8e565b610659565b34801561022d57600080fd5b5061017e61023c366004611dd1565b610843565b34801561024d57600080fd5b50600754610191565b34801561026257600080fd5b50610191610271366004611e21565b6001600160a01b031660009081526008602052604090205490565b34801561029857600080fd5b5061017e6102a7366004611e3c565b610d5e565b3480156102b857600080fd5b5061017e6102c7366004611eaa565b610e39565b3480156102d857600080fd5b5061017e6102e7366004611e3c565b61100c565b3480156102f857600080fd5b5061017e6112e3565b34801561030d57600080fd5b5061032161031c366004611e21565b611349565b60405161019b91906000610100820190508251151582526001600160a01b036020840151166020830152604083015160408301526060830151606083015260808301511515608083015260a083015160a083015260c083015160c083015260e0830151151560e083015292915050565b34801561039d57600080fd5b506101916103ac366004611f9b565b6040516bffffffffffffffffffffffff19606084901b1660208201526034810182905260009060540160405160208183030381529060405280519060200120905092915050565b3480156103ff57600080fd5b506000546001600160a01b03166101e9565b34801561041d57600080fd5b5061019161143c565b34801561043257600080fd5b50610321610441366004611d8e565b6040805161010081018252600080825260208201819052918101829052606081018290526080810182905260a0810182905260c0810182905260e08101919091525060009081526006602081815260409283902083516101008082018652825460ff808216151584529190046001600160a01b031693820193909352600182015494810194909452600281015460608501526003810154821615156080850152600481015460a0850152600581015460c08501529091015416151560e082015290565b34801561051057600080fd5b5061017e61051f366004611d8e565b6114e8565b34801561053057600080fd5b5061019160045481565b34801561054657600080fd5b506002546105549060ff1681565b604051901515815260200161019b565b34801561057057600080fd5b5061019161057f366004611d8e565b6116e2565b34801561059057600080fd5b5061017e61059f366004611e21565b6117b4565b3480156105b057600080fd5b506103216105bf366004611f9b565b611896565b3480156105d057600080fd5b506101916105df366004611e21565b6001600160a01b0381166000908152600860209081526040808320548151606086901b6bffffffffffffffffffffffff19168185015260348082019290925282518082039092018252605401909152805191012092915050565b34801561064557600080fd5b50610191610654366004611d8e565b611924565b600260015414156106b15760405162461bcd60e51b815260206004820152601f60248201527f5265656e7472616e637947756172643a207265656e7472616e742063616c6c0060448201526064015b60405180910390fd5b60026001556000546001600160a01b031633146107105760405162461bcd60e51b815260206004820181905260248201527f4f776e61626c653a2063616c6c6572206973206e6f7420746865206f776e657260448201526064016106a8565b80306001600160a01b03166390be10cc6040518163ffffffff1660e01b815260040160206040518083038186803b15801561074a57600080fd5b505afa15801561075e573d6000803e3d6000fd5b505050506040513d601f19601f820116820180604052508101906107829190611fc5565b10156107f65760405162461bcd60e51b815260206004820152602e60248201527f546f6b656e50726556657374696e673a206e6f7420656e6f756768207769746860448201527f6472617761626c652066756e647300000000000000000000000000000000000060648201526084016106a8565b61083c61080b6000546001600160a01b031690565b6001600160a01b037f00000000000000000000000000000000000000000000000000000000000000001690836119ae565b5060018055565b60025460ff16156108a75760405162461bcd60e51b815260206004820152602860248201527f546f6b656e50726556657374696e673a206c61756e63682074696d657374616d6044820152671c081a5cc81cd95d60c21b60648201526084016106a8565b6000546001600160a01b031633146109015760405162461bcd60e51b815260206004820181905260248201527f4f776e61626c653a2063616c6c6572206973206e6f7420746865206f776e657260448201526064016106a8565b80306001600160a01b03166390be10cc6040518163ffffffff1660e01b815260040160206040518083038186803b15801561093b57600080fd5b505afa15801561094f573d6000803e3d6000fd5b505050506040513d601f19601f820116820180604052508101906109739190611fc5565b1015610a0d5760405162461bcd60e51b815260206004820152604d60248201527f546f6b656e50726556657374696e673a2063616e6e6f7420637265617465207660448201527f657374696e67207363686564756c652062656361757365206e6f74207375666660648201527f696369656e7420746f6b656e7300000000000000000000000000000000000000608482015260a4016106a8565b60008411610a835760405162461bcd60e51b815260206004820152602560248201527f546f6b656e50726556657374696e673a206475726174696f6e206d757374206260448201527f65203e203000000000000000000000000000000000000000000000000000000060648201526084016106a8565b60008111610adf5760405162461bcd60e51b815260206004820152602360248201527f546f6b656e50726556657374696e673a20616d6f756e74206d7573742062652060448201526203e20360ec1b60648201526084016106a8565b6001831015610b565760405162461bcd60e51b815260206004820152603060248201527f546f6b656e50726556657374696e673a20736c696365506572696f645365636f60448201527f6e6473206d757374206265203e3d20310000000000000000000000000000000060648201526084016106a8565b604051630f7c469f60e41b81526001600160a01b0386166004820152600090309063f7c469f09060240160206040518083038186803b158015610b9857600080fd5b505afa158015610bac573d6000803e3d6000fd5b505050506040513d601f19601f82011682018060405250810190610bd09190611fc5565b60408051610100808201835260018083526001600160a01b038b811660208086019182528587018d8152606087018d81528c15156080890190815260a089018d8152600060c08b0181815260e08c018281528e83526006978890529c9091209a518b5497517fffffffffffffffffffffff0000000000000000000000000000000000000000009098169015157fffffffffffffffffffffff0000000000000000000000000000000000000000ff161796909716909802949094178855905194870194909455925160028601555160038501805460ff19908116921515929092179055925160048501555160058401559251919092018054909216901515179055600754909150610ce09083611a1a565b6007556005805460018181019092557f036b6384b5eca791c62761152d0c79bb0604c104a5fb6f4eb0703f3154bb3db0018290556001600160a01b03871660009081526008602052604090205490610d39908290611a1a565b6001600160a01b03909716600090815260086020526040902096909655505050505050565b6000546001600160a01b03163314610db85760405162461bcd60e51b815260206004820181905260248201527f4f776e61626c653a2063616c6c6572206973206e6f7420746865206f776e657260448201526064016106a8565b60025460ff1615610e165760405162461bcd60e51b815260206004820152602260248201527f546f6b656e50726556657374696e673a20616c7265616479206c61756e636865604482015261642160f01b60648201526084016106a8565b6002805460ff191660011790556004829055610e328282611a1a565b6003555050565b60025460ff1615610e9d5760405162461bcd60e51b815260206004820152602860248201527f546f6b656e50726556657374696e673a206c61756e63682074696d657374616d6044820152671c081a5cc81cd95d60c21b60648201526084016106a8565b6000546001600160a01b03163314610ef75760405162461bcd60e51b815260206004820181905260248201527f4f776e61626c653a2063616c6c6572206973206e6f7420746865206f776e657260448201526064016106a8565b8887148015610f0557508685145b8015610f1057508483145b8015610f1b57508281145b610f415760405162461bcd60e51b815260206004820152600060248201526044016106a8565b60005b89811015610fff57610fed8b8b83818110610f6157610f61611fde565b9050602002016020810190610f769190611e21565b8a8a84818110610f8857610f88611fde565b90506020020135898985818110610fa157610fa1611fde565b90506020020135888886818110610fba57610fba611fde565b9050602002016020810190610fcf9190611ff4565b878787818110610fe157610fe1611fde565b90506020020135610843565b80610ff781612027565b915050610f44565b5050505050505050505050565b6002600154141561105f5760405162461bcd60e51b815260206004820152601f60248201527f5265656e7472616e637947756172643a207265656e7472616e742063616c6c0060448201526064016106a8565b60026001908155600083815260066020526040902054839160ff90911615151461108857600080fd5b6000818152600660208190526040909120015460ff16156110a857600080fd5b6000838152600660205260408120805491549091336001600160a01b036101009092048216811492919091161481806110de5750805b6111765760405162461bcd60e51b815260206004820152604560248201527f546f6b656e50726556657374696e673a206f6e6c792062656e6566696369617260448201527f7920616e64206f776e65722063616e2072656c6561736520766573746564207460648201527f6f6b656e73000000000000000000000000000000000000000000000000000000608482015260a4016106a8565b604080516101008082018352855460ff808216151584529190046001600160a01b03166020830152600186015492820192909252600285015460608201526003850154821615156080820152600485015460a0820152600585015460c08201526006850154909116151560e08201526000906111f190611a26565b90508581101561126b576040805162461bcd60e51b81526020600482015260248101919091527f546f6b656e50726556657374696e673a2063616e6e6f742072656c656173652060448201527f746f6b656e732c206e6f7420656e6f7567682076657374656420746f6b656e7360648201526084016106a8565b600584015461127a9087611a1a565b600585015583546007546101009091046001600160a01b03169061129e9088611b12565b6007556112d56001600160a01b037f00000000000000000000000000000000000000000000000000000000000000001682896119ae565b505060018055505050505050565b6000546001600160a01b0316331461133d5760405162461bcd60e51b815260206004820181905260248201527f4f776e61626c653a2063616c6c6572206973206e6f7420746865206f776e657260448201526064016106a8565b6113476000611b1e565b565b604080516101008101825260008082526020808301829052828401829052606083018290526080830182905260a0830182905260c0830182905260e083018290526001600160a01b0385168252600890529182205490916006916113b59085906103ac90600190612042565b8152602080820192909252604090810160002081516101008082018452825460ff808216151584529190046001600160a01b031694820194909452600182015492810192909252600281015460608301526003810154831615156080830152600481015460a0830152600581015460c083015260060154909116151560e082015292915050565b6007546040516370a0823160e01b81523060048201526000916114e3916001600160a01b037f000000000000000000000000000000000000000000000000000000000000000016906370a082319060240160206040518083038186803b1580156114a557600080fd5b505afa1580156114b9573d6000803e3d6000fd5b505050506040513d601f19601f820116820180604052508101906114dd9190611fc5565b90611b12565b905090565b6000546001600160a01b031633146115425760405162461bcd60e51b815260206004820181905260248201527f4f776e61626c653a2063616c6c6572206973206e6f7420746865206f776e657260448201526064016106a8565b600081815260066020526040902054819060ff16151560011461156457600080fd5b6000818152600660208190526040909120015460ff161561158457600080fd5b6000828152600660205260409020600381015460ff1615156001146116115760405162461bcd60e51b815260206004820152602960248201527f546f6b656e50726556657374696e673a2076657374696e67206973206e6f742060448201527f7265766f6361626c65000000000000000000000000000000000000000000000060648201526084016106a8565b604080516101008082018352835460ff808216151584529190046001600160a01b03166020830152600184015492820192909252600283015460608201526003830154821615156080820152600483015460a0820152600583015460c08201526006830154909116151560e082015260009061168c90611a26565b9050801561169e5761169e848261100c565b60006116bb83600501548460040154611b1290919063ffffffff16565b6007549091506116cb9082611b12565b6007555050600601805460ff191660011790555050565b600081815260066020526040812054829060ff16151560011461170457600080fd5b6000818152600660208190526040909120015460ff161561172457600080fd5b60008381526006602081815260409283902083516101008082018652825460ff808216151584529190046001600160a01b031693820193909352600182015494810194909452600281015460608501526003810154821615156080850152600481015460a0850152600581015460c08501529182015416151560e0830152906117ac90611a26565b949350505050565b6000546001600160a01b0316331461180e5760405162461bcd60e51b815260206004820181905260248201527f4f776e61626c653a2063616c6c6572206973206e6f7420746865206f776e657260448201526064016106a8565b6001600160a01b03811661188a5760405162461bcd60e51b815260206004820152602660248201527f4f776e61626c653a206e6577206f776e657220697320746865207a65726f206160448201527f646472657373000000000000000000000000000000000000000000000000000060648201526084016106a8565b61189381611b1e565b50565b60408051610100810182526000808252602080830182905282840182905260608084018390526080840183905260a0840183905260c0840183905260e084019290925283519186901b6bffffffffffffffffffffffff1916828201526034808301869052845180840390910181526054909201909352805192019190912061191d90610441565b9392505050565b600061192f60055490565b82106119895760405162461bcd60e51b8152602060048201526024808201527f546f6b656e50726556657374696e673a20696e646578206f7574206f6620626f604482015263756e647360e01b60648201526084016106a8565b6005828154811061199c5761199c611fde565b90600052602060002001549050919050565b604080516001600160a01b038416602482015260448082018490528251808303909101815260649091019091526020810180517bffffffffffffffffffffffffffffffffffffffffffffffffffffffff1663a9059cbb60e01b179052611a15908490611b86565b505050565b600061191d8284612059565b60025460009060ff16611a3b57506000919050565b6003544290811080611a53575060e083015115156001145b15611a615750600092915050565b6040830151600454611a7291611a1a565b8110611a8b5760c083015160a084015161191d91611b12565b6000611aa260045483611b1290919063ffffffff16565b60608501519091506000611ab68383611c6b565b90506000611ac48284611c77565b90506000611aed8860400151611ae7848b60a00151611c7790919063ffffffff16565b90611c6b565b9050611b068860c0015182611b1290919063ffffffff16565b98975050505050505050565b600061191d8284612042565b600080546001600160a01b038381167fffffffffffffffffffffffff0000000000000000000000000000000000000000831681178455604051919092169283917f8be0079c531659141344cd1fd0a4f28419497f9722a3daafe3b4186f6b6457e09190a35050565b6000611bdb826040518060400160405280602081526020017f5361666545524332303a206c6f772d6c6576656c2063616c6c206661696c6564815250856001600160a01b0316611c839092919063ffffffff16565b805190915015611a155780806020019051810190611bf99190612071565b611a155760405162461bcd60e51b815260206004820152602a60248201527f5361666545524332303a204552433230206f7065726174696f6e20646964206e60448201527f6f7420737563636565640000000000000000000000000000000000000000000060648201526084016106a8565b600061191d828461208e565b600061191d82846120b0565b60606117ac848460008585843b611cdc5760405162461bcd60e51b815260206004820152601d60248201527f416464726573733a2063616c6c20746f206e6f6e2d636f6e747261637400000060448201526064016106a8565b600080866001600160a01b03168587604051611cf891906120ff565b60006040518083038185875af1925050503d8060008114611d35576040519150601f19603f3d011682016040523d82523d6000602084013e611d3a565b606091505b5091509150611d4a828286611d55565b979650505050505050565b60608315611d6457508161191d565b825115611d745782518084602001fd5b8160405162461bcd60e51b81526004016106a8919061211b565b600060208284031215611da057600080fd5b5035919050565b80356001600160a01b0381168114611dbe57600080fd5b919050565b801515811461189357600080fd5b600080600080600060a08688031215611de957600080fd5b611df286611da7565b945060208601359350604086013592506060860135611e1081611dc3565b949793965091946080013592915050565b600060208284031215611e3357600080fd5b61191d82611da7565b60008060408385031215611e4f57600080fd5b50508035926020909101359150565b60008083601f840112611e7057600080fd5b50813567ffffffffffffffff811115611e8857600080fd5b6020830191508360208260051b8501011115611ea357600080fd5b9250929050565b60008060008060008060008060008060a08b8d031215611ec957600080fd5b8a3567ffffffffffffffff80821115611ee157600080fd5b611eed8e838f01611e5e565b909c509a5060208d0135915080821115611f0657600080fd5b611f128e838f01611e5e565b909a50985060408d0135915080821115611f2b57600080fd5b611f378e838f01611e5e565b909850965060608d0135915080821115611f5057600080fd5b611f5c8e838f01611e5e565b909650945060808d0135915080821115611f7557600080fd5b50611f828d828e01611e5e565b915080935050809150509295989b9194979a5092959850565b60008060408385031215611fae57600080fd5b611fb783611da7565b946020939093013593505050565b600060208284031215611fd757600080fd5b5051919050565b634e487b7160e01b600052603260045260246000fd5b60006020828403121561200657600080fd5b813561191d81611dc3565b634e487b7160e01b600052601160045260246000fd5b600060001982141561203b5761203b612011565b5060010190565b60008282101561205457612054612011565b500390565b6000821982111561206c5761206c612011565b500190565b60006020828403121561208357600080fd5b815161191d81611dc3565b6000826120ab57634e487b7160e01b600052601260045260246000fd5b500490565b60008160001904831182151516156120ca576120ca612011565b500290565b60005b838110156120ea5781810151838201526020016120d2565b838111156120f9576000848401525b50505050565b600082516121118184602087016120cf565b9190910192915050565b602081526000825180602084015261213a8160408501602087016120cf565b601f01601f1916919091016040019291505056fea164736f6c6343000809000a60a06040523480156200001157600080fd5b5060405162001c3338038062001c3383398101604081905262000034916200012c565b6200003f33620000dc565b6001600160a01b038116620000b25760405162461bcd60e51b815260206004820152602f60248201527f5f65726332305f636f6e74726163745f6164647265737320616464726573732060448201526e63616e206e6f74206265207a65726f60881b606482015260840160405180910390fd5b6001600160a01b0316608052600080546002805460ff1916905561ffff60a01b191690556200015e565b600080546001600160a01b038381166001600160a01b0319831681178455604051919092169283917f8be0079c531659141344cd1fd0a4f28419497f9722a3daafe3b4186f6b6457e09190a35050565b6000602082840312156200013f57600080fd5b81516001600160a01b03811681146200015757600080fd5b9392505050565b608051611ab262000181600039600081816107b60152610aeb0152611ab26000f3fe6080604052600436106101125760003560e01c80638b7afe2e116100a5578063a0a2b57311610074578063d148429811610059578063d1484298146103ac578063d6d14171146103cc578063f2fde38b146103e257600080fd5b8063a0a2b5731461036c578063c311d0491461038c57600080fd5b80638b7afe2e146102e75780638da5cb5b146102fd5780639aa2e39e146103255780639b69279a1461035257600080fd5b80633e994942116100e15780633e9949421461026157806355ce38661461028157806366168bd7146102b2578063715018a6146102d257600080fd5b806302cc6e3f146101d4578063199b6bba146101eb57806327e235e31461020b5780633e79d1e11461024b57600080fd5b366101cf57600054600160a81b900460ff16156101855760405162461bcd60e51b815260206004820152602660248201527f496e636f6d696e67206465706f736974732068617665206265656e2066696e616044820152653634b9b2b21760d11b60648201526084015b60405180910390fd5b6006546101929034610402565b600655604080513381523460208201527f59062170a285eb80e8c6b8ced60428442a51910635005233fc4ce084a475845e910160405180910390a1005b600080fd5b3480156101e057600080fd5b506101e9610415565b005b3480156101f757600080fd5b506101e9610206366004611833565b610578565b34801561021757600080fd5b50610238610226366004611874565b60056020526000908152604090205481565b6040519081526020015b60405180910390f35b34801561025757600080fd5b5061023860035481565b34801561026d57600080fd5b506101e961027c366004611891565b6109db565b34801561028d57600080fd5b506000546102a290600160a81b900460ff1681565b6040519015158152602001610242565b3480156102be57600080fd5b506101e96102cd366004611891565b610bdc565b3480156102de57600080fd5b506101e9610ddd565b3480156102f357600080fd5b5061023860065481565b34801561030957600080fd5b506000546040516001600160a01b039091168152602001610242565b34801561033157600080fd5b50610238610340366004611874565b60046020526000908152604090205481565b34801561035e57600080fd5b506002546102a29060ff1681565b34801561037857600080fd5b506101e96103873660046118bd565b610e43565b34801561039857600080fd5b506101e96103a73660046118bd565b610f21565b3480156103b857600080fd5b506101e96103c7366004611922565b611068565b3480156103d857600080fd5b5061023860015481565b3480156103ee57600080fd5b506101e96103fd366004611874565b6113e8565b600061040e82846119a4565b9392505050565b6000546001600160a01b0316331461046f5760405162461bcd60e51b815260206004820181905260248201527f4f776e61626c653a2063616c6c6572206973206e6f7420746865206f776e6572604482015260640161017c565b60025460ff1615156001146104df5760405162461bcd60e51b815260206004820152603060248201527f506c6561736520736574207468652074696d65207374616d702066697273742c60448201526f103a3432b7103a393c9030b3b0b4b71760811b606482015260840161017c565b600054600160a81b900460ff16156105485760405162461bcd60e51b815260206004820152602660248201527f496e636f6d696e67206465706f736974732068617665206265656e2066696e616044820152653634b9b2b21760d11b606482015260840161017c565b600080547fffffffffffffffffffff00ffffffffffffffffffffffffffffffffffffffffff16600160a81b179055565b60025460ff1615156001146105e85760405162461bcd60e51b815260206004820152603060248201527f506c6561736520736574207468652074696d65207374616d702066697273742c60448201526f103a3432b7103a393c9030b3b0b4b71760811b606482015260840161017c565b600054600160a01b900460ff16156106335760405162461bcd60e51b815260206004820152600e60248201526d4e6f2072652d656e7472616e637960901b604482015260640161017c565b6000805460ff60a01b1916600160a01b1790556001600160a01b0382166106a85760405162461bcd60e51b815260206004820152602360248201527f45524332303a207472616e7366657220746f20746865207a65726f206164647260448201526265737360e81b606482015260840161017c565b6001600160a01b0382166000908152600560205260409020548111156107365760405162461bcd60e51b815260206004820152602d60248201527f496e73756666696369656e7420746f6b656e2062616c616e63652c207472792060448201527f6c657373657220616d6f756e7400000000000000000000000000000000000000606482015260840161017c565b336001600160a01b038316146107b45760405162461bcd60e51b815260206004820152602f60248201527f4f6e6c792074686520746f6b656e20726563697069656e742063616e2070657260448201527f666f726d2074686520756e6c6f636b0000000000000000000000000000000000606482015260840161017c565b7f00000000000000000000000000000000000000000000000000000000000000006001600160a01b0316836001600160a01b03161461088f5760405162461bcd60e51b8152602060048201526064602482018190527f546f6b656e20706172616d65746572206d757374206265207468652073616d6560448301527f2061732074686520657263323020636f6e747261637420616464726573732077908201527f68696368207761732070617373656420696e746f2074686520636f6e7374727560848201526331ba37b960e11b60a482015260c40161017c565b600354421061095b576001600160a01b0382166000908152600460205260409020546108bb9082610402565b6001600160a01b0383166000908152600460209081526040808320939093556005905220546108ea90826114ca565b6001600160a01b0380841660009081526005602052604090209190915561091490841683836114d6565b604080516001600160a01b0384168152602081018390527fe7b379c6c1fa169e9079c25e9143b127637eef8ec8c9d5c06ddb4ab3e1195888910160405180910390a16109c9565b60405162461bcd60e51b815260206004820152603f60248201527f546f6b656e7320617265206f6e6c7920617661696c61626c652061667465722060448201527f636f72726563742074696d6520706572696f642068617320656c617073656400606482015260840161017c565b50506000805460ff60a01b1916905550565b6000546001600160a01b03163314610a355760405162461bcd60e51b815260206004820181905260248201527f4f776e61626c653a2063616c6c6572206973206e6f7420746865206f776e6572604482015260640161017c565b600054600160a01b900460ff1615610a805760405162461bcd60e51b815260206004820152600e60248201526d4e6f2072652d656e7472616e637960901b604482015260640161017c565b6000805460ff60a01b1916600160a01b1790556001600160a01b038216610ae95760405162461bcd60e51b815260206004820152601d60248201527f546f6b656e20616464726573732063616e206e6f74206265207a65726f000000604482015260640161017c565b7f00000000000000000000000000000000000000000000000000000000000000006001600160a01b0316826001600160a01b03161415610bb75760405162461bcd60e51b815260206004820152604c60248201527f546f6b656e20616464726573732063616e206e6f74206265204552433230206160448201527f646472657373207768696368207761732070617373656420696e746f2074686560648201527f20636f6e7374727563746f720000000000000000000000000000000000000000608482015260a40161017c565b610bcb6001600160a01b03831633836114d6565b50506000805460ff60a01b19169055565b6000546001600160a01b03163314610c365760405162461bcd60e51b815260206004820181905260248201527f4f776e61626c653a2063616c6c6572206973206e6f7420746865206f776e6572604482015260640161017c565b60025460ff1615610c955760405162461bcd60e51b8152602060048201526024808201527f5468652074696d65207374616d702068617320616c7265616479206265656e2060448201526339b2ba1760e11b606482015260840161017c565b600054600160a81b900460ff1615610cfe5760405162461bcd60e51b815260206004820152602660248201527f496e636f6d696e67206465706f736974732068617665206265656e2066696e616044820152653634b9b2b21760d11b606482015260840161017c565b6001600160a01b038216610d605760405162461bcd60e51b815260206004820152602360248201527f45524332303a207472616e7366657220746f20746865207a65726f206164647260448201526265737360e81b606482015260840161017c565b6001600160a01b038216600090815260056020526040902054610d839082610402565b6001600160a01b0383166000818152600560209081526040918290209390935580519182529181018390527fcad22dd3bcdad18c651a372fe3e7e893af3d354482d9ac6c310c8342eb7af574910160405180910390a15050565b6000546001600160a01b03163314610e375760405162461bcd60e51b815260206004820181905260248201527f4f776e61626c653a2063616c6c6572206973206e6f7420746865206f776e6572604482015260640161017c565b610e416000611542565b565b6000546001600160a01b03163314610e9d5760405162461bcd60e51b815260206004820181905260248201527f4f776e61626c653a2063616c6c6572206973206e6f7420746865206f776e6572604482015260640161017c565b60025460ff1615610efc5760405162461bcd60e51b8152602060048201526024808201527f5468652074696d65207374616d702068617320616c7265616479206265656e2060448201526339b2ba1760e11b606482015260840161017c565b6002805460ff191660019081179091554290819055610f1b9082610402565b60035550565b6000546001600160a01b03163314610f7b5760405162461bcd60e51b815260206004820181905260248201527f4f776e61626c653a2063616c6c6572206973206e6f7420746865206f776e6572604482015260640161017c565b600054600160a01b900460ff1615610fc65760405162461bcd60e51b815260206004820152600e60248201526d4e6f2072652d656e7472616e637960901b604482015260640161017c565b6000805460ff60a01b1916600160a01b17905560065481111561102b5760405162461bcd60e51b815260206004820152601260248201527f496e73756666696369656e742066756e64730000000000000000000000000000604482015260640161017c565b60065461103890826114ca565b600655604051339082156108fc029083906000818181858888f19350505050158015610bcb573d6000803e3d6000fd5b6000546001600160a01b031633146110c25760405162461bcd60e51b815260206004820181905260248201527f4f776e61626c653a2063616c6c6572206973206e6f7420746865206f776e6572604482015260640161017c565b60025460ff16156111215760405162461bcd60e51b8152602060048201526024808201527f5468652074696d65207374616d702068617320616c7265616479206265656e2060448201526339b2ba1760e11b606482015260840161017c565b600054600160a81b900460ff161561118a5760405162461bcd60e51b815260206004820152602660248201527f496e636f6d696e67206465706f736974732068617665206265656e2066696e616044820152653634b9b2b21760d11b606482015260840161017c565b8281146112095760405162461bcd60e51b815260206004820152604160248201527f54686520726563697069656e747320616e6420616d6f756e747320617272617960448201527f73206d757374206265207468652073616d652073697a6520696e206c656e67746064820152600d60fb1b608482015260a40161017c565b60005b838110156113e1576000858583818110611228576112286119bc565b905060200201602081019061123d9190611874565b6001600160a01b031614156112a05760405162461bcd60e51b815260206004820152602360248201527f45524332303a207472616e7366657220746f20746865207a65726f206164647260448201526265737360e81b606482015260840161017c565b6113078383838181106112b5576112b56119bc565b90506020020135600560008888868181106112d2576112d26119bc565b90506020020160208101906112e79190611874565b6001600160a01b0316815260208101919091526040016000205490610402565b6005600087878581811061131d5761131d6119bc565b90506020020160208101906113329190611874565b6001600160a01b031681526020810191909152604001600020557fcad22dd3bcdad18c651a372fe3e7e893af3d354482d9ac6c310c8342eb7af57485858381811061137f5761137f6119bc565b90506020020160208101906113949190611874565b8484848181106113a6576113a66119bc565b604080516001600160a01b0390951685526020918202939093013590840152500160405180910390a1806113d9816119d2565b91505061120c565b5050505050565b6000546001600160a01b031633146114425760405162461bcd60e51b815260206004820181905260248201527f4f776e61626c653a2063616c6c6572206973206e6f7420746865206f776e6572604482015260640161017c565b6001600160a01b0381166114be5760405162461bcd60e51b815260206004820152602660248201527f4f776e61626c653a206e6577206f776e657220697320746865207a65726f206160448201527f6464726573730000000000000000000000000000000000000000000000000000606482015260840161017c565b6114c781611542565b50565b600061040e82846119ed565b604080516001600160a01b038416602482015260448082018490528251808303909101815260649091019091526020810180517bffffffffffffffffffffffffffffffffffffffffffffffffffffffff1663a9059cbb60e01b17905261153d9084906115aa565b505050565b600080546001600160a01b038381167fffffffffffffffffffffffff0000000000000000000000000000000000000000831681178455604051919092169283917f8be0079c531659141344cd1fd0a4f28419497f9722a3daafe3b4186f6b6457e09190a35050565b60006115ff826040518060400160405280602081526020017f5361666545524332303a206c6f772d6c6576656c2063616c6c206661696c6564815250856001600160a01b031661168f9092919063ffffffff16565b80519091501561153d578080602001905181019061161d9190611a04565b61153d5760405162461bcd60e51b815260206004820152602a60248201527f5361666545524332303a204552433230206f7065726174696f6e20646964206e60448201527f6f74207375636365656400000000000000000000000000000000000000000000606482015260840161017c565b606061169e84846000856116a6565b949350505050565b60608247101561171e5760405162461bcd60e51b815260206004820152602660248201527f416464726573733a20696e73756666696369656e742062616c616e636520666f60448201527f722063616c6c0000000000000000000000000000000000000000000000000000606482015260840161017c565b843b61176c5760405162461bcd60e51b815260206004820152601d60248201527f416464726573733a2063616c6c20746f206e6f6e2d636f6e7472616374000000604482015260640161017c565b600080866001600160a01b031685876040516117889190611a56565b60006040518083038185875af1925050503d80600081146117c5576040519150601f19603f3d011682016040523d82523d6000602084013e6117ca565b606091505b50915091506117da8282866117e5565b979650505050505050565b606083156117f457508161040e565b8251156118045782518084602001fd5b8160405162461bcd60e51b815260040161017c9190611a72565b6001600160a01b03811681146114c757600080fd5b60008060006060848603121561184857600080fd5b83356118538161181e565b925060208401356118638161181e565b929592945050506040919091013590565b60006020828403121561188657600080fd5b813561040e8161181e565b600080604083850312156118a457600080fd5b82356118af8161181e565b946020939093013593505050565b6000602082840312156118cf57600080fd5b5035919050565b60008083601f8401126118e857600080fd5b50813567ffffffffffffffff81111561190057600080fd5b6020830191508360208260051b850101111561191b57600080fd5b9250929050565b6000806000806040858703121561193857600080fd5b843567ffffffffffffffff8082111561195057600080fd5b61195c888389016118d6565b9096509450602087013591508082111561197557600080fd5b50611982878288016118d6565b95989497509550505050565b634e487b7160e01b600052601160045260246000fd5b600082198211156119b7576119b761198e565b500190565b634e487b7160e01b600052603260045260246000fd5b60006000198214156119e6576119e661198e565b5060010190565b6000828210156119ff576119ff61198e565b500390565b600060208284031215611a1657600080fd5b8151801515811461040e57600080fd5b60005b83811015611a41578181015183820152602001611a29565b83811115611a50576000848401525b50505050565b60008251611a68818460208701611a26565b9190910192915050565b6020815260008251806020840152611a91816040850160208701611a26565b601f01601f1916919091016040019291505056fea164736f6c6343000809000a"
}